{
  "contracts/Voting.sol": {
    "CryptonVoting": {
      "abi": [
        {
          "inputs": [
            {
              "internalType": "uint256",
              "name": "_voteDuration",
              "type": "uint256"
            }
          ],
          "stateMutability": "nonpayable",
          "type": "constructor"
        },
        {
          "anonymous": false,
          "inputs": [
            {
              "indexed": true,
              "internalType": "address",
              "name": "_to",
              "type": "address"
            },
            {
              "indexed": false,
              "internalType": "uint256",
              "name": "_value",
              "type": "uint256"
            }
          ],
          "name": "Transfer",
          "type": "event"
        },
        {
          "anonymous": false,
          "inputs": [
            {
              "indexed": true,
              "internalType": "uint256",
              "name": "_voteIndex",
              "type": "uint256"
            },
            {
              "indexed": true,
              "internalType": "address",
              "name": "_winnerAddress",
              "type": "address"
            },
            {
              "indexed": false,
              "internalType": "uint256",
              "name": "_prize",
              "type": "uint256"
            }
          ],
          "name": "Winner",
          "type": "event"
        },
        {
          "inputs": [
            {
              "internalType": "uint256",
              "name": "_voteIndex",
              "type": "uint256"
            },
            {
              "internalType": "address[]",
              "name": "_candidatesAddresses",
              "type": "address[]"
            },
            {
              "internalType": "bytes32[]",
              "name": "_candidatesNames",
              "type": "bytes32[]"
            }
          ],
          "name": "addVote",
          "outputs": [],
          "stateMutability": "nonpayable",
          "type": "function"
        },
        {
          "inputs": [
            {
              "internalType": "uint256",
              "name": "_voteIndex",
              "type": "uint256"
            },
            {
              "internalType": "bytes32",
              "name": "_candidateName",
              "type": "bytes32"
            }
          ],
          "name": "checkCandidate",
          "outputs": [
            {
              "internalType": "bool",
              "name": "",
              "type": "bool"
            }
          ],
          "stateMutability": "view",
          "type": "function"
        },
        {
          "inputs": [
            {
              "internalType": "uint256",
              "name": "_voteIndex",
              "type": "uint256"
            }
          ],
          "name": "checkFinishVoting",
          "outputs": [
            {
              "internalType": "bool",
              "name": "",
              "type": "bool"
            }
          ],
          "stateMutability": "nonpayable",
          "type": "function"
        },
        {
          "inputs": [
            {
              "internalType": "uint256",
              "name": "_voteIndex",
              "type": "uint256"
            },
            {
              "internalType": "address",
              "name": "_address",
              "type": "address"
            }
          ],
          "name": "checkVote",
          "outputs": [
            {
              "internalType": "bool",
              "name": "",
              "type": "bool"
            }
          ],
          "stateMutability": "view",
          "type": "function"
        },
        {
          "inputs": [
            {
              "internalType": "uint256",
              "name": "_voteIndex",
              "type": "uint256"
            }
          ],
          "name": "checkVoting",
          "outputs": [
            {
              "internalType": "bool",
              "name": "",
              "type": "bool"
            }
          ],
          "stateMutability": "view",
          "type": "function"
        },
        {
          "inputs": [],
          "name": "comission",
          "outputs": [
            {
              "internalType": "uint256",
              "name": "",
              "type": "uint256"
            }
          ],
          "stateMutability": "view",
          "type": "function"
        },
        {
          "inputs": [],
          "name": "currentTime",
          "outputs": [
            {
              "internalType": "uint256",
              "name": "",
              "type": "uint256"
            }
          ],
          "stateMutability": "view",
          "type": "function"
        },
        {
          "inputs": [],
          "name": "destruct",
          "outputs": [],
          "stateMutability": "nonpayable",
          "type": "function"
        },
        {
          "inputs": [
            {
              "internalType": "uint256",
              "name": "_voteIndex",
              "type": "uint256"
            }
          ],
          "name": "finishVote",
          "outputs": [],
          "stateMutability": "nonpayable",
          "type": "function"
        },
        {
          "inputs": [],
          "name": "getBalance",
          "outputs": [
            {
              "internalType": "uint256",
              "name": "",
              "type": "uint256"
            }
          ],
          "stateMutability": "view",
          "type": "function"
        },
        {
          "inputs": [
            {
              "internalType": "uint256",
              "name": "_voteIndex",
              "type": "uint256"
            },
            {
              "internalType": "bytes32",
              "name": "_candidateName",
              "type": "bytes32"
            }
          ],
          "name": "getCandidate",
          "outputs": [
            {
              "components": [
                {
                  "internalType": "address",
                  "name": "candidateAddress",
                  "type": "address"
                },
                {
                  "internalType": "uint256",
                  "name": "votesCount",
                  "type": "uint256"
                }
              ],
              "internalType": "struct CryptonVoting.Candidate",
              "name": "",
              "type": "tuple"
            }
          ],
          "stateMutability": "view",
          "type": "function"
        },
        {
          "inputs": [],
          "name": "getFreeBalance",
          "outputs": [
            {
              "internalType": "uint256",
              "name": "",
              "type": "uint256"
            }
          ],
          "stateMutability": "view",
          "type": "function"
        },
        {
          "inputs": [
            {
              "internalType": "uint256",
              "name": "_voteIndex",
              "type": "uint256"
            }
          ],
          "name": "getTimeLeft",
          "outputs": [
            {
              "internalType": "int256",
              "name": "",
              "type": "int256"
            }
          ],
          "stateMutability": "view",
          "type": "function"
        },
        {
          "inputs": [
            {
              "internalType": "uint256",
              "name": "_voteIndex",
              "type": "uint256"
            }
          ],
          "name": "getVotingCandidates",
          "outputs": [
            {
              "components": [
                {
                  "internalType": "address",
                  "name": "candidateAddress",
                  "type": "address"
                },
                {
                  "internalType": "uint256",
                  "name": "votesCount",
                  "type": "uint256"
                }
              ],
              "internalType": "struct CryptonVoting.Candidate[]",
              "name": "_candidates",
              "type": "tuple[]"
            }
          ],
          "stateMutability": "view",
          "type": "function"
        },
        {
          "inputs": [
            {
              "internalType": "uint256",
              "name": "_voteIndex",
              "type": "uint256"
            }
          ],
          "name": "getWinners",
          "outputs": [
            {
              "internalType": "address[]",
              "name": "",
              "type": "address[]"
            }
          ],
          "stateMutability": "view",
          "type": "function"
        },
        {
          "inputs": [
            {
              "internalType": "uint256",
              "name": "_voteIndex",
              "type": "uint256"
            },
            {
              "internalType": "bytes32",
              "name": "_candidateName",
              "type": "bytes32"
            }
          ],
          "name": "vote",
          "outputs": [],
          "stateMutability": "payable",
          "type": "function"
        },
        {
          "inputs": [],
          "name": "voteDuration",
          "outputs": [
            {
              "internalType": "uint256",
              "name": "",
              "type": "uint256"
            }
          ],
          "stateMutability": "view",
          "type": "function"
        },
        {
          "inputs": [],
          "name": "votePrice",
          "outputs": [
            {
              "internalType": "uint256",
              "name": "",
              "type": "uint256"
            }
          ],
          "stateMutability": "view",
          "type": "function"
        },
        {
          "inputs": [
            {
              "internalType": "uint256",
              "name": "_voteIndex",
              "type": "uint256"
            }
          ],
          "name": "winners",
          "outputs": [
            {
              "internalType": "address[]",
              "name": "_winners",
              "type": "address[]"
            }
          ],
          "stateMutability": "view",
          "type": "function"
        },
        {
          "inputs": [
            {
              "internalType": "uint256",
              "name": "_value",
              "type": "uint256"
            }
          ],
          "name": "withdraw",
          "outputs": [],
          "stateMutability": "nonpayable",
          "type": "function"
        }
      ],
      "evm": {
        "bytecode": {
          "linkReferences": {},
          "object": "608060405267016345785d8a0000600255600a6003553480156200002257600080fd5b50604051620052f9380380620052f98339818101604052810190620000489190620001b5565b6200007c7f0a46103760d03e783f1b2cd58e71e5f9b6c30c5e2f0937846baa0f5977a5d52860001b6200019b60201b60201c565b620000b07f4c857b2251ec4129f2276937a266a53f05ecf337e62d360543e21180680fab9260001b6200019b60201b60201c565b620000e47f14e52fdcec9cbab7137b05ab826de9bb95650c0b81fe595061b84e97fb855ff460001b6200019b60201b60201c565b33600560006101000a81548173ffffffffffffffffffffffffffffffffffffffff021916908373ffffffffffffffffffffffffffffffffffffffff160217905550620001597f7b5bf6b761aba29f8966c4326733c0ba9a6bc2f9070da3e28282a83b28f5a58160001b6200019b60201b60201c565b6200018d7f1d8963ccff0a385e717ef0ad2d5965ff70eab02cd3a28b7b3e9809f2cf73f65d60001b6200019b60201b60201c565b806001819055505062000205565b50565b600081519050620001af81620001eb565b92915050565b600060208284031215620001c857600080fd5b6000620001d8848285016200019e565b91505092915050565b6000819050919050565b620001f681620001e1565b81146200020257600080fd5b50565b6150e480620002156000396000f3fe60806040526004361061011f5760003560e01c80636b1426a4116100a0578063d18e81b311610064578063d18e81b314610400578063e13646f01461042b578063e8c5876314610454578063e93c4f1514610491578063ff110b06146104bc5761011f565b80636b1426a4146102e1578063860c851a1461031e578063a2fb117514610349578063be58b30e14610386578063cdfcc591146103c35761011f565b80632e1a7d4d116100e75780632e1a7d4d1461021d5780633a4b45321461024657806356364499146102715780635977e8671461029c57806368bb8bb6146102c55761011f565b806312065fe0146101245780631c64b6701461014f578063269617771461018c5780632b68b9c6146101c95780632c7b1bd7146101e0575b600080fd5b34801561013057600080fd5b506101396104f9565b6040516101469190614a15565b60405180910390f35b34801561015b57600080fd5b5061017660048036038101906101719190614321565b610585565b6040516101839190614804565b60405180910390f35b34801561019857600080fd5b506101b360048036038101906101ae919061434a565b610744565b6040516101c09190614804565b60405180910390f35b3480156101d557600080fd5b506101de610943565b005b3480156101ec57600080fd5b5061020760048036038101906102029190614405565b610b99565b60405161021491906149fa565b60405180910390f35b34801561022957600080fd5b50610244600480360381019061023f9190614321565b610cbe565b005b34801561025257600080fd5b5061025b6111f6565b6040516102689190614a15565b60405180910390f35b34801561027d57600080fd5b506102866111fc565b6040516102939190614a15565b60405180910390f35b3480156102a857600080fd5b506102c360048036038101906102be9190614386565b611202565b005b6102df60048036038101906102da9190614405565b611c3b565b005b3480156102ed57600080fd5b5061030860048036038101906103039190614321565b612478565b60405161031591906147c0565b60405180910390f35b34801561032a57600080fd5b5061033361250e565b6040516103409190614a15565b60405180910390f35b34801561035557600080fd5b50610370600480360381019061036b9190614321565b612514565b60405161037d91906147c0565b60405180910390f35b34801561039257600080fd5b506103ad60048036038101906103a89190614321565b612f05565b6040516103ba91906147e2565b60405180910390f35b3480156103cf57600080fd5b506103ea60048036038101906103e59190614405565b613237565b6040516103f79190614804565b60405180910390f35b34801561040c57600080fd5b50610415613456565b6040516104229190614a15565b60405180910390f35b34801561043757600080fd5b50610452600480360381019061044d9190614321565b6134e2565b005b34801561046057600080fd5b5061047b60048036038101906104769190614321565b613609565b604051610488919061481f565b60405180910390f35b34801561049d57600080fd5b506104a66136be565b6040516104b39190614a15565b60405180910390f35b3480156104c857600080fd5b506104e360048036038101906104de9190614321565b6138e3565b6040516104f09190614804565b60405180910390f35b60006105277fdf5c5f99307595d02dbb82f92e84d8fd0ce42620a3f9708457cdd9f44149fc8760001b614183565b6105537f7be92e717284a065d304a4ecbb1dd4eabb487e779c82975c73d74c91f393723b60001b614183565b61057f7f5ee042667a8d2e01abaf3b0356859ba109975e099ce681aa99bbe4a182a7c87b60001b614183565b47905090565b60006105b37f303e8c43e2c077353cfb22963f51707a6a20465d2638d145f14477f145fbf5ba60001b614183565b6105df7fe4e10b44ca31460e6cdb9930faea31b5e3f78e1ad37891d79be744ac2a969b7360001b614183565b61060b7fa9c15db7037d4b6919cce4d5f85c6f9a2adfe273a26ca2ec3cb61aba06c3ec3a60001b614183565b60008060008481526020019081526020016000206004015414156106b6576106557f4a51b869862586a7fd26f5c33ee178513bbc7480abb4e084e981d443e9585fbe60001b614183565b6106817fedb2ca1263c0741df9febc9f2ae8a457d8350f2ec895688ef04754480e2ad82f60001b614183565b6106ad7fd32e4db8fdbe52a6d260704c39bcfebe034ac4a505b21bebc3e5d478efc4865b60001b614183565b6000905061073f565b6106e27ffbfdf3ce9106c2e6c4945e8e3a9f643f935d1bd37b0938d8d73a3a8f8e166c1f60001b614183565b61070e7f9ac151028f92b31e97f77391bae10f5815cf905094b98c650081ae599128a1ee60001b614183565b61073a7f212638c561dd74f9fc9e8e5347e7031dc51cd797f3252c1dbf1c4343a055279b60001b614183565b600190505b919050565b60006107727f78710ec47766e41645931cb8c36a205483ce17e206df03dea2f3ffa404d8aaad60001b614183565b61079e7f1843891f0b62f7f77eef9e96cb88bc3fee793ea271aa06ce3bb579c3008b069060001b614183565b6107ca7fe676098e046f4575e48555bfe26ac4b57f771908a421149e29c04ce92673522360001b614183565b6000801b60008085815260200190815260200160002060000160008473ffffffffffffffffffffffffffffffffffffffff1673ffffffffffffffffffffffffffffffffffffffff1681526020019081526020016000205414156108b4576108537f8f7ff236f3833984bddf0244f083cfffb7baa4fa2a3d976e5577980206425d8560001b614183565b61087f7fab1f658b733ab8400249dda1ac1992518d2d0f9b1e156a7f93bd58af3302f61060001b614183565b6108ab7f46a4aada76813741a1ca1ea8fffcc72dfe47f58ec7f9a90f3a17eb0bcd86bfe860001b614183565b6000905061093d565b6108e07f6936ecda9d8916b72b7b9f40d80017295427df88baacea4b6473343c9c89650b60001b614183565b61090c7f4861cfa06bda1343033c3fa7a35685ff6723278e4564fe55d7bb5a2c89e0916560001b614183565b6109387f3c7af0c7f8f4b479781275aaca4275a784b68eac9ded6989e63650b17e06977560001b614183565b600190505b92915050565b61096f7f801dac2cca4145cf73c1e44bb5351dcb05f3039694df7b0bf620e8257fc3709460001b614183565b61099b7fe4cf38610eb6b2aed51251219bf2001c9e9a4e7c986190f58a4a322a008caf7060001b614183565b6109c77fcf73666c091f72e447272bc286b587cfa9ae1ab4ba6cfee4b4241ccab5b2a55560001b614183565b6109f27e9d2d3dadadc3251875ca729bd8a78dd31a1226bd81dbcdf8ce754e99cf481d60001b614183565b600560009054906101000a900473ffffffffffffffffffffffffffffffffffffffff1673ffffffffffffffffffffffffffffffffffffffff163373ffffffffffffffffffffffffffffffffffffffff1614610a82576040517f08c379a0000000000000000000000000000000000000000000000000000000008152600401610a799061485a565b60405180910390fd5b610aae7f50867972228163d166b9e8dc1ba50a84a764215a5bea6cc6f3dab88fd23b6b8f60001b614183565b610ada7ffaec0b0457ef8a679827acfa17fc28274566de22b0c417ba87cababc2497246060001b614183565b610b067ff5e240354bc5bb3496b9e96013282c032b5a8e33ad29bb194c1e74e9b609829860001b614183565b610b327f146d6bdc370fcf9153ad93e721a746aeba5f82c681e24c3e0b131fec4eef811460001b614183565b610b5e7f057da40c6ab599e94a9d9c6e259c097928d82238de154508c53a2edc7ea3976160001b614183565b600560009054906101000a900473ffffffffffffffffffffffffffffffffffffffff1673ffffffffffffffffffffffffffffffffffffffff16ff5b610ba1614186565b610bcd7f4f188af283a3812465da23f6757b93498c4c5ade911fca1a40fcf9f3c319fca260001b614183565b610bf97f474a6aaa5f2e16fb87c035a8d92d4e75d05d8bfb341acc3f597bf46783d1088560001b614183565b610c257ff7433932e506b110999cd0bf8e58fceb6a923605fcccd47c7e595d79b72af65d60001b614183565b60008084815260200190815260200160002060010160008381526020019081526020016000206040518060400160405290816000820160009054906101000a900473ffffffffffffffffffffffffffffffffffffffff1673ffffffffffffffffffffffffffffffffffffffff1673ffffffffffffffffffffffffffffffffffffffff168152602001600182015481525050905092915050565b610cea7f801dac2cca4145cf73c1e44bb5351dcb05f3039694df7b0bf620e8257fc3709460001b614183565b610d167fe4cf38610eb6b2aed51251219bf2001c9e9a4e7c986190f58a4a322a008caf7060001b614183565b610d427fcf73666c091f72e447272bc286b587cfa9ae1ab4ba6cfee4b4241ccab5b2a55560001b614183565b610d6d7e9d2d3dadadc3251875ca729bd8a78dd31a1226bd81dbcdf8ce754e99cf481d60001b614183565b600560009054906101000a900473ffffffffffffffffffffffffffffffffffffffff1673ffffffffffffffffffffffffffffffffffffffff163373ffffffffffffffffffffffffffffffffffffffff1614610dfd576040517f08c379a0000000000000000000000000000000000000000000000000000000008152600401610df49061485a565b60405180910390fd5b610e297f50867972228163d166b9e8dc1ba50a84a764215a5bea6cc6f3dab88fd23b6b8f60001b614183565b610e557ffaec0b0457ef8a679827acfa17fc28274566de22b0c417ba87cababc2497246060001b614183565b610e817fdd7c23039c5cfd0de197dd04ae14987cba1c6aca8de66a0c2c9a136615917b2260001b614183565b610ead7f508a9d4d92bc6503961b0330feb5aba661c7ba0af8b9ea79938c97cbc259b9e160001b614183565b610ed97fb7d076b057978ec309c70533a29c238d470861c5cf6c1a3aab79cd94803481b360001b614183565b610f057f7c30536f7ff718ca7d95a5b66d183b399133c440f1e611ca0dc5604b3a031ddc60001b614183565b600454811115610f4a576040517f08c379a0000000000000000000000000000000000000000000000000000000008152600401610f419061491a565b60405180910390fd5b610f767f4eeb60b7007b449dd3d9ae7b4f022540a91cf2514738a35e113a3f916c5d731160001b614183565b610fa27f2a80211ae5361e719edea6875b5eae8ee9e49d5bf4b47413ca878869e4364f8160001b614183565b610fce7ffb7a6402889a477fd8c9b3fa7f990d5f81d940bfd0a86f024a0cf603e38cfaff60001b614183565b610ffa7f2003df7e55239bbe0810382ad85128bb317ebac1113d2bdf575936106bca63fa60001b614183565b600081141561103e576040517f08c379a0000000000000000000000000000000000000000000000000000000008152600401611035906148da565b60405180910390fd5b61106a7fbfbc4b8fd85d9549d066f7638f206b78ed8b73bb921e4f95260b8b148bf84d7160001b614183565b6110967f0d4046d480b1c3864109bdc335afd997e5afaa69309bde7fe362cc1dd29e08ec60001b614183565b6110c27f983043dcec0b90562af12bc667203ea2125eebe6d22178e1de33da31bad12c3d60001b614183565b600560009054906101000a900473ffffffffffffffffffffffffffffffffffffffff1673ffffffffffffffffffffffffffffffffffffffff166108fc829081150290604051600060405180830381858888f1935050505015801561112a573d6000803e3d6000fd5b506111577f43a870ecb37b9da7d10dc6e80807558131870e9c652b5023d0f57f4c3031d0e260001b614183565b6111837fb0430d52cda17f0f1a67e7192da36ac223d335f6bc2db18bb739f84f67a962b460001b614183565b600560009054906101000a900473ffffffffffffffffffffffffffffffffffffffff1673ffffffffffffffffffffffffffffffffffffffff167f69ca02dd4edd7bf0a4abb9ed3b7af3f14778db5d61921c7dc7cd545266326de2826040516111eb9190614a15565b60405180910390a250565b60035481565b60015481565b61122e7f801dac2cca4145cf73c1e44bb5351dcb05f3039694df7b0bf620e8257fc3709460001b614183565b61125a7fe4cf38610eb6b2aed51251219bf2001c9e9a4e7c986190f58a4a322a008caf7060001b614183565b6112867fcf73666c091f72e447272bc286b587cfa9ae1ab4ba6cfee4b4241ccab5b2a55560001b614183565b6112b17e9d2d3dadadc3251875ca729bd8a78dd31a1226bd81dbcdf8ce754e99cf481d60001b614183565b600560009054906101000a900473ffffffffffffffffffffffffffffffffffffffff1673ffffffffffffffffffffffffffffffffffffffff163373ffffffffffffffffffffffffffffffffffffffff1614611341576040517f08c379a00000000000000000000000000000000000000000000000000000000081526004016113389061485a565b60405180910390fd5b61136d7f50867972228163d166b9e8dc1ba50a84a764215a5bea6cc6f3dab88fd23b6b8f60001b614183565b6113997ffaec0b0457ef8a679827acfa17fc28274566de22b0c417ba87cababc2497246060001b614183565b6113c57feb0edcf38b93035eb8adc766ec950fe55b326fadb6648477d08802379f6a281160001b614183565b6113f17f287d726852fa6668c51e4cf7713e54dd750ac66c794e88a0df60e05d3249172b60001b614183565b61141d7f99261d474aff0b932ac9cb8fe9ab94d0067332b08a6bfbb147959014d8a2ac2160001b614183565b6114497f0facd25ab17291aa3dadf183e55f014ac323faea950fe1608f796f021d24872860001b614183565b600083141561148d576040517f08c379a00000000000000000000000000000000000000000000000000000000081526004016114849061497a565b60405180910390fd5b6114b97f6d0ae70c3beb53eb8b5a1c3fe7cfced37e9095339b6cb12f0eedbc602cb72b4360001b614183565b6114e57f6bddd38d42fc57bd5d72e832d039fc9d514373ff1b6efe7965d757b502ff023060001b614183565b6115117f26ccef134fd1a20906d26dbb6229dc498f052d2262eb347e64b11752ab3fbee660001b614183565b61153d7f6af54c6183f04ff7b177ce3a9e9f09b34990a21f83507984f9a61da59793445960001b614183565b61154683610585565b15611586576040517f08c379a000000000000000000000000000000000000000000000000000000000815260040161157d906149da565b60405180910390fd5b6115b27f0fd66da463211dd4ced799ea2a172b4559e0824b46b94f8e3bc168f8f8c6a27e60001b614183565b6115de7f3925172c478046dec39ebc775bdfe100569c5a44a1c51940f65615dfee0c583860001b614183565b61160a7fbff36cdcff5689da77054672951ff7b39ee8c14ed62fb69c4a1ad9738cb8274360001b614183565b6116367f2902921d5a9fa81a9c39e43111419a693df2c09ce69aeca34a4ba5ac79fb0cee60001b614183565b600182511161167a576040517f08c379a0000000000000000000000000000000000000000000000000000000008152600401611671906149ba565b60405180910390fd5b6116a67f342f9a5cca7c51f590b526126dc0990befb3b14b7147d24934980aef538a418760001b614183565b6116d27fd4e79f4ce62fefdbb82dfd02f1b824a0d6496430bb8ed93368653f889eff6b9160001b614183565b6116fe7f1bae8eb5ef8ca0b88231d670c77b7e40b3934b808965bdc14a898511071caac260001b614183565b61172a7f7bf74138d374a5c646ffd787dc03dbbc6a529a8aa2e3adf12e41b211ff0b095660001b614183565b805182511461176e576040517f08c379a00000000000000000000000000000000000000000000000000000000081526004016117659061493a565b60405180910390fd5b61179a7fe6787fc85216c151cd8a25dd35e7cd965b1c40844c7f9bddfc0130817a15b11960001b614183565b6117c67febefefab0e8e68aac7a0a9342efd027d1c9d27bc31a64b31df0e4bd9f196d11d60001b614183565b6117f27fc11c02ba5092c85c484476143b4c4cec931934f816db2ed8edde734e8406bcf460001b614183565b60005b8251811015611b295761182a7fae9e956d0ceeacd7356be6244ef6deb6da83f371fefdfbe473520baaf3b2c33060001b614183565b6118567fcc19f2893759b962425b9698a60c6480f2097f1513806f33c78edd4c0df0fc8960001b614183565b6118a084838381518110611893577f4e487b7100000000000000000000000000000000000000000000000000000000600052603260045260246000fd5b6020026020010151613237565b611ae9576118d07fdc14ee55bf883bcfb142a35bce372e1494dd9552f2bbd059d52640727df045bd60001b614183565b6118fc7fc916e697c78b3828c55e0baa999063b0399dc93d2e93732ac92ff430c283ad2d60001b614183565b6119287f23e98e1f44661ac83c246a9dd3ce47076e174da5493642329b9d722df3da289260001b614183565b828181518110611961577f4e487b7100000000000000000000000000000000000000000000000000000000600052603260045260246000fd5b602002602001015160008086815260200190815260200160002060010160008484815181106119b9577f4e487b7100000000000000000000000000000000000000000000000000000000600052603260045260246000fd5b6020026020010151815260200190815260200160002060000160006101000a81548173ffffffffffffffffffffffffffffffffffffffff021916908373ffffffffffffffffffffffffffffffffffffffff160217905550611a3c7f18281653f55a88908614ccd07a3d14e08e2b9ca61c974365f59f14cab56ff67d60001b614183565b611a687f1602f9ee2b19e0a0f676f4bb265c91942e75b30eb21dbc932cdd11f592cb9b1960001b614183565b600080858152602001908152602001600020600201828281518110611ab6577f4e487b7100000000000000000000000000000000000000000000000000000000600052603260045260246000fd5b60200260200101519080600181540180825580915050600190039060005260206000200160009091909190915055611b16565b611b157f3b45b2493b6b3d16422a459cf23eab1ed2df27a62f0812a83b97f165b4d3c26060001b614183565b5b8080611b2190614cd2565b9150506117f5565b50611b567f8ec3c513de4da8800b541fd1129e4d82e654183ab3e1d9c35e9cf6af60ce550e60001b614183565b611b827f0246531a3e4bf8743d41b96c4cb5a69b18b22a98cb6e623449b3588ac898fb7660001b614183565b600160008085815260200190815260200160002060050160006101000a81548160ff021916908315150217905550611bdc7ffeb9b7fe8a0eb23859c092fcd41dd85782875501deea58a1840af340b87ef1f660001b614183565b611c087f2596a841cc274f844b2b0d4fc64c948422dc6f94908ebba7a0d5fa1758da5e9860001b614183565b600154611c13613456565b611c1d9190614b30565b60008085815260200190815260200160002060040181905550505050565b8181611c697f77da160107ab4ac13172fb08641b4b532e605fc8e59024b84378598e51ffb89e60001b614183565b611c957fa0aeb7f0438379b3207f90a87e829570002999f1ac467f23d660580c0037ec6c60001b614183565b611cc17f88efe0b18047a5bdf9f965425476495e91b310181b23ff6cb74df13ac0a87ae760001b614183565b611ced7f559eb31416b0071b1c9d6e50ee5f9bdbb99319aab5e163cb8ae7622a8357b74460001b614183565b611cf682610585565b611d35576040517f08c379a0000000000000000000000000000000000000000000000000000000008152600401611d2c9061483a565b60405180910390fd5b611d617f9b07d54f59f1bd35892de9353d458b3ae5b7201784d0bc81b3d9fea56c4b396e60001b614183565b611d8d7ffacc6b6b950572d0227a8b4e9562a788e097e1a565516ced96db4defc97651ae60001b614183565b611db97f2975776d2f7e2d81cbfab0f32b53d96111951e032a10e4080a60ca60dde17f0660001b614183565b611de57ff5b13c389fdad319a93319c3cd25728e105e618593a8e759bbcc189c89a99d3860001b614183565b611dee826138e3565b15611e2e576040517f08c379a0000000000000000000000000000000000000000000000000000000008152600401611e259061487a565b60405180910390fd5b611e5a7f298d8f708aeb89268a1d07352227dbdb93a529539e64ed76dbc5d88bcc03b56b60001b614183565b611e867f90f059551838702bfbade35e18593ce655131f11ae3995aa8a51772c4a524ec660001b614183565b611eb27f42dbc9a32df84fe9c32bff6bd68e21cacd592a75aa5f35c19908d15a74236c2760001b614183565b611ede7ff938564f8acf63afe85696f63f0f738bddd3656cbe355319fb6eee07471f1eca60001b614183565b611ee88282613237565b611f27576040517f08c379a0000000000000000000000000000000000000000000000000000000008152600401611f1e9061499a565b60405180910390fd5b611f537fe665862712434e237357a20eba2f772186b37d3a0fb5813f1aac8628e3fbd50360001b614183565b611f7f7f8f3e893ccb60430ac0846a4fbbc2fd53f5588ff8d7b20e8f6f2a903ce92a33ef60001b614183565b611fab7f71251e326d4fc76990e96132fb4656931b88529d35f8dc7a547444cd5713b8ce60001b614183565b611fd77f3efb801cf17cd697e208e955a2ac0e83f5d8f9c2d1e49e2699f7bdda0c571c4e60001b614183565b600080838152602001908152602001600020600101600082815260200190815260200160002060000160009054906101000a900473ffffffffffffffffffffffffffffffffffffffff1673ffffffffffffffffffffffffffffffffffffffff163373ffffffffffffffffffffffffffffffffffffffff16141561208f576040517f08c379a00000000000000000000000000000000000000000000000000000000081526004016120869061489a565b60405180910390fd5b6120bb7f6878309ebd20acfb4651c5ea477ae3bc11093b51530227919ff4b1cc757af5c860001b614183565b6120e77fbdca5590ec9d572c34111ebacda8a41bcc2e0516023f7ba84523bbd2b3950d2460001b614183565b6121137f59cd687bf6a3664fa077d9fc4dc6fb1f30809dbeb003f9cabd8a695e878c204d60001b614183565b61213f7fbd2db34ec2374176f512471bfc7ef087aa1f09c680fb2975fcfd161e125e3d1c60001b614183565b6121498233610744565b15612189576040517f08c379a0000000000000000000000000000000000000000000000000000000008152600401612180906148ba565b60405180910390fd5b6121b57f25461f67ad9ebb73668d152004b942213f9e27483ff867b1e0c40e089e60618160001b614183565b6121e17f0a2f9080db569918923fa94f06ce520727c78f7fd994a66a7d383ba1fa3aa26f60001b614183565b61220d7fbdc4f94f4d8650470e4e58842871ac996ed38567673530b426807297cf19ba5260001b614183565b6122397ff06de43ed9ea2eb00c037d5477a7326f266760601393ff1ef19856da0745f30260001b614183565b600254341461227d576040517f08c379a00000000000000000000000000000000000000000000000000000000081526004016122749061495a565b60405180910390fd5b6122a97f2e6558b47a0e65d0c36abeab14804552d76cf972cb46c84d8e71e326dbc4aca860001b614183565b6122d57f461d0451d8e35c2cb8e9bbe4f9bfc23d8cd0be769d93d4c822343c62a1d8e70160001b614183565b6123017f62d40332ce0518847d5cede476b06665f8781d9c9f0889a3d19c7611ffc99b6460001b614183565b61232d7f8e4f3fa3df0d0809b308e3c9898e78fc4237ed1ae30d49f5765562d003b49ec360001b614183565b6000808581526020019081526020016000206001016000848152602001908152602001600020600101600081548092919061236790614cd2565b91905055506123987fb2c774f71505bc6a8ad53c906b9d31b3408db315ea2b0735ce655c75dda853ea60001b614183565b6123c47f6ce743d4fa6eaee432605144c33609970faa5e40b103489ee300d5b2270f2a9660001b614183565b8260008086815260200190815260200160002060000160003373ffffffffffffffffffffffffffffffffffffffff1673ffffffffffffffffffffffffffffffffffffffff168152602001908152602001600020819055506124477f1a905d7ab86d195c4bc5deac15e8923ca17ae1d0677dbae64e8641a24c46cdcf60001b614183565b600080858152602001908152602001600020600301600081548092919061246d90614cd2565b919050555050505050565b60606124a67f6249c1f072d0d4b3853c19d764262808ba112596926e35723e36244c9d30477560001b614183565b6124d27f67b3b8fdbca3f49b3f08f896e86af8086ffc291c9aaa1aafad88c03d76f77dcc60001b614183565b6124fe7f5754ada1cf7fc830e55b31589d87ddc3a67a0fb0ed58731040ca6a0545ce079a60001b614183565b61250782612514565b9050919050565b60025481565b60606125427fd980f844476a03082987693d8bf16290a201cb4f456c84c2af43094fec0f405760001b614183565b61256e7fb461c1bd0c1dabc80ba017df99b8bba834e868f54d7fcaca00d637104f1765d760001b614183565b61259a7f1ec2008a2ddd73a32bd3b6ed560f9ac4d705804b3e804ccb737233f4f969284360001b614183565b60006125c87ff8a61a1b11eb40157ae7ef9826fbb4bcd42ea9cda497d96daf2002f73827a6c860001b614183565b6125f47f60a623e8a7b928312532a439cec2350a772014affa46ecfb881627874582986960001b614183565b6000600190506126267f0c7348cf12b0a72ddb7c29a9a08543a7c043cde4322a19b047d0199424ff3cb460001b614183565b6126527fe371e3dc66d493a096d7a6f543e190d65d9a073e3460d3eaa77eac555856f92c60001b614183565b60005b600080868152602001908152602001600020600201805490508110156129a7576126a17ff112b23c041ea2ef7640fc18d1123cc7728547531a0a9ad622c41cd5f0c5e67560001b614183565b6126cd7f583d8f4b10fd1afc47063cbb81b264c521156484b44b3c5eebb267475ec96cd960001b614183565b600080600087815260200190815260200160002060010160008060008981526020019081526020016000206002018481548110612733577f4e487b7100000000000000000000000000000000000000000000000000000000600052603260045260246000fd5b9060005260206000200154815260200190815260200160002060010154905061277e7f4ccbe73c856b5192a125ea4ce67d2dd5e98f9203e22224c09c24834e0d6772e860001b614183565b6127aa7f0b38d0d6523af0310b1b178c3c4d7db25e743aa79c68f48a88a8601accd59c9c60001b614183565b8381111561289a576127de7f4d9294571d344616e6a81e67aa4e006b68168c4b794f4e4491ba1270fbbb132860001b614183565b61280a7f7ebeb2ff017668530be8477daf6eeb4725c09da4ef5755d1b0d85f490723d5fc60001b614183565b6128367fe2c0bafc99f10bcd1b4dc37c6a2524153210d78e534c8b952a04eb1ec8e0888560001b614183565b8093506128657ffc8d52829c52d6130896664c99f3d875e0fba3f77cc4b829b968912192a9c95a60001b614183565b6128917f23900498f7a25fb926680697aa46c6505458fa424066d84040d0943ecc4062b260001b614183565b60019250612993565b6128c67f2a5a584def8d50060335364416c6712ee31cbe2d9f7236aacefccc769e2f601f60001b614183565b6128f27f53b0738891f90be2c27924e5bd57cdbd6cdffe192363a5146f30474bf8ba3b4a60001b614183565b83811415612965576129267f59c0011e3fa5dfb051caf6c023a3e6013dc6d1d7425628e7a586b9abcbe9d8b560001b614183565b6129527fe83e0681976a09128d13ed097959142ffe197a3edda1f8c3d34ec6236b15932160001b614183565b828061295d90614cd2565b935050612992565b6129917fe129b29918066535ddfc122c3c20cf31aab2fabd154a9b60db34dd67c1f55c3160001b614183565b5b5b50808061299f90614cd2565b915050612655565b506129d47f5f99390f842e89e5645a3a6f796b8e6062c4285a519ec7f8dee8539b846ff4bc60001b614183565b612a007f3a198ae6e3e3f78d59e20421429922050d50632a4762fc83c09f895917c2d8ae60001b614183565b6000821115612ed157612a357f9a90396b3d0b30e7908c6306442e2e9d76a2754e5abcedec12903b358e4a4b9f60001b614183565b612a617fd6747678637c73016787c5de4fc29aa74929e0408854d6ce30385ab971281f0860001b614183565b612a8d7f04fc5505e5b318faaed5426c7326997fc168066ecd9d7c357fb125670a28db9260001b614183565b8067ffffffffffffffff811115612acd577f4e487b7100000000000000000000000000000000000000000000000000000000600052604160045260246000fd5b604051908082528060200260200182016040528015612afb5781602001602082028036833780820191505090505b509250612b2a7fa5263a9c34f39a969b1a04955b52c7cee9ad11856e24266d3653915f6480bcb860001b614183565b612b567f056500318ecf3e852fa53a7bad07ab2e9d93b56ace6c68edcf2b2b60d7048f8660001b614183565b6000612b847fd96ce6280c91703d0ddcb8333e229e840b0be068d24f58cb49797193920745f960001b614183565b612bb07fe76efb4a3b9a1cc0f2f417043059cf01773262540165c5da931c4ae3d560cc1660001b614183565b60005b60008087815260200190815260200160002060020180549050811015612eca57612bff7f522c6e3a3dc394c8e48a85c94fd474b1ab352871ceef0e10b8e8e6bcbe11af9660001b614183565b612c2b7f273d4ac68fa76ca0a396f6fab8fa47cdd02ced62e5c40be530a94c0a841e54f960001b614183565b8360008088815260200190815260200160002060010160008060008a81526020019081526020016000206002018481548110612c90577f4e487b7100000000000000000000000000000000000000000000000000000000600052603260045260246000fd5b90600052602060002001548152602001908152602001600020600101541415612e8a57612cdf7fa704029bd2e8fa2c0ab47a097912551c061256be56646c8fb6f0f1da2bf8e1bd60001b614183565b612d0b7fb8e72b576d1b7adbc6eaee1b9aa1f4999259be188d63d155510029f37eb1cdd460001b614183565b612d377fc4d04c9fb7e24e5a6205be38f5711de7d3781a410ec30a2b2adec2bbf5db087960001b614183565b60008087815260200190815260200160002060010160008060008981526020019081526020016000206002018381548110612d9b577f4e487b7100000000000000000000000000000000000000000000000000000000600052603260045260246000fd5b9060005260206000200154815260200190815260200160002060000160009054906101000a900473ffffffffffffffffffffffffffffffffffffffff16858381518110612e11577f4e487b7100000000000000000000000000000000000000000000000000000000600052603260045260246000fd5b602002602001019073ffffffffffffffffffffffffffffffffffffffff16908173ffffffffffffffffffffffffffffffffffffffff1681525050612e777ff525bb4aa696b2bc29fa320f607ef0152235418e1c11636252a9cdb1e006af7660001b614183565b8180612e8290614cd2565b925050612eb7565b612eb67f7d2efc7236f229b45c9ba3121f70397aab7db34f9fe0dd3fe383d9dd74d3123b60001b614183565b5b8080612ec290614cd2565b915050612bb3565b5050612efe565b612efd7f10dbe6be8972623f97da63c82e7020ae8021a9d053d8fc33ec7dc8ed50d2dd9160001b614183565b5b5050919050565b6060612f337f3ac107da5310104f8fec1b976a61349783abb3f64eddca123031cdeaa503a50860001b614183565b612f5f7f8c0210d8c8c557988162fa0fcb32645f477e4fd18a00b1b63290a0f6f40e5a4f60001b614183565b612f8b7fe84c7d02cef2a7a050f9b23c4cf9918ab953fbad5ec783629c5be56ab20c77e860001b614183565b6000808381526020019081526020016000206002018054905067ffffffffffffffff811115612fe3577f4e487b7100000000000000000000000000000000000000000000000000000000600052604160045260246000fd5b60405190808252806020026020018201604052801561301c57816020015b613009614186565b8152602001906001900390816130015790505b50905061304b7fdd58f7b93a19e9450ade180fcceea87f10ad0ed0bddbfac9b05bda4b88d0c16e60001b614183565b6130777f89c4936121484632c17c2eb3ed766fd84c92fb35db9f0b0b935b4fae5bf3918960001b614183565b60005b60008084815260200190815260200160002060020180549050811015613231576130c67f3bad41794ed7e9bffd053f5a53e2ce08360e562d54b25c56308ce2c458046c9c60001b614183565b6130f27f8383744722925c20bc89774c8cda3346ead04a3de17d1fc7c5d10f733562bdc660001b614183565b60008084815260200190815260200160002060010160008060008681526020019081526020016000206002018381548110613156577f4e487b7100000000000000000000000000000000000000000000000000000000600052603260045260246000fd5b906000526020600020015481526020019081526020016000206040518060400160405290816000820160009054906101000a900473ffffffffffffffffffffffffffffffffffffffff1673ffffffffffffffffffffffffffffffffffffffff1673ffffffffffffffffffffffffffffffffffffffff168152602001600182015481525050828281518110613213577f4e487b7100000000000000000000000000000000000000000000000000000000600052603260045260246000fd5b6020026020010181905250808061322990614cd2565b91505061307a565b50919050565b60006132657f17da741f75a73c8229437ba40a752a7c9b7a9844c27697998a2cf67876bd4e4460001b614183565b6132917f708b060130cb53e117bc0b61109e4ce774e56644f8c46d3be7993b4b10405c7260001b614183565b6132bd7f0237277423f050ff67d8f5e90b324ff391216c753b605ca9a929f14632c2c19e60001b614183565b600073ffffffffffffffffffffffffffffffffffffffff16600080858152602001908152602001600020600101600084815260200190815260200160002060000160009054906101000a900473ffffffffffffffffffffffffffffffffffffffff1673ffffffffffffffffffffffffffffffffffffffff1614156133c7576133667ea21a7544b7e25c140c4f1e07126a91827c34d641103b06acf1aa55deb3c9d060001b614183565b6133927f528237a7031718f8f40714f253a1b4b45e821b47d24a7cad2ea3df146b084f3860001b614183565b6133be7fdfc592934724453da185fb8e8874a4cdcebd126166b3b0b9b7ee134f9a8c236660001b614183565b60009050613450565b6133f37f843db57c97b23e5b67e6a9bd7fc2df039ddb4ebc731af57ab9f1aba828d4bd8f60001b614183565b61341f7f57e362c88f6f3d5d8fa04de4ff0bbb8e48f39c87138e977fea858f6a5dabeb3160001b614183565b61344b7fccf5412143aadb95a9969fe2245d676305a6127c93b292ed2ee8a98e756ca16160001b614183565b600190505b92915050565b60006134847f7a799c7b3f886711faf056adec666ffb5230e6dec03ac102600b067ff865c71360001b614183565b6134b07f4a655f05ea67f712c40f54f7d25e1c7d9a6ef940b28911364dae57f6b20c100460001b614183565b6134dc7f4d0a33893ff73b2fb598f9b9719a41b08717822fc73af8bb89eca0802c9ff64760001b614183565b42905090565b61350e7fc13d17a52773a55b0a262f255961ab726fc4765cd48999fd086ed1c6ae6b1d9c60001b614183565b61353a7f62ee2b4474ee35288029fd6324f8bdfe07095f2c75211c6925803d93468aafd060001b614183565b6135667f0a0eb339a724b190ede9fb2cb043798d935048a1b658465cfda20b02156d506d60001b614183565b6135927f5c1a7b70ed91b180878c8539df91720060a4c19a8b963bc21cc44c3e2b20fff760001b614183565b61359b816138e3565b6135da576040517f08c379a00000000000000000000000000000000000000000000000000000000081526004016135d1906148fa565b60405180910390fd5b6136067fb66be82ce9d6e92e5e8336cba20de1612992eccda65e437b8b9ec785ac33bdfe60001b614183565b50565b60006136377feff66ad69a6827f065e88b766d771cda11e4a6ae66a6d10ce4267b6099e0afd560001b614183565b6136637fa2db813de5a2dd27f1b147cb91ae52707d847373d3377a3841801a26e264268f60001b614183565b61368f7fcd7e9fc9d4873d5f35175ca80f88eb24aed987b62e2c99fb1e1f5967016e8d3460001b614183565b613697613456565b600080848152602001908152602001600020600401546136b79190614c11565b9050919050565b60006136ec7f801dac2cca4145cf73c1e44bb5351dcb05f3039694df7b0bf620e8257fc3709460001b614183565b6137187fe4cf38610eb6b2aed51251219bf2001c9e9a4e7c986190f58a4a322a008caf7060001b614183565b6137447fcf73666c091f72e447272bc286b587cfa9ae1ab4ba6cfee4b4241ccab5b2a55560001b614183565b61376f7e9d2d3dadadc3251875ca729bd8a78dd31a1226bd81dbcdf8ce754e99cf481d60001b614183565b600560009054906101000a900473ffffffffffffffffffffffffffffffffffffffff1673ffffffffffffffffffffffffffffffffffffffff163373ffffffffffffffffffffffffffffffffffffffff16146137ff576040517f08c379a00000000000000000000000000000000000000000000000000000000081526004016137f69061485a565b60405180910390fd5b61382b7f50867972228163d166b9e8dc1ba50a84a764215a5bea6cc6f3dab88fd23b6b8f60001b614183565b6138577ffaec0b0457ef8a679827acfa17fc28274566de22b0c417ba87cababc2497246060001b614183565b6138837f9bb01ee17ee7da5e986b5d16d403520ad707c7624910531109d0898b5613086960001b614183565b6138af7f94f2ad3786bbb52649f9b4c6dd368f5ebc23b4fda5669442ee4b7fed00c7281560001b614183565b6138db7f3f48cb40fcc10a8dd1e390da8596e5d3217f7bb3af8328dbad55b6ca6710ae9060001b614183565b600454905090565b60006139117f425d5ebc82264d2e21bff253bd704112e9732cbd2e9b3be38f6f41fef0c9412a60001b614183565b61393d7fc0d1c5bdd9cc115441987c27e1639d3a20c60502de43ca9b0aa82f4dee5362e460001b614183565b6139697f6eb75fd416424ffff6cbb0a989922a2a8194563fd277370f7b4d9d9d8ac07c6f60001b614183565b613971613456565b600080848152602001908152602001600020600401541115613a1a576139b97f0fedfb28ce4cb0d285d12b0c71b9d88070bfc98776a7f16a88bb3d711c44231760001b614183565b6139e57fa663b7bfabd1e50e94bc9a6365b3dfb360fbd57fa44d1d78427a3a61610badfc60001b614183565b613a117f60eb676291c55aa9960e50cb0ca41dde483e428220c8e1c1b3ebae3eeadf9eed60001b614183565b6000905061417e565b613a467fb1ac4059c3d05477bcfcb12345c57baef6b69de8093e3d62986d1904c072878060001b614183565b613a727f8cc43d6fe3170ffd8cfb8897f2b5e4e9616af110cac1aaf5ae663db93fd7521460001b614183565b613a9e7f3711347d3490e072f6bd421a8f6b7c9fa56cbed3a171eb5553f4697081ed3a1f60001b614183565b60008083815260200190815260200160002060050160009054906101000a900460ff16613b5257613af17f44f26dd25d64f91ce172fdc0c5fc2211c571dabaa78c9ee974c9dcebf4907cfb60001b614183565b613b1d7fd1857040418d0ad940b83913eb4c3cfb9a235d7133b519ae3193cc1f522141ab60001b614183565b613b497f370acbdd93d154a822535e5c464d9b68db5cba6638512607b3633b4afc9d277760001b614183565b6000905061417e565b613b7e7faa4b588216d34816839518da271fdceea2f91908808af93b2e274c5bc68565f360001b614183565b613baa7f09108851ca75877a789006811275150088dbee202007efbf4363cd0f3c4c064d60001b614183565b613bd67ff1b99c7a218efc8a105e027087089b26437ef839a92bc4b67da0e1a40113e97360001b614183565b600080600084815260200190815260200160002060050160006101000a81548160ff021916908315150217905550613c307fa9f94e264fb010a166b6cfd2ebec785456031bd0ee83c692d7ec012f8c1af9cb60001b614183565b613c5c7f1cff356a02608062365788297f1c9b4811f0cd430a2e0b546a795a4af6a7a8dd60001b614183565b6000613c6783612514565b9050613c957f1fe7c50d504cb8eefdb3d74f06a7781b952700ee2d7e2dc66823f40b6127c72460001b614183565b613cc17f79978f829b93b51016f410ce3916614a4560aad9dcb6050626729078333df22e60001b614183565b600081511415613d5957613cf77f8abbdd27a0894e0699e5f75cb1729d7fed496438bca17e31f2dff7ffbf96c17960001b614183565b613d237f8deb733efe0c0d40f4468c80ef7b291a82362ce0998914930d55a95a3794913360001b614183565b613d4f7fa1b90bc6aab1c3096897befaabe3f9086392005d26b8dfa2730cc3b977ba51bb60001b614183565b600191505061417e565b613d857f81cc162194aa77c2a464c6c216f1884aabff8133e7c6baa064bd767ee681420460001b614183565b613db17f8105cca5901932826b857436a16a63b4144cb34783dc383930fca7d4f57ae48660001b614183565b613ddd7ff990281323a00ce0ceaf09b20f62857f9244f5b9eb218d6dc6a39a89abe72fca60001b614183565b600081516064613ded9190614bb7565b6003546064613dfc9190614c11565b60025460008088815260200190815260200160002060030154613e1f9190614bb7565b613e299190614bb7565b613e339190614b86565b9050613e617fd04ec62d7b3d2dcb44c011f5b289881073058039e67a643de4130c5dbc72193c60001b614183565b613e8d7f094b67186af581a8c5c35fae0e449ecd5d47ad32179d13ddda1364ec6270c1b460001b614183565b60005b825181101561407257613ec57f836baf79d905cad5e2230d583369e383fbd0f7f3b4fde67aa4805297afdb6df960001b614183565b613ef17f1893f5aa8f03842f92485fc3bfe746959df4785f998e010e296bb63c5f2c65d760001b614183565b828181518110613f2a577f4e487b7100000000000000000000000000000000000000000000000000000000600052603260045260246000fd5b602002602001015173ffffffffffffffffffffffffffffffffffffffff16857f1c2ae1f7e99dbbbfe25aac964f3889ea68259d88b74709f53037a6fb930bb02a84604051613f789190614a15565b60405180910390a3613fac7f1d6b2b9e6bd212199e3aa8841cdde9ceb8553d8319a1d1f43598e6b428dfd27f60001b614183565b613fd87f95d7ae6e872f2197954a501046a9ffecea1b1b07995a2d40da4fa75230ae2e6560001b614183565b828181518110614011577f4e487b7100000000000000000000000000000000000000000000000000000000600052603260045260246000fd5b602002602001015173ffffffffffffffffffffffffffffffffffffffff166108fc839081150290604051600060405180830381858888f1935050505015801561405e573d6000803e3d6000fd5b50808061406a90614cd2565b915050613e90565b5061409f7f099b78f03a0e62799fea02f9b820fbf004fe97e0f1083f288aa210b9e9fb4b6160001b614183565b6140cb7f7adee266636832ce72d4747a14f04f6dbf87f01130b43791b3d39a3fec1d730160001b614183565b6064600354600254600080888152602001908152602001600020600301546140f39190614bb7565b6140fd9190614bb7565b6141079190614b86565b600460008282546141189190614b30565b9250508190555061414b7ffb8f9509c560a223e1744080a518bb06517d3ed5da056a1f6315ed365656adb460001b614183565b6141777f5151a0cde136fb5dabfaf8c264f5153ed1b9487209684cd235ed6ce0e629505b60001b614183565b6001925050505b919050565b50565b6040518060400160405280600073ffffffffffffffffffffffffffffffffffffffff168152602001600081525090565b60006141c96141c484614a55565b614a30565b905080838252602082019050828560208602820111156141e857600080fd5b60005b8581101561421857816141fe888261428e565b8452602084019350602083019250506001810190506141eb565b5050509392505050565b600061423561423084614a81565b614a30565b9050808382526020820190508285602086028201111561425457600080fd5b60005b85811015614284578161426a88826142f7565b845260208401935060208301925050600181019050614257565b5050509392505050565b60008135905061429d81615069565b92915050565b600082601f8301126142b457600080fd5b81356142c48482602086016141b6565b91505092915050565b600082601f8301126142de57600080fd5b81356142ee848260208601614222565b91505092915050565b60008135905061430681615080565b92915050565b60008135905061431b81615097565b92915050565b60006020828403121561433357600080fd5b60006143418482850161430c565b91505092915050565b6000806040838503121561435d57600080fd5b600061436b8582860161430c565b925050602061437c8582860161428e565b9150509250929050565b60008060006060848603121561439b57600080fd5b60006143a98682870161430c565b935050602084013567ffffffffffffffff8111156143c657600080fd5b6143d2868287016142a3565b925050604084013567ffffffffffffffff8111156143ef57600080fd5b6143fb868287016142cd565b9150509250925092565b6000806040838503121561441857600080fd5b60006144268582860161430c565b9250506020614437858286016142f7565b9150509250929050565b600061444d8383614471565b60208301905092915050565b60006144658383614744565b60408301905092915050565b61447a81614c45565b82525050565b600061448b82614acd565b6144958185614afd565b93506144a083614aad565b8060005b838110156144d15781516144b88882614441565b97506144c383614ae3565b9250506001810190506144a4565b5085935050505092915050565b60006144e982614ad8565b6144f38185614b0e565b93506144fe83614abd565b8060005b8381101561452f5781516145168882614459565b975061452183614af0565b925050600181019050614502565b5085935050505092915050565b61454581614c57565b82525050565b61455481614c6d565b82525050565b6000614567600f83614b1f565b915061457282614db9565b602082019050919050565b600061458a601583614b1f565b915061459582614de2565b602082019050919050565b60006145ad601283614b1f565b91506145b882614e0b565b602082019050919050565b60006145d0601b83614b1f565b91506145db82614e34565b602082019050919050565b60006145f3601783614b1f565b91506145fe82614e5d565b602082019050919050565b6000614616601983614b1f565b915061462182614e86565b602082019050919050565b6000614639601783614b1f565b915061464482614eaf565b602082019050919050565b600061465c601d83614b1f565b915061466782614ed8565b602082019050919050565b600061467f601f83614b1f565b915061468a82614f01565b602082019050919050565b60006146a2602d83614b1f565b91506146ad82614f2a565b604082019050919050565b60006146c5603083614b1f565b91506146d082614f79565b604082019050919050565b60006146e8601283614b1f565b91506146f382614fc8565b602082019050919050565b600061470b602283614b1f565b915061471682614ff1565b604082019050919050565b600061472e601483614b1f565b915061473982615040565b602082019050919050565b60408201600082015161475a6000850182614471565b50602082015161476d60208501826147a2565b50505050565b6040820160008201516147896000850182614471565b50602082015161479c60208501826147a2565b50505050565b6147ab81614c97565b82525050565b6147ba81614c97565b82525050565b600060208201905081810360008301526147da8184614480565b905092915050565b600060208201905081810360008301526147fc81846144de565b905092915050565b6000602082019050614819600083018461453c565b92915050565b6000602082019050614834600083018461454b565b92915050565b600060208201905081810360008301526148538161455a565b9050919050565b600060208201905081810360008301526148738161457d565b9050919050565b60006020820190508181036000830152614893816145a0565b9050919050565b600060208201905081810360008301526148b3816145c3565b9050919050565b600060208201905081810360008301526148d3816145e6565b9050919050565b600060208201905081810360008301526148f381614609565b9050919050565b600060208201905081810360008301526149138161462c565b9050919050565b600060208201905081810360008301526149338161464f565b9050919050565b6000602082019050818103600083015261495381614672565b9050919050565b6000602082019050818103600083015261497381614695565b9050919050565b60006020820190508181036000830152614993816146b8565b9050919050565b600060208201905081810360008301526149b3816146db565b9050919050565b600060208201905081810360008301526149d3816146fe565b9050919050565b600060208201905081810360008301526149f381614721565b9050919050565b6000604082019050614a0f6000830184614773565b92915050565b6000602082019050614a2a60008301846147b1565b92915050565b6000614a3a614a4b565b9050614a468282614ca1565b919050565b6000604051905090565b600067ffffffffffffffff821115614a7057614a6f614d79565b5b602082029050602081019050919050565b600067ffffffffffffffff821115614a9c57614a9b614d79565b5b602082029050602081019050919050565b6000819050602082019050919050565b6000819050602082019050919050565b600081519050919050565b600081519050919050565b6000602082019050919050565b6000602082019050919050565b600082825260208201905092915050565b600082825260208201905092915050565b600082825260208201905092915050565b6000614b3b82614c97565b9150614b4683614c97565b9250827fffffffffffffffffffffffffffffffffffffffffffffffffffffffffffffffff03821115614b7b57614b7a614d1b565b5b828201905092915050565b6000614b9182614c97565b9150614b9c83614c97565b925082614bac57614bab614d4a565b5b828204905092915050565b6000614bc282614c97565b9150614bcd83614c97565b9250817fffffffffffffffffffffffffffffffffffffffffffffffffffffffffffffffff0483118215151615614c0657614c05614d1b565b5b828202905092915050565b6000614c1c82614c97565b9150614c2783614c97565b925082821015614c3a57614c39614d1b565b5b828203905092915050565b6000614c5082614c77565b9050919050565b60008115159050919050565b6000819050919050565b6000819050919050565b600073ffffffffffffffffffffffffffffffffffffffff82169050919050565b6000819050919050565b614caa82614da8565b810181811067ffffffffffffffff82111715614cc957614cc8614d79565b5b80604052505050565b6000614cdd82614c97565b91507fffffffffffffffffffffffffffffffffffffffffffffffffffffffffffffffff821415614d1057614d0f614d1b565b5b600182019050919050565b7f4e487b7100000000000000000000000000000000000000000000000000000000600052601160045260246000fd5b7f4e487b7100000000000000000000000000000000000000000000000000000000600052601260045260246000fd5b7f4e487b7100000000000000000000000000000000000000000000000000000000600052604160045260246000fd5b6000601f19601f8301169050919050565b7f4e6f207375636820766f74696e67210000000000000000000000000000000000600082015250565b7f596f7520617265206e6f7420616e206f776e6572210000000000000000000000600082015250565b7f5468697320766f7465206973206f766572210000000000000000000000000000600082015250565b7f596f752063616e7420766f746520666f7220796f757273656c66210000000000600082015250565b7f596f75206861766520616c726561647920766f74656421000000000000000000600082015250565b7f43616e74207769746864726177206e756c6c2076616c75652100000000000000600082015250565b7f43616e742066696e69736820766f74696e672079657421000000000000000000600082015250565b7f56616c7565206973206f7574206f6620667265652062616c616e636521000000600082015250565b7f417272617973206d757374206265207468652073616d65206c656e6774682100600082015250565b7f5468652076616c756520646f6573206e6f74206d61746368207468652070726960008201527f7365206f6620766f74696e672100000000000000000000000000000000000000602082015250565b7f456e7465722074686520696e646578206f662074686520766f74652120496e6460008201527f65782063616e74206265206e756c6c2100000000000000000000000000000000602082015250565b7f4e6f20737563682063616e646964617465210000000000000000000000000000600082015250565b7f4d7573742068617665206174206c656173742074776f2063616e64696461746560008201527f7321000000000000000000000000000000000000000000000000000000000000602082015250565b7f5468697320696e6465782069732074616b656e21000000000000000000000000600082015250565b61507281614c45565b811461507d57600080fd5b50565b61508981614c63565b811461509457600080fd5b50565b6150a081614c97565b81146150ab57600080fd5b5056fea2646970667358221220d0325409ae933fa4cd933684c8689b0ecc5486e25d277fb317567bd2f005650164736f6c63430008040033",
          "opcodes": "PUSH1 0x80 PUSH1 0x40 MSTORE PUSH8 0x16345785D8A0000 PUSH1 0x2 SSTORE PUSH1 0xA PUSH1 0x3 SSTORE CALLVALUE DUP1 ISZERO PUSH3 0x22 JUMPI PUSH1 0x0 DUP1 REVERT JUMPDEST POP PUSH1 0x40 MLOAD PUSH3 0x52F9 CODESIZE SUB DUP1 PUSH3 0x52F9 DUP4 CODECOPY DUP2 DUP2 ADD PUSH1 0x40 MSTORE DUP2 ADD SWAP1 PUSH3 0x48 SWAP2 SWAP1 PUSH3 0x1B5 JUMP JUMPDEST PUSH3 0x7C PUSH32 0xA46103760D03E783F1B2CD58E71E5F9B6C30C5E2F0937846BAA0F5977A5D528 PUSH1 0x0 SHL PUSH3 0x19B PUSH1 0x20 SHL PUSH1 0x20 SHR JUMP JUMPDEST PUSH3 0xB0 PUSH32 0x4C857B2251EC4129F2276937A266A53F05ECF337E62D360543E21180680FAB92 PUSH1 0x0 SHL PUSH3 0x19B PUSH1 0x20 SHL PUSH1 0x20 SHR JUMP JUMPDEST PUSH3 0xE4 PUSH32 0x14E52FDCEC9CBAB7137B05AB826DE9BB95650C0B81FE595061B84E97FB855FF4 PUSH1 0x0 SHL PUSH3 0x19B PUSH1 0x20 SHL PUSH1 0x20 SHR JUMP JUMPDEST CALLER PUSH1 0x5 PUSH1 0x0 PUSH2 0x100 EXP DUP2 SLOAD DUP2 PUSH20 0xFFFFFFFFFFFFFFFFFFFFFFFFFFFFFFFFFFFFFFFF MUL NOT AND SWAP1 DUP4 PUSH20 0xFFFFFFFFFFFFFFFFFFFFFFFFFFFFFFFFFFFFFFFF AND MUL OR SWAP1 SSTORE POP PUSH3 0x159 PUSH32 0x7B5BF6B761ABA29F8966C4326733C0BA9A6BC2F9070DA3E28282A83B28F5A581 PUSH1 0x0 SHL PUSH3 0x19B PUSH1 0x20 SHL PUSH1 0x20 SHR JUMP JUMPDEST PUSH3 0x18D PUSH32 0x1D8963CCFF0A385E717EF0AD2D5965FF70EAB02CD3A28B7B3E9809F2CF73F65D PUSH1 0x0 SHL PUSH3 0x19B PUSH1 0x20 SHL PUSH1 0x20 SHR JUMP JUMPDEST DUP1 PUSH1 0x1 DUP2 SWAP1 SSTORE POP POP PUSH3 0x205 JUMP JUMPDEST POP JUMP JUMPDEST PUSH1 0x0 DUP2 MLOAD SWAP1 POP PUSH3 0x1AF DUP2 PUSH3 0x1EB JUMP JUMPDEST SWAP3 SWAP2 POP POP JUMP JUMPDEST PUSH1 0x0 PUSH1 0x20 DUP3 DUP5 SUB SLT ISZERO PUSH3 0x1C8 JUMPI PUSH1 0x0 DUP1 REVERT JUMPDEST PUSH1 0x0 PUSH3 0x1D8 DUP5 DUP3 DUP6 ADD PUSH3 0x19E JUMP JUMPDEST SWAP2 POP POP SWAP3 SWAP2 POP POP JUMP JUMPDEST PUSH1 0x0 DUP2 SWAP1 POP SWAP2 SWAP1 POP JUMP JUMPDEST PUSH3 0x1F6 DUP2 PUSH3 0x1E1 JUMP JUMPDEST DUP2 EQ PUSH3 0x202 JUMPI PUSH1 0x0 DUP1 REVERT JUMPDEST POP JUMP JUMPDEST PUSH2 0x50E4 DUP1 PUSH3 0x215 PUSH1 0x0 CODECOPY PUSH1 0x0 RETURN INVALID PUSH1 0x80 PUSH1 0x40 MSTORE PUSH1 0x4 CALLDATASIZE LT PUSH2 0x11F JUMPI PUSH1 0x0 CALLDATALOAD PUSH1 0xE0 SHR DUP1 PUSH4 0x6B1426A4 GT PUSH2 0xA0 JUMPI DUP1 PUSH4 0xD18E81B3 GT PUSH2 0x64 JUMPI DUP1 PUSH4 0xD18E81B3 EQ PUSH2 0x400 JUMPI DUP1 PUSH4 0xE13646F0 EQ PUSH2 0x42B JUMPI DUP1 PUSH4 0xE8C58763 EQ PUSH2 0x454 JUMPI DUP1 PUSH4 0xE93C4F15 EQ PUSH2 0x491 JUMPI DUP1 PUSH4 0xFF110B06 EQ PUSH2 0x4BC JUMPI PUSH2 0x11F JUMP JUMPDEST DUP1 PUSH4 0x6B1426A4 EQ PUSH2 0x2E1 JUMPI DUP1 PUSH4 0x860C851A EQ PUSH2 0x31E JUMPI DUP1 PUSH4 0xA2FB1175 EQ PUSH2 0x349 JUMPI DUP1 PUSH4 0xBE58B30E EQ PUSH2 0x386 JUMPI DUP1 PUSH4 0xCDFCC591 EQ PUSH2 0x3C3 JUMPI PUSH2 0x11F JUMP JUMPDEST DUP1 PUSH4 0x2E1A7D4D GT PUSH2 0xE7 JUMPI DUP1 PUSH4 0x2E1A7D4D EQ PUSH2 0x21D JUMPI DUP1 PUSH4 0x3A4B4532 EQ PUSH2 0x246 JUMPI DUP1 PUSH4 0x56364499 EQ PUSH2 0x271 JUMPI DUP1 PUSH4 0x5977E867 EQ PUSH2 0x29C JUMPI DUP1 PUSH4 0x68BB8BB6 EQ PUSH2 0x2C5 JUMPI PUSH2 0x11F JUMP JUMPDEST DUP1 PUSH4 0x12065FE0 EQ PUSH2 0x124 JUMPI DUP1 PUSH4 0x1C64B670 EQ PUSH2 0x14F JUMPI DUP1 PUSH4 0x26961777 EQ PUSH2 0x18C JUMPI DUP1 PUSH4 0x2B68B9C6 EQ PUSH2 0x1C9 JUMPI DUP1 PUSH4 0x2C7B1BD7 EQ PUSH2 0x1E0 JUMPI JUMPDEST PUSH1 0x0 DUP1 REVERT JUMPDEST CALLVALUE DUP1 ISZERO PUSH2 0x130 JUMPI PUSH1 0x0 DUP1 REVERT JUMPDEST POP PUSH2 0x139 PUSH2 0x4F9 JUMP JUMPDEST PUSH1 0x40 MLOAD PUSH2 0x146 SWAP2 SWAP1 PUSH2 0x4A15 JUMP JUMPDEST PUSH1 0x40 MLOAD DUP1 SWAP2 SUB SWAP1 RETURN JUMPDEST CALLVALUE DUP1 ISZERO PUSH2 0x15B JUMPI PUSH1 0x0 DUP1 REVERT JUMPDEST POP PUSH2 0x176 PUSH1 0x4 DUP1 CALLDATASIZE SUB DUP2 ADD SWAP1 PUSH2 0x171 SWAP2 SWAP1 PUSH2 0x4321 JUMP JUMPDEST PUSH2 0x585 JUMP JUMPDEST PUSH1 0x40 MLOAD PUSH2 0x183 SWAP2 SWAP1 PUSH2 0x4804 JUMP JUMPDEST PUSH1 0x40 MLOAD DUP1 SWAP2 SUB SWAP1 RETURN JUMPDEST CALLVALUE DUP1 ISZERO PUSH2 0x198 JUMPI PUSH1 0x0 DUP1 REVERT JUMPDEST POP PUSH2 0x1B3 PUSH1 0x4 DUP1 CALLDATASIZE SUB DUP2 ADD SWAP1 PUSH2 0x1AE SWAP2 SWAP1 PUSH2 0x434A JUMP JUMPDEST PUSH2 0x744 JUMP JUMPDEST PUSH1 0x40 MLOAD PUSH2 0x1C0 SWAP2 SWAP1 PUSH2 0x4804 JUMP JUMPDEST PUSH1 0x40 MLOAD DUP1 SWAP2 SUB SWAP1 RETURN JUMPDEST CALLVALUE DUP1 ISZERO PUSH2 0x1D5 JUMPI PUSH1 0x0 DUP1 REVERT JUMPDEST POP PUSH2 0x1DE PUSH2 0x943 JUMP JUMPDEST STOP JUMPDEST CALLVALUE DUP1 ISZERO PUSH2 0x1EC JUMPI PUSH1 0x0 DUP1 REVERT JUMPDEST POP PUSH2 0x207 PUSH1 0x4 DUP1 CALLDATASIZE SUB DUP2 ADD SWAP1 PUSH2 0x202 SWAP2 SWAP1 PUSH2 0x4405 JUMP JUMPDEST PUSH2 0xB99 JUMP JUMPDEST PUSH1 0x40 MLOAD PUSH2 0x214 SWAP2 SWAP1 PUSH2 0x49FA JUMP JUMPDEST PUSH1 0x40 MLOAD DUP1 SWAP2 SUB SWAP1 RETURN JUMPDEST CALLVALUE DUP1 ISZERO PUSH2 0x229 JUMPI PUSH1 0x0 DUP1 REVERT JUMPDEST POP PUSH2 0x244 PUSH1 0x4 DUP1 CALLDATASIZE SUB DUP2 ADD SWAP1 PUSH2 0x23F SWAP2 SWAP1 PUSH2 0x4321 JUMP JUMPDEST PUSH2 0xCBE JUMP JUMPDEST STOP JUMPDEST CALLVALUE DUP1 ISZERO PUSH2 0x252 JUMPI PUSH1 0x0 DUP1 REVERT JUMPDEST POP PUSH2 0x25B PUSH2 0x11F6 JUMP JUMPDEST PUSH1 0x40 MLOAD PUSH2 0x268 SWAP2 SWAP1 PUSH2 0x4A15 JUMP JUMPDEST PUSH1 0x40 MLOAD DUP1 SWAP2 SUB SWAP1 RETURN JUMPDEST CALLVALUE DUP1 ISZERO PUSH2 0x27D JUMPI PUSH1 0x0 DUP1 REVERT JUMPDEST POP PUSH2 0x286 PUSH2 0x11FC JUMP JUMPDEST PUSH1 0x40 MLOAD PUSH2 0x293 SWAP2 SWAP1 PUSH2 0x4A15 JUMP JUMPDEST PUSH1 0x40 MLOAD DUP1 SWAP2 SUB SWAP1 RETURN JUMPDEST CALLVALUE DUP1 ISZERO PUSH2 0x2A8 JUMPI PUSH1 0x0 DUP1 REVERT JUMPDEST POP PUSH2 0x2C3 PUSH1 0x4 DUP1 CALLDATASIZE SUB DUP2 ADD SWAP1 PUSH2 0x2BE SWAP2 SWAP1 PUSH2 0x4386 JUMP JUMPDEST PUSH2 0x1202 JUMP JUMPDEST STOP JUMPDEST PUSH2 0x2DF PUSH1 0x4 DUP1 CALLDATASIZE SUB DUP2 ADD SWAP1 PUSH2 0x2DA SWAP2 SWAP1 PUSH2 0x4405 JUMP JUMPDEST PUSH2 0x1C3B JUMP JUMPDEST STOP JUMPDEST CALLVALUE DUP1 ISZERO PUSH2 0x2ED JUMPI PUSH1 0x0 DUP1 REVERT JUMPDEST POP PUSH2 0x308 PUSH1 0x4 DUP1 CALLDATASIZE SUB DUP2 ADD SWAP1 PUSH2 0x303 SWAP2 SWAP1 PUSH2 0x4321 JUMP JUMPDEST PUSH2 0x2478 JUMP JUMPDEST PUSH1 0x40 MLOAD PUSH2 0x315 SWAP2 SWAP1 PUSH2 0x47C0 JUMP JUMPDEST PUSH1 0x40 MLOAD DUP1 SWAP2 SUB SWAP1 RETURN JUMPDEST CALLVALUE DUP1 ISZERO PUSH2 0x32A JUMPI PUSH1 0x0 DUP1 REVERT JUMPDEST POP PUSH2 0x333 PUSH2 0x250E JUMP JUMPDEST PUSH1 0x40 MLOAD PUSH2 0x340 SWAP2 SWAP1 PUSH2 0x4A15 JUMP JUMPDEST PUSH1 0x40 MLOAD DUP1 SWAP2 SUB SWAP1 RETURN JUMPDEST CALLVALUE DUP1 ISZERO PUSH2 0x355 JUMPI PUSH1 0x0 DUP1 REVERT JUMPDEST POP PUSH2 0x370 PUSH1 0x4 DUP1 CALLDATASIZE SUB DUP2 ADD SWAP1 PUSH2 0x36B SWAP2 SWAP1 PUSH2 0x4321 JUMP JUMPDEST PUSH2 0x2514 JUMP JUMPDEST PUSH1 0x40 MLOAD PUSH2 0x37D SWAP2 SWAP1 PUSH2 0x47C0 JUMP JUMPDEST PUSH1 0x40 MLOAD DUP1 SWAP2 SUB SWAP1 RETURN JUMPDEST CALLVALUE DUP1 ISZERO PUSH2 0x392 JUMPI PUSH1 0x0 DUP1 REVERT JUMPDEST POP PUSH2 0x3AD PUSH1 0x4 DUP1 CALLDATASIZE SUB DUP2 ADD SWAP1 PUSH2 0x3A8 SWAP2 SWAP1 PUSH2 0x4321 JUMP JUMPDEST PUSH2 0x2F05 JUMP JUMPDEST PUSH1 0x40 MLOAD PUSH2 0x3BA SWAP2 SWAP1 PUSH2 0x47E2 JUMP JUMPDEST PUSH1 0x40 MLOAD DUP1 SWAP2 SUB SWAP1 RETURN JUMPDEST CALLVALUE DUP1 ISZERO PUSH2 0x3CF JUMPI PUSH1 0x0 DUP1 REVERT JUMPDEST POP PUSH2 0x3EA PUSH1 0x4 DUP1 CALLDATASIZE SUB DUP2 ADD SWAP1 PUSH2 0x3E5 SWAP2 SWAP1 PUSH2 0x4405 JUMP JUMPDEST PUSH2 0x3237 JUMP JUMPDEST PUSH1 0x40 MLOAD PUSH2 0x3F7 SWAP2 SWAP1 PUSH2 0x4804 JUMP JUMPDEST PUSH1 0x40 MLOAD DUP1 SWAP2 SUB SWAP1 RETURN JUMPDEST CALLVALUE DUP1 ISZERO PUSH2 0x40C JUMPI PUSH1 0x0 DUP1 REVERT JUMPDEST POP PUSH2 0x415 PUSH2 0x3456 JUMP JUMPDEST PUSH1 0x40 MLOAD PUSH2 0x422 SWAP2 SWAP1 PUSH2 0x4A15 JUMP JUMPDEST PUSH1 0x40 MLOAD DUP1 SWAP2 SUB SWAP1 RETURN JUMPDEST CALLVALUE DUP1 ISZERO PUSH2 0x437 JUMPI PUSH1 0x0 DUP1 REVERT JUMPDEST POP PUSH2 0x452 PUSH1 0x4 DUP1 CALLDATASIZE SUB DUP2 ADD SWAP1 PUSH2 0x44D SWAP2 SWAP1 PUSH2 0x4321 JUMP JUMPDEST PUSH2 0x34E2 JUMP JUMPDEST STOP JUMPDEST CALLVALUE DUP1 ISZERO PUSH2 0x460 JUMPI PUSH1 0x0 DUP1 REVERT JUMPDEST POP PUSH2 0x47B PUSH1 0x4 DUP1 CALLDATASIZE SUB DUP2 ADD SWAP1 PUSH2 0x476 SWAP2 SWAP1 PUSH2 0x4321 JUMP JUMPDEST PUSH2 0x3609 JUMP JUMPDEST PUSH1 0x40 MLOAD PUSH2 0x488 SWAP2 SWAP1 PUSH2 0x481F JUMP JUMPDEST PUSH1 0x40 MLOAD DUP1 SWAP2 SUB SWAP1 RETURN JUMPDEST CALLVALUE DUP1 ISZERO PUSH2 0x49D JUMPI PUSH1 0x0 DUP1 REVERT JUMPDEST POP PUSH2 0x4A6 PUSH2 0x36BE JUMP JUMPDEST PUSH1 0x40 MLOAD PUSH2 0x4B3 SWAP2 SWAP1 PUSH2 0x4A15 JUMP JUMPDEST PUSH1 0x40 MLOAD DUP1 SWAP2 SUB SWAP1 RETURN JUMPDEST CALLVALUE DUP1 ISZERO PUSH2 0x4C8 JUMPI PUSH1 0x0 DUP1 REVERT JUMPDEST POP PUSH2 0x4E3 PUSH1 0x4 DUP1 CALLDATASIZE SUB DUP2 ADD SWAP1 PUSH2 0x4DE SWAP2 SWAP1 PUSH2 0x4321 JUMP JUMPDEST PUSH2 0x38E3 JUMP JUMPDEST PUSH1 0x40 MLOAD PUSH2 0x4F0 SWAP2 SWAP1 PUSH2 0x4804 JUMP JUMPDEST PUSH1 0x40 MLOAD DUP1 SWAP2 SUB SWAP1 RETURN JUMPDEST PUSH1 0x0 PUSH2 0x527 PUSH32 0xDF5C5F99307595D02DBB82F92E84D8FD0CE42620A3F9708457CDD9F44149FC87 PUSH1 0x0 SHL PUSH2 0x4183 JUMP JUMPDEST PUSH2 0x553 PUSH32 0x7BE92E717284A065D304A4ECBB1DD4EABB487E779C82975C73D74C91F393723B PUSH1 0x0 SHL PUSH2 0x4183 JUMP JUMPDEST PUSH2 0x57F PUSH32 0x5EE042667A8D2E01ABAF3B0356859BA109975E099CE681AA99BBE4A182A7C87B PUSH1 0x0 SHL PUSH2 0x4183 JUMP JUMPDEST SELFBALANCE SWAP1 POP SWAP1 JUMP JUMPDEST PUSH1 0x0 PUSH2 0x5B3 PUSH32 0x303E8C43E2C077353CFB22963F51707A6A20465D2638D145F14477F145FBF5BA PUSH1 0x0 SHL PUSH2 0x4183 JUMP JUMPDEST PUSH2 0x5DF PUSH32 0xE4E10B44CA31460E6CDB9930FAEA31B5E3F78E1AD37891D79BE744AC2A969B73 PUSH1 0x0 SHL PUSH2 0x4183 JUMP JUMPDEST PUSH2 0x60B PUSH32 0xA9C15DB7037D4B6919CCE4D5F85C6F9A2ADFE273A26CA2EC3CB61ABA06C3EC3A PUSH1 0x0 SHL PUSH2 0x4183 JUMP JUMPDEST PUSH1 0x0 DUP1 PUSH1 0x0 DUP5 DUP2 MSTORE PUSH1 0x20 ADD SWAP1 DUP2 MSTORE PUSH1 0x20 ADD PUSH1 0x0 KECCAK256 PUSH1 0x4 ADD SLOAD EQ ISZERO PUSH2 0x6B6 JUMPI PUSH2 0x655 PUSH32 0x4A51B869862586A7FD26F5C33EE178513BBC7480ABB4E084E981D443E9585FBE PUSH1 0x0 SHL PUSH2 0x4183 JUMP JUMPDEST PUSH2 0x681 PUSH32 0xEDB2CA1263C0741DF9FEBC9F2AE8A457D8350F2EC895688EF04754480E2AD82F PUSH1 0x0 SHL PUSH2 0x4183 JUMP JUMPDEST PUSH2 0x6AD PUSH32 0xD32E4DB8FDBE52A6D260704C39BCFEBE034AC4A505B21BEBC3E5D478EFC4865B PUSH1 0x0 SHL PUSH2 0x4183 JUMP JUMPDEST PUSH1 0x0 SWAP1 POP PUSH2 0x73F JUMP JUMPDEST PUSH2 0x6E2 PUSH32 0xFBFDF3CE9106C2E6C4945E8E3A9F643F935D1BD37B0938D8D73A3A8F8E166C1F PUSH1 0x0 SHL PUSH2 0x4183 JUMP JUMPDEST PUSH2 0x70E PUSH32 0x9AC151028F92B31E97F77391BAE10F5815CF905094B98C650081AE599128A1EE PUSH1 0x0 SHL PUSH2 0x4183 JUMP JUMPDEST PUSH2 0x73A PUSH32 0x212638C561DD74F9FC9E8E5347E7031DC51CD797F3252C1DBF1C4343A055279B PUSH1 0x0 SHL PUSH2 0x4183 JUMP JUMPDEST PUSH1 0x1 SWAP1 POP JUMPDEST SWAP2 SWAP1 POP JUMP JUMPDEST PUSH1 0x0 PUSH2 0x772 PUSH32 0x78710EC47766E41645931CB8C36A205483CE17E206DF03DEA2F3FFA404D8AAAD PUSH1 0x0 SHL PUSH2 0x4183 JUMP JUMPDEST PUSH2 0x79E PUSH32 0x1843891F0B62F7F77EEF9E96CB88BC3FEE793EA271AA06CE3BB579C3008B0690 PUSH1 0x0 SHL PUSH2 0x4183 JUMP JUMPDEST PUSH2 0x7CA PUSH32 0xE676098E046F4575E48555BFE26AC4B57F771908A421149E29C04CE926735223 PUSH1 0x0 SHL PUSH2 0x4183 JUMP JUMPDEST PUSH1 0x0 DUP1 SHL PUSH1 0x0 DUP1 DUP6 DUP2 MSTORE PUSH1 0x20 ADD SWAP1 DUP2 MSTORE PUSH1 0x20 ADD PUSH1 0x0 KECCAK256 PUSH1 0x0 ADD PUSH1 0x0 DUP5 PUSH20 0xFFFFFFFFFFFFFFFFFFFFFFFFFFFFFFFFFFFFFFFF AND PUSH20 0xFFFFFFFFFFFFFFFFFFFFFFFFFFFFFFFFFFFFFFFF AND DUP2 MSTORE PUSH1 0x20 ADD SWAP1 DUP2 MSTORE PUSH1 0x20 ADD PUSH1 0x0 KECCAK256 SLOAD EQ ISZERO PUSH2 0x8B4 JUMPI PUSH2 0x853 PUSH32 0x8F7FF236F3833984BDDF0244F083CFFFB7BAA4FA2A3D976E5577980206425D85 PUSH1 0x0 SHL PUSH2 0x4183 JUMP JUMPDEST PUSH2 0x87F PUSH32 0xAB1F658B733AB8400249DDA1AC1992518D2D0F9B1E156A7F93BD58AF3302F610 PUSH1 0x0 SHL PUSH2 0x4183 JUMP JUMPDEST PUSH2 0x8AB PUSH32 0x46A4AADA76813741A1CA1EA8FFFCC72DFE47F58EC7F9A90F3A17EB0BCD86BFE8 PUSH1 0x0 SHL PUSH2 0x4183 JUMP JUMPDEST PUSH1 0x0 SWAP1 POP PUSH2 0x93D JUMP JUMPDEST PUSH2 0x8E0 PUSH32 0x6936ECDA9D8916B72B7B9F40D80017295427DF88BAACEA4B6473343C9C89650B PUSH1 0x0 SHL PUSH2 0x4183 JUMP JUMPDEST PUSH2 0x90C PUSH32 0x4861CFA06BDA1343033C3FA7A35685FF6723278E4564FE55D7BB5A2C89E09165 PUSH1 0x0 SHL PUSH2 0x4183 JUMP JUMPDEST PUSH2 0x938 PUSH32 0x3C7AF0C7F8F4B479781275AACA4275A784B68EAC9DED6989E63650B17E069775 PUSH1 0x0 SHL PUSH2 0x4183 JUMP JUMPDEST PUSH1 0x1 SWAP1 POP JUMPDEST SWAP3 SWAP2 POP POP JUMP JUMPDEST PUSH2 0x96F PUSH32 0x801DAC2CCA4145CF73C1E44BB5351DCB05F3039694DF7B0BF620E8257FC37094 PUSH1 0x0 SHL PUSH2 0x4183 JUMP JUMPDEST PUSH2 0x99B PUSH32 0xE4CF38610EB6B2AED51251219BF2001C9E9A4E7C986190F58A4A322A008CAF70 PUSH1 0x0 SHL PUSH2 0x4183 JUMP JUMPDEST PUSH2 0x9C7 PUSH32 0xCF73666C091F72E447272BC286B587CFA9AE1AB4BA6CFEE4B4241CCAB5B2A555 PUSH1 0x0 SHL PUSH2 0x4183 JUMP JUMPDEST PUSH2 0x9F2 PUSH31 0x9D2D3DADADC3251875CA729BD8A78DD31A1226BD81DBCDF8CE754E99CF481D PUSH1 0x0 SHL PUSH2 0x4183 JUMP JUMPDEST PUSH1 0x5 PUSH1 0x0 SWAP1 SLOAD SWAP1 PUSH2 0x100 EXP SWAP1 DIV PUSH20 0xFFFFFFFFFFFFFFFFFFFFFFFFFFFFFFFFFFFFFFFF AND PUSH20 0xFFFFFFFFFFFFFFFFFFFFFFFFFFFFFFFFFFFFFFFF AND CALLER PUSH20 0xFFFFFFFFFFFFFFFFFFFFFFFFFFFFFFFFFFFFFFFF AND EQ PUSH2 0xA82 JUMPI PUSH1 0x40 MLOAD PUSH32 0x8C379A000000000000000000000000000000000000000000000000000000000 DUP2 MSTORE PUSH1 0x4 ADD PUSH2 0xA79 SWAP1 PUSH2 0x485A JUMP JUMPDEST PUSH1 0x40 MLOAD DUP1 SWAP2 SUB SWAP1 REVERT JUMPDEST PUSH2 0xAAE PUSH32 0x50867972228163D166B9E8DC1BA50A84A764215A5BEA6CC6F3DAB88FD23B6B8F PUSH1 0x0 SHL PUSH2 0x4183 JUMP JUMPDEST PUSH2 0xADA PUSH32 0xFAEC0B0457EF8A679827ACFA17FC28274566DE22B0C417BA87CABABC24972460 PUSH1 0x0 SHL PUSH2 0x4183 JUMP JUMPDEST PUSH2 0xB06 PUSH32 0xF5E240354BC5BB3496B9E96013282C032B5A8E33AD29BB194C1E74E9B6098298 PUSH1 0x0 SHL PUSH2 0x4183 JUMP JUMPDEST PUSH2 0xB32 PUSH32 0x146D6BDC370FCF9153AD93E721A746AEBA5F82C681E24C3E0B131FEC4EEF8114 PUSH1 0x0 SHL PUSH2 0x4183 JUMP JUMPDEST PUSH2 0xB5E PUSH32 0x57DA40C6AB599E94A9D9C6E259C097928D82238DE154508C53A2EDC7EA39761 PUSH1 0x0 SHL PUSH2 0x4183 JUMP JUMPDEST PUSH1 0x5 PUSH1 0x0 SWAP1 SLOAD SWAP1 PUSH2 0x100 EXP SWAP1 DIV PUSH20 0xFFFFFFFFFFFFFFFFFFFFFFFFFFFFFFFFFFFFFFFF AND PUSH20 0xFFFFFFFFFFFFFFFFFFFFFFFFFFFFFFFFFFFFFFFF AND SELFDESTRUCT JUMPDEST PUSH2 0xBA1 PUSH2 0x4186 JUMP JUMPDEST PUSH2 0xBCD PUSH32 0x4F188AF283A3812465DA23F6757B93498C4C5ADE911FCA1A40FCF9F3C319FCA2 PUSH1 0x0 SHL PUSH2 0x4183 JUMP JUMPDEST PUSH2 0xBF9 PUSH32 0x474A6AAA5F2E16FB87C035A8D92D4E75D05D8BFB341ACC3F597BF46783D10885 PUSH1 0x0 SHL PUSH2 0x4183 JUMP JUMPDEST PUSH2 0xC25 PUSH32 0xF7433932E506B110999CD0BF8E58FCEB6A923605FCCCD47C7E595D79B72AF65D PUSH1 0x0 SHL PUSH2 0x4183 JUMP JUMPDEST PUSH1 0x0 DUP1 DUP5 DUP2 MSTORE PUSH1 0x20 ADD SWAP1 DUP2 MSTORE PUSH1 0x20 ADD PUSH1 0x0 KECCAK256 PUSH1 0x1 ADD PUSH1 0x0 DUP4 DUP2 MSTORE PUSH1 0x20 ADD SWAP1 DUP2 MSTORE PUSH1 0x20 ADD PUSH1 0x0 KECCAK256 PUSH1 0x40 MLOAD DUP1 PUSH1 0x40 ADD PUSH1 0x40 MSTORE SWAP1 DUP2 PUSH1 0x0 DUP3 ADD PUSH1 0x0 SWAP1 SLOAD SWAP1 PUSH2 0x100 EXP SWAP1 DIV PUSH20 0xFFFFFFFFFFFFFFFFFFFFFFFFFFFFFFFFFFFFFFFF AND PUSH20 0xFFFFFFFFFFFFFFFFFFFFFFFFFFFFFFFFFFFFFFFF AND PUSH20 0xFFFFFFFFFFFFFFFFFFFFFFFFFFFFFFFFFFFFFFFF AND DUP2 MSTORE PUSH1 0x20 ADD PUSH1 0x1 DUP3 ADD SLOAD DUP2 MSTORE POP POP SWAP1 POP SWAP3 SWAP2 POP POP JUMP JUMPDEST PUSH2 0xCEA PUSH32 0x801DAC2CCA4145CF73C1E44BB5351DCB05F3039694DF7B0BF620E8257FC37094 PUSH1 0x0 SHL PUSH2 0x4183 JUMP JUMPDEST PUSH2 0xD16 PUSH32 0xE4CF38610EB6B2AED51251219BF2001C9E9A4E7C986190F58A4A322A008CAF70 PUSH1 0x0 SHL PUSH2 0x4183 JUMP JUMPDEST PUSH2 0xD42 PUSH32 0xCF73666C091F72E447272BC286B587CFA9AE1AB4BA6CFEE4B4241CCAB5B2A555 PUSH1 0x0 SHL PUSH2 0x4183 JUMP JUMPDEST PUSH2 0xD6D PUSH31 0x9D2D3DADADC3251875CA729BD8A78DD31A1226BD81DBCDF8CE754E99CF481D PUSH1 0x0 SHL PUSH2 0x4183 JUMP JUMPDEST PUSH1 0x5 PUSH1 0x0 SWAP1 SLOAD SWAP1 PUSH2 0x100 EXP SWAP1 DIV PUSH20 0xFFFFFFFFFFFFFFFFFFFFFFFFFFFFFFFFFFFFFFFF AND PUSH20 0xFFFFFFFFFFFFFFFFFFFFFFFFFFFFFFFFFFFFFFFF AND CALLER PUSH20 0xFFFFFFFFFFFFFFFFFFFFFFFFFFFFFFFFFFFFFFFF AND EQ PUSH2 0xDFD JUMPI PUSH1 0x40 MLOAD PUSH32 0x8C379A000000000000000000000000000000000000000000000000000000000 DUP2 MSTORE PUSH1 0x4 ADD PUSH2 0xDF4 SWAP1 PUSH2 0x485A JUMP JUMPDEST PUSH1 0x40 MLOAD DUP1 SWAP2 SUB SWAP1 REVERT JUMPDEST PUSH2 0xE29 PUSH32 0x50867972228163D166B9E8DC1BA50A84A764215A5BEA6CC6F3DAB88FD23B6B8F PUSH1 0x0 SHL PUSH2 0x4183 JUMP JUMPDEST PUSH2 0xE55 PUSH32 0xFAEC0B0457EF8A679827ACFA17FC28274566DE22B0C417BA87CABABC24972460 PUSH1 0x0 SHL PUSH2 0x4183 JUMP JUMPDEST PUSH2 0xE81 PUSH32 0xDD7C23039C5CFD0DE197DD04AE14987CBA1C6ACA8DE66A0C2C9A136615917B22 PUSH1 0x0 SHL PUSH2 0x4183 JUMP JUMPDEST PUSH2 0xEAD PUSH32 0x508A9D4D92BC6503961B0330FEB5ABA661C7BA0AF8B9EA79938C97CBC259B9E1 PUSH1 0x0 SHL PUSH2 0x4183 JUMP JUMPDEST PUSH2 0xED9 PUSH32 0xB7D076B057978EC309C70533A29C238D470861C5CF6C1A3AAB79CD94803481B3 PUSH1 0x0 SHL PUSH2 0x4183 JUMP JUMPDEST PUSH2 0xF05 PUSH32 0x7C30536F7FF718CA7D95A5B66D183B399133C440F1E611CA0DC5604B3A031DDC PUSH1 0x0 SHL PUSH2 0x4183 JUMP JUMPDEST PUSH1 0x4 SLOAD DUP2 GT ISZERO PUSH2 0xF4A JUMPI PUSH1 0x40 MLOAD PUSH32 0x8C379A000000000000000000000000000000000000000000000000000000000 DUP2 MSTORE PUSH1 0x4 ADD PUSH2 0xF41 SWAP1 PUSH2 0x491A JUMP JUMPDEST PUSH1 0x40 MLOAD DUP1 SWAP2 SUB SWAP1 REVERT JUMPDEST PUSH2 0xF76 PUSH32 0x4EEB60B7007B449DD3D9AE7B4F022540A91CF2514738A35E113A3F916C5D7311 PUSH1 0x0 SHL PUSH2 0x4183 JUMP JUMPDEST PUSH2 0xFA2 PUSH32 0x2A80211AE5361E719EDEA6875B5EAE8EE9E49D5BF4B47413CA878869E4364F81 PUSH1 0x0 SHL PUSH2 0x4183 JUMP JUMPDEST PUSH2 0xFCE PUSH32 0xFB7A6402889A477FD8C9B3FA7F990D5F81D940BFD0A86F024A0CF603E38CFAFF PUSH1 0x0 SHL PUSH2 0x4183 JUMP JUMPDEST PUSH2 0xFFA PUSH32 0x2003DF7E55239BBE0810382AD85128BB317EBAC1113D2BDF575936106BCA63FA PUSH1 0x0 SHL PUSH2 0x4183 JUMP JUMPDEST PUSH1 0x0 DUP2 EQ ISZERO PUSH2 0x103E JUMPI PUSH1 0x40 MLOAD PUSH32 0x8C379A000000000000000000000000000000000000000000000000000000000 DUP2 MSTORE PUSH1 0x4 ADD PUSH2 0x1035 SWAP1 PUSH2 0x48DA JUMP JUMPDEST PUSH1 0x40 MLOAD DUP1 SWAP2 SUB SWAP1 REVERT JUMPDEST PUSH2 0x106A PUSH32 0xBFBC4B8FD85D9549D066F7638F206B78ED8B73BB921E4F95260B8B148BF84D71 PUSH1 0x0 SHL PUSH2 0x4183 JUMP JUMPDEST PUSH2 0x1096 PUSH32 0xD4046D480B1C3864109BDC335AFD997E5AFAA69309BDE7FE362CC1DD29E08EC PUSH1 0x0 SHL PUSH2 0x4183 JUMP JUMPDEST PUSH2 0x10C2 PUSH32 0x983043DCEC0B90562AF12BC667203EA2125EEBE6D22178E1DE33DA31BAD12C3D PUSH1 0x0 SHL PUSH2 0x4183 JUMP JUMPDEST PUSH1 0x5 PUSH1 0x0 SWAP1 SLOAD SWAP1 PUSH2 0x100 EXP SWAP1 DIV PUSH20 0xFFFFFFFFFFFFFFFFFFFFFFFFFFFFFFFFFFFFFFFF AND PUSH20 0xFFFFFFFFFFFFFFFFFFFFFFFFFFFFFFFFFFFFFFFF AND PUSH2 0x8FC DUP3 SWAP1 DUP2 ISZERO MUL SWAP1 PUSH1 0x40 MLOAD PUSH1 0x0 PUSH1 0x40 MLOAD DUP1 DUP4 SUB DUP2 DUP6 DUP9 DUP9 CALL SWAP4 POP POP POP POP ISZERO DUP1 ISZERO PUSH2 0x112A JUMPI RETURNDATASIZE PUSH1 0x0 DUP1 RETURNDATACOPY RETURNDATASIZE PUSH1 0x0 REVERT JUMPDEST POP PUSH2 0x1157 PUSH32 0x43A870ECB37B9DA7D10DC6E80807558131870E9C652B5023D0F57F4C3031D0E2 PUSH1 0x0 SHL PUSH2 0x4183 JUMP JUMPDEST PUSH2 0x1183 PUSH32 0xB0430D52CDA17F0F1A67E7192DA36AC223D335F6BC2DB18BB739F84F67A962B4 PUSH1 0x0 SHL PUSH2 0x4183 JUMP JUMPDEST PUSH1 0x5 PUSH1 0x0 SWAP1 SLOAD SWAP1 PUSH2 0x100 EXP SWAP1 DIV PUSH20 0xFFFFFFFFFFFFFFFFFFFFFFFFFFFFFFFFFFFFFFFF AND PUSH20 0xFFFFFFFFFFFFFFFFFFFFFFFFFFFFFFFFFFFFFFFF AND PUSH32 0x69CA02DD4EDD7BF0A4ABB9ED3B7AF3F14778DB5D61921C7DC7CD545266326DE2 DUP3 PUSH1 0x40 MLOAD PUSH2 0x11EB SWAP2 SWAP1 PUSH2 0x4A15 JUMP JUMPDEST PUSH1 0x40 MLOAD DUP1 SWAP2 SUB SWAP1 LOG2 POP JUMP JUMPDEST PUSH1 0x3 SLOAD DUP2 JUMP JUMPDEST PUSH1 0x1 SLOAD DUP2 JUMP JUMPDEST PUSH2 0x122E PUSH32 0x801DAC2CCA4145CF73C1E44BB5351DCB05F3039694DF7B0BF620E8257FC37094 PUSH1 0x0 SHL PUSH2 0x4183 JUMP JUMPDEST PUSH2 0x125A PUSH32 0xE4CF38610EB6B2AED51251219BF2001C9E9A4E7C986190F58A4A322A008CAF70 PUSH1 0x0 SHL PUSH2 0x4183 JUMP JUMPDEST PUSH2 0x1286 PUSH32 0xCF73666C091F72E447272BC286B587CFA9AE1AB4BA6CFEE4B4241CCAB5B2A555 PUSH1 0x0 SHL PUSH2 0x4183 JUMP JUMPDEST PUSH2 0x12B1 PUSH31 0x9D2D3DADADC3251875CA729BD8A78DD31A1226BD81DBCDF8CE754E99CF481D PUSH1 0x0 SHL PUSH2 0x4183 JUMP JUMPDEST PUSH1 0x5 PUSH1 0x0 SWAP1 SLOAD SWAP1 PUSH2 0x100 EXP SWAP1 DIV PUSH20 0xFFFFFFFFFFFFFFFFFFFFFFFFFFFFFFFFFFFFFFFF AND PUSH20 0xFFFFFFFFFFFFFFFFFFFFFFFFFFFFFFFFFFFFFFFF AND CALLER PUSH20 0xFFFFFFFFFFFFFFFFFFFFFFFFFFFFFFFFFFFFFFFF AND EQ PUSH2 0x1341 JUMPI PUSH1 0x40 MLOAD PUSH32 0x8C379A000000000000000000000000000000000000000000000000000000000 DUP2 MSTORE PUSH1 0x4 ADD PUSH2 0x1338 SWAP1 PUSH2 0x485A JUMP JUMPDEST PUSH1 0x40 MLOAD DUP1 SWAP2 SUB SWAP1 REVERT JUMPDEST PUSH2 0x136D PUSH32 0x50867972228163D166B9E8DC1BA50A84A764215A5BEA6CC6F3DAB88FD23B6B8F PUSH1 0x0 SHL PUSH2 0x4183 JUMP JUMPDEST PUSH2 0x1399 PUSH32 0xFAEC0B0457EF8A679827ACFA17FC28274566DE22B0C417BA87CABABC24972460 PUSH1 0x0 SHL PUSH2 0x4183 JUMP JUMPDEST PUSH2 0x13C5 PUSH32 0xEB0EDCF38B93035EB8ADC766EC950FE55B326FADB6648477D08802379F6A2811 PUSH1 0x0 SHL PUSH2 0x4183 JUMP JUMPDEST PUSH2 0x13F1 PUSH32 0x287D726852FA6668C51E4CF7713E54DD750AC66C794E88A0DF60E05D3249172B PUSH1 0x0 SHL PUSH2 0x4183 JUMP JUMPDEST PUSH2 0x141D PUSH32 0x99261D474AFF0B932AC9CB8FE9AB94D0067332B08A6BFBB147959014D8A2AC21 PUSH1 0x0 SHL PUSH2 0x4183 JUMP JUMPDEST PUSH2 0x1449 PUSH32 0xFACD25AB17291AA3DADF183E55F014AC323FAEA950FE1608F796F021D248728 PUSH1 0x0 SHL PUSH2 0x4183 JUMP JUMPDEST PUSH1 0x0 DUP4 EQ ISZERO PUSH2 0x148D JUMPI PUSH1 0x40 MLOAD PUSH32 0x8C379A000000000000000000000000000000000000000000000000000000000 DUP2 MSTORE PUSH1 0x4 ADD PUSH2 0x1484 SWAP1 PUSH2 0x497A JUMP JUMPDEST PUSH1 0x40 MLOAD DUP1 SWAP2 SUB SWAP1 REVERT JUMPDEST PUSH2 0x14B9 PUSH32 0x6D0AE70C3BEB53EB8B5A1C3FE7CFCED37E9095339B6CB12F0EEDBC602CB72B43 PUSH1 0x0 SHL PUSH2 0x4183 JUMP JUMPDEST PUSH2 0x14E5 PUSH32 0x6BDDD38D42FC57BD5D72E832D039FC9D514373FF1B6EFE7965D757B502FF0230 PUSH1 0x0 SHL PUSH2 0x4183 JUMP JUMPDEST PUSH2 0x1511 PUSH32 0x26CCEF134FD1A20906D26DBB6229DC498F052D2262EB347E64B11752AB3FBEE6 PUSH1 0x0 SHL PUSH2 0x4183 JUMP JUMPDEST PUSH2 0x153D PUSH32 0x6AF54C6183F04FF7B177CE3A9E9F09B34990A21F83507984F9A61DA597934459 PUSH1 0x0 SHL PUSH2 0x4183 JUMP JUMPDEST PUSH2 0x1546 DUP4 PUSH2 0x585 JUMP JUMPDEST ISZERO PUSH2 0x1586 JUMPI PUSH1 0x40 MLOAD PUSH32 0x8C379A000000000000000000000000000000000000000000000000000000000 DUP2 MSTORE PUSH1 0x4 ADD PUSH2 0x157D SWAP1 PUSH2 0x49DA JUMP JUMPDEST PUSH1 0x40 MLOAD DUP1 SWAP2 SUB SWAP1 REVERT JUMPDEST PUSH2 0x15B2 PUSH32 0xFD66DA463211DD4CED799EA2A172B4559E0824B46B94F8E3BC168F8F8C6A27E PUSH1 0x0 SHL PUSH2 0x4183 JUMP JUMPDEST PUSH2 0x15DE PUSH32 0x3925172C478046DEC39EBC775BDFE100569C5A44A1C51940F65615DFEE0C5838 PUSH1 0x0 SHL PUSH2 0x4183 JUMP JUMPDEST PUSH2 0x160A PUSH32 0xBFF36CDCFF5689DA77054672951FF7B39EE8C14ED62FB69C4A1AD9738CB82743 PUSH1 0x0 SHL PUSH2 0x4183 JUMP JUMPDEST PUSH2 0x1636 PUSH32 0x2902921D5A9FA81A9C39E43111419A693DF2C09CE69AECA34A4BA5AC79FB0CEE PUSH1 0x0 SHL PUSH2 0x4183 JUMP JUMPDEST PUSH1 0x1 DUP3 MLOAD GT PUSH2 0x167A JUMPI PUSH1 0x40 MLOAD PUSH32 0x8C379A000000000000000000000000000000000000000000000000000000000 DUP2 MSTORE PUSH1 0x4 ADD PUSH2 0x1671 SWAP1 PUSH2 0x49BA JUMP JUMPDEST PUSH1 0x40 MLOAD DUP1 SWAP2 SUB SWAP1 REVERT JUMPDEST PUSH2 0x16A6 PUSH32 0x342F9A5CCA7C51F590B526126DC0990BEFB3B14B7147D24934980AEF538A4187 PUSH1 0x0 SHL PUSH2 0x4183 JUMP JUMPDEST PUSH2 0x16D2 PUSH32 0xD4E79F4CE62FEFDBB82DFD02F1B824A0D6496430BB8ED93368653F889EFF6B91 PUSH1 0x0 SHL PUSH2 0x4183 JUMP JUMPDEST PUSH2 0x16FE PUSH32 0x1BAE8EB5EF8CA0B88231D670C77B7E40B3934B808965BDC14A898511071CAAC2 PUSH1 0x0 SHL PUSH2 0x4183 JUMP JUMPDEST PUSH2 0x172A PUSH32 0x7BF74138D374A5C646FFD787DC03DBBC6A529A8AA2E3ADF12E41B211FF0B0956 PUSH1 0x0 SHL PUSH2 0x4183 JUMP JUMPDEST DUP1 MLOAD DUP3 MLOAD EQ PUSH2 0x176E JUMPI PUSH1 0x40 MLOAD PUSH32 0x8C379A000000000000000000000000000000000000000000000000000000000 DUP2 MSTORE PUSH1 0x4 ADD PUSH2 0x1765 SWAP1 PUSH2 0x493A JUMP JUMPDEST PUSH1 0x40 MLOAD DUP1 SWAP2 SUB SWAP1 REVERT JUMPDEST PUSH2 0x179A PUSH32 0xE6787FC85216C151CD8A25DD35E7CD965B1C40844C7F9BDDFC0130817A15B119 PUSH1 0x0 SHL PUSH2 0x4183 JUMP JUMPDEST PUSH2 0x17C6 PUSH32 0xEBEFEFAB0E8E68AAC7A0A9342EFD027D1C9D27BC31A64B31DF0E4BD9F196D11D PUSH1 0x0 SHL PUSH2 0x4183 JUMP JUMPDEST PUSH2 0x17F2 PUSH32 0xC11C02BA5092C85C484476143B4C4CEC931934F816DB2ED8EDDE734E8406BCF4 PUSH1 0x0 SHL PUSH2 0x4183 JUMP JUMPDEST PUSH1 0x0 JUMPDEST DUP3 MLOAD DUP2 LT ISZERO PUSH2 0x1B29 JUMPI PUSH2 0x182A PUSH32 0xAE9E956D0CEEACD7356BE6244EF6DEB6DA83F371FEFDFBE473520BAAF3B2C330 PUSH1 0x0 SHL PUSH2 0x4183 JUMP JUMPDEST PUSH2 0x1856 PUSH32 0xCC19F2893759B962425B9698A60C6480F2097F1513806F33C78EDD4C0DF0FC89 PUSH1 0x0 SHL PUSH2 0x4183 JUMP JUMPDEST PUSH2 0x18A0 DUP5 DUP4 DUP4 DUP2 MLOAD DUP2 LT PUSH2 0x1893 JUMPI PUSH32 0x4E487B7100000000000000000000000000000000000000000000000000000000 PUSH1 0x0 MSTORE PUSH1 0x32 PUSH1 0x4 MSTORE PUSH1 0x24 PUSH1 0x0 REVERT JUMPDEST PUSH1 0x20 MUL PUSH1 0x20 ADD ADD MLOAD PUSH2 0x3237 JUMP JUMPDEST PUSH2 0x1AE9 JUMPI PUSH2 0x18D0 PUSH32 0xDC14EE55BF883BCFB142A35BCE372E1494DD9552F2BBD059D52640727DF045BD PUSH1 0x0 SHL PUSH2 0x4183 JUMP JUMPDEST PUSH2 0x18FC PUSH32 0xC916E697C78B3828C55E0BAA999063B0399DC93D2E93732AC92FF430C283AD2D PUSH1 0x0 SHL PUSH2 0x4183 JUMP JUMPDEST PUSH2 0x1928 PUSH32 0x23E98E1F44661AC83C246A9DD3CE47076E174DA5493642329B9D722DF3DA2892 PUSH1 0x0 SHL PUSH2 0x4183 JUMP JUMPDEST DUP3 DUP2 DUP2 MLOAD DUP2 LT PUSH2 0x1961 JUMPI PUSH32 0x4E487B7100000000000000000000000000000000000000000000000000000000 PUSH1 0x0 MSTORE PUSH1 0x32 PUSH1 0x4 MSTORE PUSH1 0x24 PUSH1 0x0 REVERT JUMPDEST PUSH1 0x20 MUL PUSH1 0x20 ADD ADD MLOAD PUSH1 0x0 DUP1 DUP7 DUP2 MSTORE PUSH1 0x20 ADD SWAP1 DUP2 MSTORE PUSH1 0x20 ADD PUSH1 0x0 KECCAK256 PUSH1 0x1 ADD PUSH1 0x0 DUP5 DUP5 DUP2 MLOAD DUP2 LT PUSH2 0x19B9 JUMPI PUSH32 0x4E487B7100000000000000000000000000000000000000000000000000000000 PUSH1 0x0 MSTORE PUSH1 0x32 PUSH1 0x4 MSTORE PUSH1 0x24 PUSH1 0x0 REVERT JUMPDEST PUSH1 0x20 MUL PUSH1 0x20 ADD ADD MLOAD DUP2 MSTORE PUSH1 0x20 ADD SWAP1 DUP2 MSTORE PUSH1 0x20 ADD PUSH1 0x0 KECCAK256 PUSH1 0x0 ADD PUSH1 0x0 PUSH2 0x100 EXP DUP2 SLOAD DUP2 PUSH20 0xFFFFFFFFFFFFFFFFFFFFFFFFFFFFFFFFFFFFFFFF MUL NOT AND SWAP1 DUP4 PUSH20 0xFFFFFFFFFFFFFFFFFFFFFFFFFFFFFFFFFFFFFFFF AND MUL OR SWAP1 SSTORE POP PUSH2 0x1A3C PUSH32 0x18281653F55A88908614CCD07A3D14E08E2B9CA61C974365F59F14CAB56FF67D PUSH1 0x0 SHL PUSH2 0x4183 JUMP JUMPDEST PUSH2 0x1A68 PUSH32 0x1602F9EE2B19E0A0F676F4BB265C91942E75B30EB21DBC932CDD11F592CB9B19 PUSH1 0x0 SHL PUSH2 0x4183 JUMP JUMPDEST PUSH1 0x0 DUP1 DUP6 DUP2 MSTORE PUSH1 0x20 ADD SWAP1 DUP2 MSTORE PUSH1 0x20 ADD PUSH1 0x0 KECCAK256 PUSH1 0x2 ADD DUP3 DUP3 DUP2 MLOAD DUP2 LT PUSH2 0x1AB6 JUMPI PUSH32 0x4E487B7100000000000000000000000000000000000000000000000000000000 PUSH1 0x0 MSTORE PUSH1 0x32 PUSH1 0x4 MSTORE PUSH1 0x24 PUSH1 0x0 REVERT JUMPDEST PUSH1 0x20 MUL PUSH1 0x20 ADD ADD MLOAD SWAP1 DUP1 PUSH1 0x1 DUP2 SLOAD ADD DUP1 DUP3 SSTORE DUP1 SWAP2 POP POP PUSH1 0x1 SWAP1 SUB SWAP1 PUSH1 0x0 MSTORE PUSH1 0x20 PUSH1 0x0 KECCAK256 ADD PUSH1 0x0 SWAP1 SWAP2 SWAP1 SWAP2 SWAP1 SWAP2 POP SSTORE PUSH2 0x1B16 JUMP JUMPDEST PUSH2 0x1B15 PUSH32 0x3B45B2493B6B3D16422A459CF23EAB1ED2DF27A62F0812A83B97F165B4D3C260 PUSH1 0x0 SHL PUSH2 0x4183 JUMP JUMPDEST JUMPDEST DUP1 DUP1 PUSH2 0x1B21 SWAP1 PUSH2 0x4CD2 JUMP JUMPDEST SWAP2 POP POP PUSH2 0x17F5 JUMP JUMPDEST POP PUSH2 0x1B56 PUSH32 0x8EC3C513DE4DA8800B541FD1129E4D82E654183AB3E1D9C35E9CF6AF60CE550E PUSH1 0x0 SHL PUSH2 0x4183 JUMP JUMPDEST PUSH2 0x1B82 PUSH32 0x246531A3E4BF8743D41B96C4CB5A69B18B22A98CB6E623449B3588AC898FB76 PUSH1 0x0 SHL PUSH2 0x4183 JUMP JUMPDEST PUSH1 0x1 PUSH1 0x0 DUP1 DUP6 DUP2 MSTORE PUSH1 0x20 ADD SWAP1 DUP2 MSTORE PUSH1 0x20 ADD PUSH1 0x0 KECCAK256 PUSH1 0x5 ADD PUSH1 0x0 PUSH2 0x100 EXP DUP2 SLOAD DUP2 PUSH1 0xFF MUL NOT AND SWAP1 DUP4 ISZERO ISZERO MUL OR SWAP1 SSTORE POP PUSH2 0x1BDC PUSH32 0xFEB9B7FE8A0EB23859C092FCD41DD85782875501DEEA58A1840AF340B87EF1F6 PUSH1 0x0 SHL PUSH2 0x4183 JUMP JUMPDEST PUSH2 0x1C08 PUSH32 0x2596A841CC274F844B2B0D4FC64C948422DC6F94908EBBA7A0D5FA1758DA5E98 PUSH1 0x0 SHL PUSH2 0x4183 JUMP JUMPDEST PUSH1 0x1 SLOAD PUSH2 0x1C13 PUSH2 0x3456 JUMP JUMPDEST PUSH2 0x1C1D SWAP2 SWAP1 PUSH2 0x4B30 JUMP JUMPDEST PUSH1 0x0 DUP1 DUP6 DUP2 MSTORE PUSH1 0x20 ADD SWAP1 DUP2 MSTORE PUSH1 0x20 ADD PUSH1 0x0 KECCAK256 PUSH1 0x4 ADD DUP2 SWAP1 SSTORE POP POP POP POP JUMP JUMPDEST DUP2 DUP2 PUSH2 0x1C69 PUSH32 0x77DA160107AB4AC13172FB08641B4B532E605FC8E59024B84378598E51FFB89E PUSH1 0x0 SHL PUSH2 0x4183 JUMP JUMPDEST PUSH2 0x1C95 PUSH32 0xA0AEB7F0438379B3207F90A87E829570002999F1AC467F23D660580C0037EC6C PUSH1 0x0 SHL PUSH2 0x4183 JUMP JUMPDEST PUSH2 0x1CC1 PUSH32 0x88EFE0B18047A5BDF9F965425476495E91B310181B23FF6CB74DF13AC0A87AE7 PUSH1 0x0 SHL PUSH2 0x4183 JUMP JUMPDEST PUSH2 0x1CED PUSH32 0x559EB31416B0071B1C9D6E50EE5F9BDBB99319AAB5E163CB8AE7622A8357B744 PUSH1 0x0 SHL PUSH2 0x4183 JUMP JUMPDEST PUSH2 0x1CF6 DUP3 PUSH2 0x585 JUMP JUMPDEST PUSH2 0x1D35 JUMPI PUSH1 0x40 MLOAD PUSH32 0x8C379A000000000000000000000000000000000000000000000000000000000 DUP2 MSTORE PUSH1 0x4 ADD PUSH2 0x1D2C SWAP1 PUSH2 0x483A JUMP JUMPDEST PUSH1 0x40 MLOAD DUP1 SWAP2 SUB SWAP1 REVERT JUMPDEST PUSH2 0x1D61 PUSH32 0x9B07D54F59F1BD35892DE9353D458B3AE5B7201784D0BC81B3D9FEA56C4B396E PUSH1 0x0 SHL PUSH2 0x4183 JUMP JUMPDEST PUSH2 0x1D8D PUSH32 0xFACC6B6B950572D0227A8B4E9562A788E097E1A565516CED96DB4DEFC97651AE PUSH1 0x0 SHL PUSH2 0x4183 JUMP JUMPDEST PUSH2 0x1DB9 PUSH32 0x2975776D2F7E2D81CBFAB0F32B53D96111951E032A10E4080A60CA60DDE17F06 PUSH1 0x0 SHL PUSH2 0x4183 JUMP JUMPDEST PUSH2 0x1DE5 PUSH32 0xF5B13C389FDAD319A93319C3CD25728E105E618593A8E759BBCC189C89A99D38 PUSH1 0x0 SHL PUSH2 0x4183 JUMP JUMPDEST PUSH2 0x1DEE DUP3 PUSH2 0x38E3 JUMP JUMPDEST ISZERO PUSH2 0x1E2E JUMPI PUSH1 0x40 MLOAD PUSH32 0x8C379A000000000000000000000000000000000000000000000000000000000 DUP2 MSTORE PUSH1 0x4 ADD PUSH2 0x1E25 SWAP1 PUSH2 0x487A JUMP JUMPDEST PUSH1 0x40 MLOAD DUP1 SWAP2 SUB SWAP1 REVERT JUMPDEST PUSH2 0x1E5A PUSH32 0x298D8F708AEB89268A1D07352227DBDB93A529539E64ED76DBC5D88BCC03B56B PUSH1 0x0 SHL PUSH2 0x4183 JUMP JUMPDEST PUSH2 0x1E86 PUSH32 0x90F059551838702BFBADE35E18593CE655131F11AE3995AA8A51772C4A524EC6 PUSH1 0x0 SHL PUSH2 0x4183 JUMP JUMPDEST PUSH2 0x1EB2 PUSH32 0x42DBC9A32DF84FE9C32BFF6BD68E21CACD592A75AA5F35C19908D15A74236C27 PUSH1 0x0 SHL PUSH2 0x4183 JUMP JUMPDEST PUSH2 0x1EDE PUSH32 0xF938564F8ACF63AFE85696F63F0F738BDDD3656CBE355319FB6EEE07471F1ECA PUSH1 0x0 SHL PUSH2 0x4183 JUMP JUMPDEST PUSH2 0x1EE8 DUP3 DUP3 PUSH2 0x3237 JUMP JUMPDEST PUSH2 0x1F27 JUMPI PUSH1 0x40 MLOAD PUSH32 0x8C379A000000000000000000000000000000000000000000000000000000000 DUP2 MSTORE PUSH1 0x4 ADD PUSH2 0x1F1E SWAP1 PUSH2 0x499A JUMP JUMPDEST PUSH1 0x40 MLOAD DUP1 SWAP2 SUB SWAP1 REVERT JUMPDEST PUSH2 0x1F53 PUSH32 0xE665862712434E237357A20EBA2F772186B37D3A0FB5813F1AAC8628E3FBD503 PUSH1 0x0 SHL PUSH2 0x4183 JUMP JUMPDEST PUSH2 0x1F7F PUSH32 0x8F3E893CCB60430AC0846A4FBBC2FD53F5588FF8D7B20E8F6F2A903CE92A33EF PUSH1 0x0 SHL PUSH2 0x4183 JUMP JUMPDEST PUSH2 0x1FAB PUSH32 0x71251E326D4FC76990E96132FB4656931B88529D35F8DC7A547444CD5713B8CE PUSH1 0x0 SHL PUSH2 0x4183 JUMP JUMPDEST PUSH2 0x1FD7 PUSH32 0x3EFB801CF17CD697E208E955A2AC0E83F5D8F9C2D1E49E2699F7BDDA0C571C4E PUSH1 0x0 SHL PUSH2 0x4183 JUMP JUMPDEST PUSH1 0x0 DUP1 DUP4 DUP2 MSTORE PUSH1 0x20 ADD SWAP1 DUP2 MSTORE PUSH1 0x20 ADD PUSH1 0x0 KECCAK256 PUSH1 0x1 ADD PUSH1 0x0 DUP3 DUP2 MSTORE PUSH1 0x20 ADD SWAP1 DUP2 MSTORE PUSH1 0x20 ADD PUSH1 0x0 KECCAK256 PUSH1 0x0 ADD PUSH1 0x0 SWAP1 SLOAD SWAP1 PUSH2 0x100 EXP SWAP1 DIV PUSH20 0xFFFFFFFFFFFFFFFFFFFFFFFFFFFFFFFFFFFFFFFF AND PUSH20 0xFFFFFFFFFFFFFFFFFFFFFFFFFFFFFFFFFFFFFFFF AND CALLER PUSH20 0xFFFFFFFFFFFFFFFFFFFFFFFFFFFFFFFFFFFFFFFF AND EQ ISZERO PUSH2 0x208F JUMPI PUSH1 0x40 MLOAD PUSH32 0x8C379A000000000000000000000000000000000000000000000000000000000 DUP2 MSTORE PUSH1 0x4 ADD PUSH2 0x2086 SWAP1 PUSH2 0x489A JUMP JUMPDEST PUSH1 0x40 MLOAD DUP1 SWAP2 SUB SWAP1 REVERT JUMPDEST PUSH2 0x20BB PUSH32 0x6878309EBD20ACFB4651C5EA477AE3BC11093B51530227919FF4B1CC757AF5C8 PUSH1 0x0 SHL PUSH2 0x4183 JUMP JUMPDEST PUSH2 0x20E7 PUSH32 0xBDCA5590EC9D572C34111EBACDA8A41BCC2E0516023F7BA84523BBD2B3950D24 PUSH1 0x0 SHL PUSH2 0x4183 JUMP JUMPDEST PUSH2 0x2113 PUSH32 0x59CD687BF6A3664FA077D9FC4DC6FB1F30809DBEB003F9CABD8A695E878C204D PUSH1 0x0 SHL PUSH2 0x4183 JUMP JUMPDEST PUSH2 0x213F PUSH32 0xBD2DB34EC2374176F512471BFC7EF087AA1F09C680FB2975FCFD161E125E3D1C PUSH1 0x0 SHL PUSH2 0x4183 JUMP JUMPDEST PUSH2 0x2149 DUP3 CALLER PUSH2 0x744 JUMP JUMPDEST ISZERO PUSH2 0x2189 JUMPI PUSH1 0x40 MLOAD PUSH32 0x8C379A000000000000000000000000000000000000000000000000000000000 DUP2 MSTORE PUSH1 0x4 ADD PUSH2 0x2180 SWAP1 PUSH2 0x48BA JUMP JUMPDEST PUSH1 0x40 MLOAD DUP1 SWAP2 SUB SWAP1 REVERT JUMPDEST PUSH2 0x21B5 PUSH32 0x25461F67AD9EBB73668D152004B942213F9E27483FF867B1E0C40E089E606181 PUSH1 0x0 SHL PUSH2 0x4183 JUMP JUMPDEST PUSH2 0x21E1 PUSH32 0xA2F9080DB569918923FA94F06CE520727C78F7FD994A66A7D383BA1FA3AA26F PUSH1 0x0 SHL PUSH2 0x4183 JUMP JUMPDEST PUSH2 0x220D PUSH32 0xBDC4F94F4D8650470E4E58842871AC996ED38567673530B426807297CF19BA52 PUSH1 0x0 SHL PUSH2 0x4183 JUMP JUMPDEST PUSH2 0x2239 PUSH32 0xF06DE43ED9EA2EB00C037D5477A7326F266760601393FF1EF19856DA0745F302 PUSH1 0x0 SHL PUSH2 0x4183 JUMP JUMPDEST PUSH1 0x2 SLOAD CALLVALUE EQ PUSH2 0x227D JUMPI PUSH1 0x40 MLOAD PUSH32 0x8C379A000000000000000000000000000000000000000000000000000000000 DUP2 MSTORE PUSH1 0x4 ADD PUSH2 0x2274 SWAP1 PUSH2 0x495A JUMP JUMPDEST PUSH1 0x40 MLOAD DUP1 SWAP2 SUB SWAP1 REVERT JUMPDEST PUSH2 0x22A9 PUSH32 0x2E6558B47A0E65D0C36ABEAB14804552D76CF972CB46C84D8E71E326DBC4ACA8 PUSH1 0x0 SHL PUSH2 0x4183 JUMP JUMPDEST PUSH2 0x22D5 PUSH32 0x461D0451D8E35C2CB8E9BBE4F9BFC23D8CD0BE769D93D4C822343C62A1D8E701 PUSH1 0x0 SHL PUSH2 0x4183 JUMP JUMPDEST PUSH2 0x2301 PUSH32 0x62D40332CE0518847D5CEDE476B06665F8781D9C9F0889A3D19C7611FFC99B64 PUSH1 0x0 SHL PUSH2 0x4183 JUMP JUMPDEST PUSH2 0x232D PUSH32 0x8E4F3FA3DF0D0809B308E3C9898E78FC4237ED1AE30D49F5765562D003B49EC3 PUSH1 0x0 SHL PUSH2 0x4183 JUMP JUMPDEST PUSH1 0x0 DUP1 DUP6 DUP2 MSTORE PUSH1 0x20 ADD SWAP1 DUP2 MSTORE PUSH1 0x20 ADD PUSH1 0x0 KECCAK256 PUSH1 0x1 ADD PUSH1 0x0 DUP5 DUP2 MSTORE PUSH1 0x20 ADD SWAP1 DUP2 MSTORE PUSH1 0x20 ADD PUSH1 0x0 KECCAK256 PUSH1 0x1 ADD PUSH1 0x0 DUP2 SLOAD DUP1 SWAP3 SWAP2 SWAP1 PUSH2 0x2367 SWAP1 PUSH2 0x4CD2 JUMP JUMPDEST SWAP2 SWAP1 POP SSTORE POP PUSH2 0x2398 PUSH32 0xB2C774F71505BC6A8AD53C906B9D31B3408DB315EA2B0735CE655C75DDA853EA PUSH1 0x0 SHL PUSH2 0x4183 JUMP JUMPDEST PUSH2 0x23C4 PUSH32 0x6CE743D4FA6EAEE432605144C33609970FAA5E40B103489EE300D5B2270F2A96 PUSH1 0x0 SHL PUSH2 0x4183 JUMP JUMPDEST DUP3 PUSH1 0x0 DUP1 DUP7 DUP2 MSTORE PUSH1 0x20 ADD SWAP1 DUP2 MSTORE PUSH1 0x20 ADD PUSH1 0x0 KECCAK256 PUSH1 0x0 ADD PUSH1 0x0 CALLER PUSH20 0xFFFFFFFFFFFFFFFFFFFFFFFFFFFFFFFFFFFFFFFF AND PUSH20 0xFFFFFFFFFFFFFFFFFFFFFFFFFFFFFFFFFFFFFFFF AND DUP2 MSTORE PUSH1 0x20 ADD SWAP1 DUP2 MSTORE PUSH1 0x20 ADD PUSH1 0x0 KECCAK256 DUP2 SWAP1 SSTORE POP PUSH2 0x2447 PUSH32 0x1A905D7AB86D195C4BC5DEAC15E8923CA17AE1D0677DBAE64E8641A24C46CDCF PUSH1 0x0 SHL PUSH2 0x4183 JUMP JUMPDEST PUSH1 0x0 DUP1 DUP6 DUP2 MSTORE PUSH1 0x20 ADD SWAP1 DUP2 MSTORE PUSH1 0x20 ADD PUSH1 0x0 KECCAK256 PUSH1 0x3 ADD PUSH1 0x0 DUP2 SLOAD DUP1 SWAP3 SWAP2 SWAP1 PUSH2 0x246D SWAP1 PUSH2 0x4CD2 JUMP JUMPDEST SWAP2 SWAP1 POP SSTORE POP POP POP POP POP JUMP JUMPDEST PUSH1 0x60 PUSH2 0x24A6 PUSH32 0x6249C1F072D0D4B3853C19D764262808BA112596926E35723E36244C9D304775 PUSH1 0x0 SHL PUSH2 0x4183 JUMP JUMPDEST PUSH2 0x24D2 PUSH32 0x67B3B8FDBCA3F49B3F08F896E86AF8086FFC291C9AAA1AAFAD88C03D76F77DCC PUSH1 0x0 SHL PUSH2 0x4183 JUMP JUMPDEST PUSH2 0x24FE PUSH32 0x5754ADA1CF7FC830E55B31589D87DDC3A67A0FB0ED58731040CA6A0545CE079A PUSH1 0x0 SHL PUSH2 0x4183 JUMP JUMPDEST PUSH2 0x2507 DUP3 PUSH2 0x2514 JUMP JUMPDEST SWAP1 POP SWAP2 SWAP1 POP JUMP JUMPDEST PUSH1 0x2 SLOAD DUP2 JUMP JUMPDEST PUSH1 0x60 PUSH2 0x2542 PUSH32 0xD980F844476A03082987693D8BF16290A201CB4F456C84C2AF43094FEC0F4057 PUSH1 0x0 SHL PUSH2 0x4183 JUMP JUMPDEST PUSH2 0x256E PUSH32 0xB461C1BD0C1DABC80BA017DF99B8BBA834E868F54D7FCACA00D637104F1765D7 PUSH1 0x0 SHL PUSH2 0x4183 JUMP JUMPDEST PUSH2 0x259A PUSH32 0x1EC2008A2DDD73A32BD3B6ED560F9AC4D705804B3E804CCB737233F4F9692843 PUSH1 0x0 SHL PUSH2 0x4183 JUMP JUMPDEST PUSH1 0x0 PUSH2 0x25C8 PUSH32 0xF8A61A1B11EB40157AE7EF9826FBB4BCD42EA9CDA497D96DAF2002F73827A6C8 PUSH1 0x0 SHL PUSH2 0x4183 JUMP JUMPDEST PUSH2 0x25F4 PUSH32 0x60A623E8A7B928312532A439CEC2350A772014AFFA46ECFB8816278745829869 PUSH1 0x0 SHL PUSH2 0x4183 JUMP JUMPDEST PUSH1 0x0 PUSH1 0x1 SWAP1 POP PUSH2 0x2626 PUSH32 0xC7348CF12B0A72DDB7C29A9A08543A7C043CDE4322A19B047D0199424FF3CB4 PUSH1 0x0 SHL PUSH2 0x4183 JUMP JUMPDEST PUSH2 0x2652 PUSH32 0xE371E3DC66D493A096D7A6F543E190D65D9A073E3460D3EAA77EAC555856F92C PUSH1 0x0 SHL PUSH2 0x4183 JUMP JUMPDEST PUSH1 0x0 JUMPDEST PUSH1 0x0 DUP1 DUP7 DUP2 MSTORE PUSH1 0x20 ADD SWAP1 DUP2 MSTORE PUSH1 0x20 ADD PUSH1 0x0 KECCAK256 PUSH1 0x2 ADD DUP1 SLOAD SWAP1 POP DUP2 LT ISZERO PUSH2 0x29A7 JUMPI PUSH2 0x26A1 PUSH32 0xF112B23C041EA2EF7640FC18D1123CC7728547531A0A9AD622C41CD5F0C5E675 PUSH1 0x0 SHL PUSH2 0x4183 JUMP JUMPDEST PUSH2 0x26CD PUSH32 0x583D8F4B10FD1AFC47063CBB81B264C521156484B44B3C5EEBB267475EC96CD9 PUSH1 0x0 SHL PUSH2 0x4183 JUMP JUMPDEST PUSH1 0x0 DUP1 PUSH1 0x0 DUP8 DUP2 MSTORE PUSH1 0x20 ADD SWAP1 DUP2 MSTORE PUSH1 0x20 ADD PUSH1 0x0 KECCAK256 PUSH1 0x1 ADD PUSH1 0x0 DUP1 PUSH1 0x0 DUP10 DUP2 MSTORE PUSH1 0x20 ADD SWAP1 DUP2 MSTORE PUSH1 0x20 ADD PUSH1 0x0 KECCAK256 PUSH1 0x2 ADD DUP5 DUP2 SLOAD DUP2 LT PUSH2 0x2733 JUMPI PUSH32 0x4E487B7100000000000000000000000000000000000000000000000000000000 PUSH1 0x0 MSTORE PUSH1 0x32 PUSH1 0x4 MSTORE PUSH1 0x24 PUSH1 0x0 REVERT JUMPDEST SWAP1 PUSH1 0x0 MSTORE PUSH1 0x20 PUSH1 0x0 KECCAK256 ADD SLOAD DUP2 MSTORE PUSH1 0x20 ADD SWAP1 DUP2 MSTORE PUSH1 0x20 ADD PUSH1 0x0 KECCAK256 PUSH1 0x1 ADD SLOAD SWAP1 POP PUSH2 0x277E PUSH32 0x4CCBE73C856B5192A125EA4CE67D2DD5E98F9203E22224C09C24834E0D6772E8 PUSH1 0x0 SHL PUSH2 0x4183 JUMP JUMPDEST PUSH2 0x27AA PUSH32 0xB38D0D6523AF0310B1B178C3C4D7DB25E743AA79C68F48A88A8601ACCD59C9C PUSH1 0x0 SHL PUSH2 0x4183 JUMP JUMPDEST DUP4 DUP2 GT ISZERO PUSH2 0x289A JUMPI PUSH2 0x27DE PUSH32 0x4D9294571D344616E6A81E67AA4E006B68168C4B794F4E4491BA1270FBBB1328 PUSH1 0x0 SHL PUSH2 0x4183 JUMP JUMPDEST PUSH2 0x280A PUSH32 0x7EBEB2FF017668530BE8477DAF6EEB4725C09DA4EF5755D1B0D85F490723D5FC PUSH1 0x0 SHL PUSH2 0x4183 JUMP JUMPDEST PUSH2 0x2836 PUSH32 0xE2C0BAFC99F10BCD1B4DC37C6A2524153210D78E534C8B952A04EB1EC8E08885 PUSH1 0x0 SHL PUSH2 0x4183 JUMP JUMPDEST DUP1 SWAP4 POP PUSH2 0x2865 PUSH32 0xFC8D52829C52D6130896664C99F3D875E0FBA3F77CC4B829B968912192A9C95A PUSH1 0x0 SHL PUSH2 0x4183 JUMP JUMPDEST PUSH2 0x2891 PUSH32 0x23900498F7A25FB926680697AA46C6505458FA424066D84040D0943ECC4062B2 PUSH1 0x0 SHL PUSH2 0x4183 JUMP JUMPDEST PUSH1 0x1 SWAP3 POP PUSH2 0x2993 JUMP JUMPDEST PUSH2 0x28C6 PUSH32 0x2A5A584DEF8D50060335364416C6712EE31CBE2D9F7236AACEFCCC769E2F601F PUSH1 0x0 SHL PUSH2 0x4183 JUMP JUMPDEST PUSH2 0x28F2 PUSH32 0x53B0738891F90BE2C27924E5BD57CDBD6CDFFE192363A5146F30474BF8BA3B4A PUSH1 0x0 SHL PUSH2 0x4183 JUMP JUMPDEST DUP4 DUP2 EQ ISZERO PUSH2 0x2965 JUMPI PUSH2 0x2926 PUSH32 0x59C0011E3FA5DFB051CAF6C023A3E6013DC6D1D7425628E7A586B9ABCBE9D8B5 PUSH1 0x0 SHL PUSH2 0x4183 JUMP JUMPDEST PUSH2 0x2952 PUSH32 0xE83E0681976A09128D13ED097959142FFE197A3EDDA1F8C3D34EC6236B159321 PUSH1 0x0 SHL PUSH2 0x4183 JUMP JUMPDEST DUP3 DUP1 PUSH2 0x295D SWAP1 PUSH2 0x4CD2 JUMP JUMPDEST SWAP4 POP POP PUSH2 0x2992 JUMP JUMPDEST PUSH2 0x2991 PUSH32 0xE129B29918066535DDFC122C3C20CF31AAB2FABD154A9B60DB34DD67C1F55C31 PUSH1 0x0 SHL PUSH2 0x4183 JUMP JUMPDEST JUMPDEST JUMPDEST POP DUP1 DUP1 PUSH2 0x299F SWAP1 PUSH2 0x4CD2 JUMP JUMPDEST SWAP2 POP POP PUSH2 0x2655 JUMP JUMPDEST POP PUSH2 0x29D4 PUSH32 0x5F99390F842E89E5645A3A6F796B8E6062C4285A519EC7F8DEE8539B846FF4BC PUSH1 0x0 SHL PUSH2 0x4183 JUMP JUMPDEST PUSH2 0x2A00 PUSH32 0x3A198AE6E3E3F78D59E20421429922050D50632A4762FC83C09F895917C2D8AE PUSH1 0x0 SHL PUSH2 0x4183 JUMP JUMPDEST PUSH1 0x0 DUP3 GT ISZERO PUSH2 0x2ED1 JUMPI PUSH2 0x2A35 PUSH32 0x9A90396B3D0B30E7908C6306442E2E9D76A2754E5ABCEDEC12903B358E4A4B9F PUSH1 0x0 SHL PUSH2 0x4183 JUMP JUMPDEST PUSH2 0x2A61 PUSH32 0xD6747678637C73016787C5DE4FC29AA74929E0408854D6CE30385AB971281F08 PUSH1 0x0 SHL PUSH2 0x4183 JUMP JUMPDEST PUSH2 0x2A8D PUSH32 0x4FC5505E5B318FAAED5426C7326997FC168066ECD9D7C357FB125670A28DB92 PUSH1 0x0 SHL PUSH2 0x4183 JUMP JUMPDEST DUP1 PUSH8 0xFFFFFFFFFFFFFFFF DUP2 GT ISZERO PUSH2 0x2ACD JUMPI PUSH32 0x4E487B7100000000000000000000000000000000000000000000000000000000 PUSH1 0x0 MSTORE PUSH1 0x41 PUSH1 0x4 MSTORE PUSH1 0x24 PUSH1 0x0 REVERT JUMPDEST PUSH1 0x40 MLOAD SWAP1 DUP1 DUP3 MSTORE DUP1 PUSH1 0x20 MUL PUSH1 0x20 ADD DUP3 ADD PUSH1 0x40 MSTORE DUP1 ISZERO PUSH2 0x2AFB JUMPI DUP2 PUSH1 0x20 ADD PUSH1 0x20 DUP3 MUL DUP1 CALLDATASIZE DUP4 CALLDATACOPY DUP1 DUP3 ADD SWAP2 POP POP SWAP1 POP JUMPDEST POP SWAP3 POP PUSH2 0x2B2A PUSH32 0xA5263A9C34F39A969B1A04955B52C7CEE9AD11856E24266D3653915F6480BCB8 PUSH1 0x0 SHL PUSH2 0x4183 JUMP JUMPDEST PUSH2 0x2B56 PUSH32 0x56500318ECF3E852FA53A7BAD07AB2E9D93B56ACE6C68EDCF2B2B60D7048F86 PUSH1 0x0 SHL PUSH2 0x4183 JUMP JUMPDEST PUSH1 0x0 PUSH2 0x2B84 PUSH32 0xD96CE6280C91703D0DDCB8333E229E840B0BE068D24F58CB49797193920745F9 PUSH1 0x0 SHL PUSH2 0x4183 JUMP JUMPDEST PUSH2 0x2BB0 PUSH32 0xE76EFB4A3B9A1CC0F2F417043059CF01773262540165C5DA931C4AE3D560CC16 PUSH1 0x0 SHL PUSH2 0x4183 JUMP JUMPDEST PUSH1 0x0 JUMPDEST PUSH1 0x0 DUP1 DUP8 DUP2 MSTORE PUSH1 0x20 ADD SWAP1 DUP2 MSTORE PUSH1 0x20 ADD PUSH1 0x0 KECCAK256 PUSH1 0x2 ADD DUP1 SLOAD SWAP1 POP DUP2 LT ISZERO PUSH2 0x2ECA JUMPI PUSH2 0x2BFF PUSH32 0x522C6E3A3DC394C8E48A85C94FD474B1AB352871CEEF0E10B8E8E6BCBE11AF96 PUSH1 0x0 SHL PUSH2 0x4183 JUMP JUMPDEST PUSH2 0x2C2B PUSH32 0x273D4AC68FA76CA0A396F6FAB8FA47CDD02CED62E5C40BE530A94C0A841E54F9 PUSH1 0x0 SHL PUSH2 0x4183 JUMP JUMPDEST DUP4 PUSH1 0x0 DUP1 DUP9 DUP2 MSTORE PUSH1 0x20 ADD SWAP1 DUP2 MSTORE PUSH1 0x20 ADD PUSH1 0x0 KECCAK256 PUSH1 0x1 ADD PUSH1 0x0 DUP1 PUSH1 0x0 DUP11 DUP2 MSTORE PUSH1 0x20 ADD SWAP1 DUP2 MSTORE PUSH1 0x20 ADD PUSH1 0x0 KECCAK256 PUSH1 0x2 ADD DUP5 DUP2 SLOAD DUP2 LT PUSH2 0x2C90 JUMPI PUSH32 0x4E487B7100000000000000000000000000000000000000000000000000000000 PUSH1 0x0 MSTORE PUSH1 0x32 PUSH1 0x4 MSTORE PUSH1 0x24 PUSH1 0x0 REVERT JUMPDEST SWAP1 PUSH1 0x0 MSTORE PUSH1 0x20 PUSH1 0x0 KECCAK256 ADD SLOAD DUP2 MSTORE PUSH1 0x20 ADD SWAP1 DUP2 MSTORE PUSH1 0x20 ADD PUSH1 0x0 KECCAK256 PUSH1 0x1 ADD SLOAD EQ ISZERO PUSH2 0x2E8A JUMPI PUSH2 0x2CDF PUSH32 0xA704029BD2E8FA2C0AB47A097912551C061256BE56646C8FB6F0F1DA2BF8E1BD PUSH1 0x0 SHL PUSH2 0x4183 JUMP JUMPDEST PUSH2 0x2D0B PUSH32 0xB8E72B576D1B7ADBC6EAEE1B9AA1F4999259BE188D63D155510029F37EB1CDD4 PUSH1 0x0 SHL PUSH2 0x4183 JUMP JUMPDEST PUSH2 0x2D37 PUSH32 0xC4D04C9FB7E24E5A6205BE38F5711DE7D3781A410EC30A2B2ADEC2BBF5DB0879 PUSH1 0x0 SHL PUSH2 0x4183 JUMP JUMPDEST PUSH1 0x0 DUP1 DUP8 DUP2 MSTORE PUSH1 0x20 ADD SWAP1 DUP2 MSTORE PUSH1 0x20 ADD PUSH1 0x0 KECCAK256 PUSH1 0x1 ADD PUSH1 0x0 DUP1 PUSH1 0x0 DUP10 DUP2 MSTORE PUSH1 0x20 ADD SWAP1 DUP2 MSTORE PUSH1 0x20 ADD PUSH1 0x0 KECCAK256 PUSH1 0x2 ADD DUP4 DUP2 SLOAD DUP2 LT PUSH2 0x2D9B JUMPI PUSH32 0x4E487B7100000000000000000000000000000000000000000000000000000000 PUSH1 0x0 MSTORE PUSH1 0x32 PUSH1 0x4 MSTORE PUSH1 0x24 PUSH1 0x0 REVERT JUMPDEST SWAP1 PUSH1 0x0 MSTORE PUSH1 0x20 PUSH1 0x0 KECCAK256 ADD SLOAD DUP2 MSTORE PUSH1 0x20 ADD SWAP1 DUP2 MSTORE PUSH1 0x20 ADD PUSH1 0x0 KECCAK256 PUSH1 0x0 ADD PUSH1 0x0 SWAP1 SLOAD SWAP1 PUSH2 0x100 EXP SWAP1 DIV PUSH20 0xFFFFFFFFFFFFFFFFFFFFFFFFFFFFFFFFFFFFFFFF AND DUP6 DUP4 DUP2 MLOAD DUP2 LT PUSH2 0x2E11 JUMPI PUSH32 0x4E487B7100000000000000000000000000000000000000000000000000000000 PUSH1 0x0 MSTORE PUSH1 0x32 PUSH1 0x4 MSTORE PUSH1 0x24 PUSH1 0x0 REVERT JUMPDEST PUSH1 0x20 MUL PUSH1 0x20 ADD ADD SWAP1 PUSH20 0xFFFFFFFFFFFFFFFFFFFFFFFFFFFFFFFFFFFFFFFF AND SWAP1 DUP2 PUSH20 0xFFFFFFFFFFFFFFFFFFFFFFFFFFFFFFFFFFFFFFFF AND DUP2 MSTORE POP POP PUSH2 0x2E77 PUSH32 0xF525BB4AA696B2BC29FA320F607EF0152235418E1C11636252A9CDB1E006AF76 PUSH1 0x0 SHL PUSH2 0x4183 JUMP JUMPDEST DUP2 DUP1 PUSH2 0x2E82 SWAP1 PUSH2 0x4CD2 JUMP JUMPDEST SWAP3 POP POP PUSH2 0x2EB7 JUMP JUMPDEST PUSH2 0x2EB6 PUSH32 0x7D2EFC7236F229B45C9BA3121F70397AAB7DB34F9FE0DD3FE383D9DD74D3123B PUSH1 0x0 SHL PUSH2 0x4183 JUMP JUMPDEST JUMPDEST DUP1 DUP1 PUSH2 0x2EC2 SWAP1 PUSH2 0x4CD2 JUMP JUMPDEST SWAP2 POP POP PUSH2 0x2BB3 JUMP JUMPDEST POP POP PUSH2 0x2EFE JUMP JUMPDEST PUSH2 0x2EFD PUSH32 0x10DBE6BE8972623F97DA63C82E7020AE8021A9D053D8FC33EC7DC8ED50D2DD91 PUSH1 0x0 SHL PUSH2 0x4183 JUMP JUMPDEST JUMPDEST POP POP SWAP2 SWAP1 POP JUMP JUMPDEST PUSH1 0x60 PUSH2 0x2F33 PUSH32 0x3AC107DA5310104F8FEC1B976A61349783ABB3F64EDDCA123031CDEAA503A508 PUSH1 0x0 SHL PUSH2 0x4183 JUMP JUMPDEST PUSH2 0x2F5F PUSH32 0x8C0210D8C8C557988162FA0FCB32645F477E4FD18A00B1B63290A0F6F40E5A4F PUSH1 0x0 SHL PUSH2 0x4183 JUMP JUMPDEST PUSH2 0x2F8B PUSH32 0xE84C7D02CEF2A7A050F9B23C4CF9918AB953FBAD5EC783629C5BE56AB20C77E8 PUSH1 0x0 SHL PUSH2 0x4183 JUMP JUMPDEST PUSH1 0x0 DUP1 DUP4 DUP2 MSTORE PUSH1 0x20 ADD SWAP1 DUP2 MSTORE PUSH1 0x20 ADD PUSH1 0x0 KECCAK256 PUSH1 0x2 ADD DUP1 SLOAD SWAP1 POP PUSH8 0xFFFFFFFFFFFFFFFF DUP2 GT ISZERO PUSH2 0x2FE3 JUMPI PUSH32 0x4E487B7100000000000000000000000000000000000000000000000000000000 PUSH1 0x0 MSTORE PUSH1 0x41 PUSH1 0x4 MSTORE PUSH1 0x24 PUSH1 0x0 REVERT JUMPDEST PUSH1 0x40 MLOAD SWAP1 DUP1 DUP3 MSTORE DUP1 PUSH1 0x20 MUL PUSH1 0x20 ADD DUP3 ADD PUSH1 0x40 MSTORE DUP1 ISZERO PUSH2 0x301C JUMPI DUP2 PUSH1 0x20 ADD JUMPDEST PUSH2 0x3009 PUSH2 0x4186 JUMP JUMPDEST DUP2 MSTORE PUSH1 0x20 ADD SWAP1 PUSH1 0x1 SWAP1 SUB SWAP1 DUP2 PUSH2 0x3001 JUMPI SWAP1 POP JUMPDEST POP SWAP1 POP PUSH2 0x304B PUSH32 0xDD58F7B93A19E9450ADE180FCCEEA87F10AD0ED0BDDBFAC9B05BDA4B88D0C16E PUSH1 0x0 SHL PUSH2 0x4183 JUMP JUMPDEST PUSH2 0x3077 PUSH32 0x89C4936121484632C17C2EB3ED766FD84C92FB35DB9F0B0B935B4FAE5BF39189 PUSH1 0x0 SHL PUSH2 0x4183 JUMP JUMPDEST PUSH1 0x0 JUMPDEST PUSH1 0x0 DUP1 DUP5 DUP2 MSTORE PUSH1 0x20 ADD SWAP1 DUP2 MSTORE PUSH1 0x20 ADD PUSH1 0x0 KECCAK256 PUSH1 0x2 ADD DUP1 SLOAD SWAP1 POP DUP2 LT ISZERO PUSH2 0x3231 JUMPI PUSH2 0x30C6 PUSH32 0x3BAD41794ED7E9BFFD053F5A53E2CE08360E562D54B25C56308CE2C458046C9C PUSH1 0x0 SHL PUSH2 0x4183 JUMP JUMPDEST PUSH2 0x30F2 PUSH32 0x8383744722925C20BC89774C8CDA3346EAD04A3DE17D1FC7C5D10F733562BDC6 PUSH1 0x0 SHL PUSH2 0x4183 JUMP JUMPDEST PUSH1 0x0 DUP1 DUP5 DUP2 MSTORE PUSH1 0x20 ADD SWAP1 DUP2 MSTORE PUSH1 0x20 ADD PUSH1 0x0 KECCAK256 PUSH1 0x1 ADD PUSH1 0x0 DUP1 PUSH1 0x0 DUP7 DUP2 MSTORE PUSH1 0x20 ADD SWAP1 DUP2 MSTORE PUSH1 0x20 ADD PUSH1 0x0 KECCAK256 PUSH1 0x2 ADD DUP4 DUP2 SLOAD DUP2 LT PUSH2 0x3156 JUMPI PUSH32 0x4E487B7100000000000000000000000000000000000000000000000000000000 PUSH1 0x0 MSTORE PUSH1 0x32 PUSH1 0x4 MSTORE PUSH1 0x24 PUSH1 0x0 REVERT JUMPDEST SWAP1 PUSH1 0x0 MSTORE PUSH1 0x20 PUSH1 0x0 KECCAK256 ADD SLOAD DUP2 MSTORE PUSH1 0x20 ADD SWAP1 DUP2 MSTORE PUSH1 0x20 ADD PUSH1 0x0 KECCAK256 PUSH1 0x40 MLOAD DUP1 PUSH1 0x40 ADD PUSH1 0x40 MSTORE SWAP1 DUP2 PUSH1 0x0 DUP3 ADD PUSH1 0x0 SWAP1 SLOAD SWAP1 PUSH2 0x100 EXP SWAP1 DIV PUSH20 0xFFFFFFFFFFFFFFFFFFFFFFFFFFFFFFFFFFFFFFFF AND PUSH20 0xFFFFFFFFFFFFFFFFFFFFFFFFFFFFFFFFFFFFFFFF AND PUSH20 0xFFFFFFFFFFFFFFFFFFFFFFFFFFFFFFFFFFFFFFFF AND DUP2 MSTORE PUSH1 0x20 ADD PUSH1 0x1 DUP3 ADD SLOAD DUP2 MSTORE POP POP DUP3 DUP3 DUP2 MLOAD DUP2 LT PUSH2 0x3213 JUMPI PUSH32 0x4E487B7100000000000000000000000000000000000000000000000000000000 PUSH1 0x0 MSTORE PUSH1 0x32 PUSH1 0x4 MSTORE PUSH1 0x24 PUSH1 0x0 REVERT JUMPDEST PUSH1 0x20 MUL PUSH1 0x20 ADD ADD DUP2 SWAP1 MSTORE POP DUP1 DUP1 PUSH2 0x3229 SWAP1 PUSH2 0x4CD2 JUMP JUMPDEST SWAP2 POP POP PUSH2 0x307A JUMP JUMPDEST POP SWAP2 SWAP1 POP JUMP JUMPDEST PUSH1 0x0 PUSH2 0x3265 PUSH32 0x17DA741F75A73C8229437BA40A752A7C9B7A9844C27697998A2CF67876BD4E44 PUSH1 0x0 SHL PUSH2 0x4183 JUMP JUMPDEST PUSH2 0x3291 PUSH32 0x708B060130CB53E117BC0B61109E4CE774E56644F8C46D3BE7993B4B10405C72 PUSH1 0x0 SHL PUSH2 0x4183 JUMP JUMPDEST PUSH2 0x32BD PUSH32 0x237277423F050FF67D8F5E90B324FF391216C753B605CA9A929F14632C2C19E PUSH1 0x0 SHL PUSH2 0x4183 JUMP JUMPDEST PUSH1 0x0 PUSH20 0xFFFFFFFFFFFFFFFFFFFFFFFFFFFFFFFFFFFFFFFF AND PUSH1 0x0 DUP1 DUP6 DUP2 MSTORE PUSH1 0x20 ADD SWAP1 DUP2 MSTORE PUSH1 0x20 ADD PUSH1 0x0 KECCAK256 PUSH1 0x1 ADD PUSH1 0x0 DUP5 DUP2 MSTORE PUSH1 0x20 ADD SWAP1 DUP2 MSTORE PUSH1 0x20 ADD PUSH1 0x0 KECCAK256 PUSH1 0x0 ADD PUSH1 0x0 SWAP1 SLOAD SWAP1 PUSH2 0x100 EXP SWAP1 DIV PUSH20 0xFFFFFFFFFFFFFFFFFFFFFFFFFFFFFFFFFFFFFFFF AND PUSH20 0xFFFFFFFFFFFFFFFFFFFFFFFFFFFFFFFFFFFFFFFF AND EQ ISZERO PUSH2 0x33C7 JUMPI PUSH2 0x3366 PUSH31 0xA21A7544B7E25C140C4F1E07126A91827C34D641103B06ACF1AA55DEB3C9D0 PUSH1 0x0 SHL PUSH2 0x4183 JUMP JUMPDEST PUSH2 0x3392 PUSH32 0x528237A7031718F8F40714F253A1B4B45E821B47D24A7CAD2EA3DF146B084F38 PUSH1 0x0 SHL PUSH2 0x4183 JUMP JUMPDEST PUSH2 0x33BE PUSH32 0xDFC592934724453DA185FB8E8874A4CDCEBD126166B3B0B9B7EE134F9A8C2366 PUSH1 0x0 SHL PUSH2 0x4183 JUMP JUMPDEST PUSH1 0x0 SWAP1 POP PUSH2 0x3450 JUMP JUMPDEST PUSH2 0x33F3 PUSH32 0x843DB57C97B23E5B67E6A9BD7FC2DF039DDB4EBC731AF57AB9F1ABA828D4BD8F PUSH1 0x0 SHL PUSH2 0x4183 JUMP JUMPDEST PUSH2 0x341F PUSH32 0x57E362C88F6F3D5D8FA04DE4FF0BBB8E48F39C87138E977FEA858F6A5DABEB31 PUSH1 0x0 SHL PUSH2 0x4183 JUMP JUMPDEST PUSH2 0x344B PUSH32 0xCCF5412143AADB95A9969FE2245D676305A6127C93B292ED2EE8A98E756CA161 PUSH1 0x0 SHL PUSH2 0x4183 JUMP JUMPDEST PUSH1 0x1 SWAP1 POP JUMPDEST SWAP3 SWAP2 POP POP JUMP JUMPDEST PUSH1 0x0 PUSH2 0x3484 PUSH32 0x7A799C7B3F886711FAF056ADEC666FFB5230E6DEC03AC102600B067FF865C713 PUSH1 0x0 SHL PUSH2 0x4183 JUMP JUMPDEST PUSH2 0x34B0 PUSH32 0x4A655F05EA67F712C40F54F7D25E1C7D9A6EF940B28911364DAE57F6B20C1004 PUSH1 0x0 SHL PUSH2 0x4183 JUMP JUMPDEST PUSH2 0x34DC PUSH32 0x4D0A33893FF73B2FB598F9B9719A41B08717822FC73AF8BB89ECA0802C9FF647 PUSH1 0x0 SHL PUSH2 0x4183 JUMP JUMPDEST TIMESTAMP SWAP1 POP SWAP1 JUMP JUMPDEST PUSH2 0x350E PUSH32 0xC13D17A52773A55B0A262F255961AB726FC4765CD48999FD086ED1C6AE6B1D9C PUSH1 0x0 SHL PUSH2 0x4183 JUMP JUMPDEST PUSH2 0x353A PUSH32 0x62EE2B4474EE35288029FD6324F8BDFE07095F2C75211C6925803D93468AAFD0 PUSH1 0x0 SHL PUSH2 0x4183 JUMP JUMPDEST PUSH2 0x3566 PUSH32 0xA0EB339A724B190EDE9FB2CB043798D935048A1B658465CFDA20B02156D506D PUSH1 0x0 SHL PUSH2 0x4183 JUMP JUMPDEST PUSH2 0x3592 PUSH32 0x5C1A7B70ED91B180878C8539DF91720060A4C19A8B963BC21CC44C3E2B20FFF7 PUSH1 0x0 SHL PUSH2 0x4183 JUMP JUMPDEST PUSH2 0x359B DUP2 PUSH2 0x38E3 JUMP JUMPDEST PUSH2 0x35DA JUMPI PUSH1 0x40 MLOAD PUSH32 0x8C379A000000000000000000000000000000000000000000000000000000000 DUP2 MSTORE PUSH1 0x4 ADD PUSH2 0x35D1 SWAP1 PUSH2 0x48FA JUMP JUMPDEST PUSH1 0x40 MLOAD DUP1 SWAP2 SUB SWAP1 REVERT JUMPDEST PUSH2 0x3606 PUSH32 0xB66BE82CE9D6E92E5E8336CBA20DE1612992ECCDA65E437B8B9EC785AC33BDFE PUSH1 0x0 SHL PUSH2 0x4183 JUMP JUMPDEST POP JUMP JUMPDEST PUSH1 0x0 PUSH2 0x3637 PUSH32 0xEFF66AD69A6827F065E88B766D771CDA11E4A6AE66A6D10CE4267B6099E0AFD5 PUSH1 0x0 SHL PUSH2 0x4183 JUMP JUMPDEST PUSH2 0x3663 PUSH32 0xA2DB813DE5A2DD27F1B147CB91AE52707D847373D3377A3841801A26E264268F PUSH1 0x0 SHL PUSH2 0x4183 JUMP JUMPDEST PUSH2 0x368F PUSH32 0xCD7E9FC9D4873D5F35175CA80F88EB24AED987B62E2C99FB1E1F5967016E8D34 PUSH1 0x0 SHL PUSH2 0x4183 JUMP JUMPDEST PUSH2 0x3697 PUSH2 0x3456 JUMP JUMPDEST PUSH1 0x0 DUP1 DUP5 DUP2 MSTORE PUSH1 0x20 ADD SWAP1 DUP2 MSTORE PUSH1 0x20 ADD PUSH1 0x0 KECCAK256 PUSH1 0x4 ADD SLOAD PUSH2 0x36B7 SWAP2 SWAP1 PUSH2 0x4C11 JUMP JUMPDEST SWAP1 POP SWAP2 SWAP1 POP JUMP JUMPDEST PUSH1 0x0 PUSH2 0x36EC PUSH32 0x801DAC2CCA4145CF73C1E44BB5351DCB05F3039694DF7B0BF620E8257FC37094 PUSH1 0x0 SHL PUSH2 0x4183 JUMP JUMPDEST PUSH2 0x3718 PUSH32 0xE4CF38610EB6B2AED51251219BF2001C9E9A4E7C986190F58A4A322A008CAF70 PUSH1 0x0 SHL PUSH2 0x4183 JUMP JUMPDEST PUSH2 0x3744 PUSH32 0xCF73666C091F72E447272BC286B587CFA9AE1AB4BA6CFEE4B4241CCAB5B2A555 PUSH1 0x0 SHL PUSH2 0x4183 JUMP JUMPDEST PUSH2 0x376F PUSH31 0x9D2D3DADADC3251875CA729BD8A78DD31A1226BD81DBCDF8CE754E99CF481D PUSH1 0x0 SHL PUSH2 0x4183 JUMP JUMPDEST PUSH1 0x5 PUSH1 0x0 SWAP1 SLOAD SWAP1 PUSH2 0x100 EXP SWAP1 DIV PUSH20 0xFFFFFFFFFFFFFFFFFFFFFFFFFFFFFFFFFFFFFFFF AND PUSH20 0xFFFFFFFFFFFFFFFFFFFFFFFFFFFFFFFFFFFFFFFF AND CALLER PUSH20 0xFFFFFFFFFFFFFFFFFFFFFFFFFFFFFFFFFFFFFFFF AND EQ PUSH2 0x37FF JUMPI PUSH1 0x40 MLOAD PUSH32 0x8C379A000000000000000000000000000000000000000000000000000000000 DUP2 MSTORE PUSH1 0x4 ADD PUSH2 0x37F6 SWAP1 PUSH2 0x485A JUMP JUMPDEST PUSH1 0x40 MLOAD DUP1 SWAP2 SUB SWAP1 REVERT JUMPDEST PUSH2 0x382B PUSH32 0x50867972228163D166B9E8DC1BA50A84A764215A5BEA6CC6F3DAB88FD23B6B8F PUSH1 0x0 SHL PUSH2 0x4183 JUMP JUMPDEST PUSH2 0x3857 PUSH32 0xFAEC0B0457EF8A679827ACFA17FC28274566DE22B0C417BA87CABABC24972460 PUSH1 0x0 SHL PUSH2 0x4183 JUMP JUMPDEST PUSH2 0x3883 PUSH32 0x9BB01EE17EE7DA5E986B5D16D403520AD707C7624910531109D0898B56130869 PUSH1 0x0 SHL PUSH2 0x4183 JUMP JUMPDEST PUSH2 0x38AF PUSH32 0x94F2AD3786BBB52649F9B4C6DD368F5EBC23B4FDA5669442EE4B7FED00C72815 PUSH1 0x0 SHL PUSH2 0x4183 JUMP JUMPDEST PUSH2 0x38DB PUSH32 0x3F48CB40FCC10A8DD1E390DA8596E5D3217F7BB3AF8328DBAD55B6CA6710AE90 PUSH1 0x0 SHL PUSH2 0x4183 JUMP JUMPDEST PUSH1 0x4 SLOAD SWAP1 POP SWAP1 JUMP JUMPDEST PUSH1 0x0 PUSH2 0x3911 PUSH32 0x425D5EBC82264D2E21BFF253BD704112E9732CBD2E9B3BE38F6F41FEF0C9412A PUSH1 0x0 SHL PUSH2 0x4183 JUMP JUMPDEST PUSH2 0x393D PUSH32 0xC0D1C5BDD9CC115441987C27E1639D3A20C60502DE43CA9B0AA82F4DEE5362E4 PUSH1 0x0 SHL PUSH2 0x4183 JUMP JUMPDEST PUSH2 0x3969 PUSH32 0x6EB75FD416424FFFF6CBB0A989922A2A8194563FD277370F7B4D9D9D8AC07C6F PUSH1 0x0 SHL PUSH2 0x4183 JUMP JUMPDEST PUSH2 0x3971 PUSH2 0x3456 JUMP JUMPDEST PUSH1 0x0 DUP1 DUP5 DUP2 MSTORE PUSH1 0x20 ADD SWAP1 DUP2 MSTORE PUSH1 0x20 ADD PUSH1 0x0 KECCAK256 PUSH1 0x4 ADD SLOAD GT ISZERO PUSH2 0x3A1A JUMPI PUSH2 0x39B9 PUSH32 0xFEDFB28CE4CB0D285D12B0C71B9D88070BFC98776A7F16A88BB3D711C442317 PUSH1 0x0 SHL PUSH2 0x4183 JUMP JUMPDEST PUSH2 0x39E5 PUSH32 0xA663B7BFABD1E50E94BC9A6365B3DFB360FBD57FA44D1D78427A3A61610BADFC PUSH1 0x0 SHL PUSH2 0x4183 JUMP JUMPDEST PUSH2 0x3A11 PUSH32 0x60EB676291C55AA9960E50CB0CA41DDE483E428220C8E1C1B3EBAE3EEADF9EED PUSH1 0x0 SHL PUSH2 0x4183 JUMP JUMPDEST PUSH1 0x0 SWAP1 POP PUSH2 0x417E JUMP JUMPDEST PUSH2 0x3A46 PUSH32 0xB1AC4059C3D05477BCFCB12345C57BAEF6B69DE8093E3D62986D1904C0728780 PUSH1 0x0 SHL PUSH2 0x4183 JUMP JUMPDEST PUSH2 0x3A72 PUSH32 0x8CC43D6FE3170FFD8CFB8897F2B5E4E9616AF110CAC1AAF5AE663DB93FD75214 PUSH1 0x0 SHL PUSH2 0x4183 JUMP JUMPDEST PUSH2 0x3A9E PUSH32 0x3711347D3490E072F6BD421A8F6B7C9FA56CBED3A171EB5553F4697081ED3A1F PUSH1 0x0 SHL PUSH2 0x4183 JUMP JUMPDEST PUSH1 0x0 DUP1 DUP4 DUP2 MSTORE PUSH1 0x20 ADD SWAP1 DUP2 MSTORE PUSH1 0x20 ADD PUSH1 0x0 KECCAK256 PUSH1 0x5 ADD PUSH1 0x0 SWAP1 SLOAD SWAP1 PUSH2 0x100 EXP SWAP1 DIV PUSH1 0xFF AND PUSH2 0x3B52 JUMPI PUSH2 0x3AF1 PUSH32 0x44F26DD25D64F91CE172FDC0C5FC2211C571DABAA78C9EE974C9DCEBF4907CFB PUSH1 0x0 SHL PUSH2 0x4183 JUMP JUMPDEST PUSH2 0x3B1D PUSH32 0xD1857040418D0AD940B83913EB4C3CFB9A235D7133B519AE3193CC1F522141AB PUSH1 0x0 SHL PUSH2 0x4183 JUMP JUMPDEST PUSH2 0x3B49 PUSH32 0x370ACBDD93D154A822535E5C464D9B68DB5CBA6638512607B3633B4AFC9D2777 PUSH1 0x0 SHL PUSH2 0x4183 JUMP JUMPDEST PUSH1 0x0 SWAP1 POP PUSH2 0x417E JUMP JUMPDEST PUSH2 0x3B7E PUSH32 0xAA4B588216D34816839518DA271FDCEEA2F91908808AF93B2E274C5BC68565F3 PUSH1 0x0 SHL PUSH2 0x4183 JUMP JUMPDEST PUSH2 0x3BAA PUSH32 0x9108851CA75877A789006811275150088DBEE202007EFBF4363CD0F3C4C064D PUSH1 0x0 SHL PUSH2 0x4183 JUMP JUMPDEST PUSH2 0x3BD6 PUSH32 0xF1B99C7A218EFC8A105E027087089B26437EF839A92BC4B67DA0E1A40113E973 PUSH1 0x0 SHL PUSH2 0x4183 JUMP JUMPDEST PUSH1 0x0 DUP1 PUSH1 0x0 DUP5 DUP2 MSTORE PUSH1 0x20 ADD SWAP1 DUP2 MSTORE PUSH1 0x20 ADD PUSH1 0x0 KECCAK256 PUSH1 0x5 ADD PUSH1 0x0 PUSH2 0x100 EXP DUP2 SLOAD DUP2 PUSH1 0xFF MUL NOT AND SWAP1 DUP4 ISZERO ISZERO MUL OR SWAP1 SSTORE POP PUSH2 0x3C30 PUSH32 0xA9F94E264FB010A166B6CFD2EBEC785456031BD0EE83C692D7EC012F8C1AF9CB PUSH1 0x0 SHL PUSH2 0x4183 JUMP JUMPDEST PUSH2 0x3C5C PUSH32 0x1CFF356A02608062365788297F1C9B4811F0CD430A2E0B546A795A4AF6A7A8DD PUSH1 0x0 SHL PUSH2 0x4183 JUMP JUMPDEST PUSH1 0x0 PUSH2 0x3C67 DUP4 PUSH2 0x2514 JUMP JUMPDEST SWAP1 POP PUSH2 0x3C95 PUSH32 0x1FE7C50D504CB8EEFDB3D74F06A7781B952700EE2D7E2DC66823F40B6127C724 PUSH1 0x0 SHL PUSH2 0x4183 JUMP JUMPDEST PUSH2 0x3CC1 PUSH32 0x79978F829B93B51016F410CE3916614A4560AAD9DCB6050626729078333DF22E PUSH1 0x0 SHL PUSH2 0x4183 JUMP JUMPDEST PUSH1 0x0 DUP2 MLOAD EQ ISZERO PUSH2 0x3D59 JUMPI PUSH2 0x3CF7 PUSH32 0x8ABBDD27A0894E0699E5F75CB1729D7FED496438BCA17E31F2DFF7FFBF96C179 PUSH1 0x0 SHL PUSH2 0x4183 JUMP JUMPDEST PUSH2 0x3D23 PUSH32 0x8DEB733EFE0C0D40F4468C80EF7B291A82362CE0998914930D55A95A37949133 PUSH1 0x0 SHL PUSH2 0x4183 JUMP JUMPDEST PUSH2 0x3D4F PUSH32 0xA1B90BC6AAB1C3096897BEFAABE3F9086392005D26B8DFA2730CC3B977BA51BB PUSH1 0x0 SHL PUSH2 0x4183 JUMP JUMPDEST PUSH1 0x1 SWAP2 POP POP PUSH2 0x417E JUMP JUMPDEST PUSH2 0x3D85 PUSH32 0x81CC162194AA77C2A464C6C216F1884AABFF8133E7C6BAA064BD767EE6814204 PUSH1 0x0 SHL PUSH2 0x4183 JUMP JUMPDEST PUSH2 0x3DB1 PUSH32 0x8105CCA5901932826B857436A16A63B4144CB34783DC383930FCA7D4F57AE486 PUSH1 0x0 SHL PUSH2 0x4183 JUMP JUMPDEST PUSH2 0x3DDD PUSH32 0xF990281323A00CE0CEAF09B20F62857F9244F5B9EB218D6DC6A39A89ABE72FCA PUSH1 0x0 SHL PUSH2 0x4183 JUMP JUMPDEST PUSH1 0x0 DUP2 MLOAD PUSH1 0x64 PUSH2 0x3DED SWAP2 SWAP1 PUSH2 0x4BB7 JUMP JUMPDEST PUSH1 0x3 SLOAD PUSH1 0x64 PUSH2 0x3DFC SWAP2 SWAP1 PUSH2 0x4C11 JUMP JUMPDEST PUSH1 0x2 SLOAD PUSH1 0x0 DUP1 DUP9 DUP2 MSTORE PUSH1 0x20 ADD SWAP1 DUP2 MSTORE PUSH1 0x20 ADD PUSH1 0x0 KECCAK256 PUSH1 0x3 ADD SLOAD PUSH2 0x3E1F SWAP2 SWAP1 PUSH2 0x4BB7 JUMP JUMPDEST PUSH2 0x3E29 SWAP2 SWAP1 PUSH2 0x4BB7 JUMP JUMPDEST PUSH2 0x3E33 SWAP2 SWAP1 PUSH2 0x4B86 JUMP JUMPDEST SWAP1 POP PUSH2 0x3E61 PUSH32 0xD04EC62D7B3D2DCB44C011F5B289881073058039E67A643DE4130C5DBC72193C PUSH1 0x0 SHL PUSH2 0x4183 JUMP JUMPDEST PUSH2 0x3E8D PUSH32 0x94B67186AF581A8C5C35FAE0E449ECD5D47AD32179D13DDDA1364EC6270C1B4 PUSH1 0x0 SHL PUSH2 0x4183 JUMP JUMPDEST PUSH1 0x0 JUMPDEST DUP3 MLOAD DUP2 LT ISZERO PUSH2 0x4072 JUMPI PUSH2 0x3EC5 PUSH32 0x836BAF79D905CAD5E2230D583369E383FBD0F7F3B4FDE67AA4805297AFDB6DF9 PUSH1 0x0 SHL PUSH2 0x4183 JUMP JUMPDEST PUSH2 0x3EF1 PUSH32 0x1893F5AA8F03842F92485FC3BFE746959DF4785F998E010E296BB63C5F2C65D7 PUSH1 0x0 SHL PUSH2 0x4183 JUMP JUMPDEST DUP3 DUP2 DUP2 MLOAD DUP2 LT PUSH2 0x3F2A JUMPI PUSH32 0x4E487B7100000000000000000000000000000000000000000000000000000000 PUSH1 0x0 MSTORE PUSH1 0x32 PUSH1 0x4 MSTORE PUSH1 0x24 PUSH1 0x0 REVERT JUMPDEST PUSH1 0x20 MUL PUSH1 0x20 ADD ADD MLOAD PUSH20 0xFFFFFFFFFFFFFFFFFFFFFFFFFFFFFFFFFFFFFFFF AND DUP6 PUSH32 0x1C2AE1F7E99DBBBFE25AAC964F3889EA68259D88B74709F53037A6FB930BB02A DUP5 PUSH1 0x40 MLOAD PUSH2 0x3F78 SWAP2 SWAP1 PUSH2 0x4A15 JUMP JUMPDEST PUSH1 0x40 MLOAD DUP1 SWAP2 SUB SWAP1 LOG3 PUSH2 0x3FAC PUSH32 0x1D6B2B9E6BD212199E3AA8841CDDE9CEB8553D8319A1D1F43598E6B428DFD27F PUSH1 0x0 SHL PUSH2 0x4183 JUMP JUMPDEST PUSH2 0x3FD8 PUSH32 0x95D7AE6E872F2197954A501046A9FFECEA1B1B07995A2D40DA4FA75230AE2E65 PUSH1 0x0 SHL PUSH2 0x4183 JUMP JUMPDEST DUP3 DUP2 DUP2 MLOAD DUP2 LT PUSH2 0x4011 JUMPI PUSH32 0x4E487B7100000000000000000000000000000000000000000000000000000000 PUSH1 0x0 MSTORE PUSH1 0x32 PUSH1 0x4 MSTORE PUSH1 0x24 PUSH1 0x0 REVERT JUMPDEST PUSH1 0x20 MUL PUSH1 0x20 ADD ADD MLOAD PUSH20 0xFFFFFFFFFFFFFFFFFFFFFFFFFFFFFFFFFFFFFFFF AND PUSH2 0x8FC DUP4 SWAP1 DUP2 ISZERO MUL SWAP1 PUSH1 0x40 MLOAD PUSH1 0x0 PUSH1 0x40 MLOAD DUP1 DUP4 SUB DUP2 DUP6 DUP9 DUP9 CALL SWAP4 POP POP POP POP ISZERO DUP1 ISZERO PUSH2 0x405E JUMPI RETURNDATASIZE PUSH1 0x0 DUP1 RETURNDATACOPY RETURNDATASIZE PUSH1 0x0 REVERT JUMPDEST POP DUP1 DUP1 PUSH2 0x406A SWAP1 PUSH2 0x4CD2 JUMP JUMPDEST SWAP2 POP POP PUSH2 0x3E90 JUMP JUMPDEST POP PUSH2 0x409F PUSH32 0x99B78F03A0E62799FEA02F9B820FBF004FE97E0F1083F288AA210B9E9FB4B61 PUSH1 0x0 SHL PUSH2 0x4183 JUMP JUMPDEST PUSH2 0x40CB PUSH32 0x7ADEE266636832CE72D4747A14F04F6DBF87F01130B43791B3D39A3FEC1D7301 PUSH1 0x0 SHL PUSH2 0x4183 JUMP JUMPDEST PUSH1 0x64 PUSH1 0x3 SLOAD PUSH1 0x2 SLOAD PUSH1 0x0 DUP1 DUP9 DUP2 MSTORE PUSH1 0x20 ADD SWAP1 DUP2 MSTORE PUSH1 0x20 ADD PUSH1 0x0 KECCAK256 PUSH1 0x3 ADD SLOAD PUSH2 0x40F3 SWAP2 SWAP1 PUSH2 0x4BB7 JUMP JUMPDEST PUSH2 0x40FD SWAP2 SWAP1 PUSH2 0x4BB7 JUMP JUMPDEST PUSH2 0x4107 SWAP2 SWAP1 PUSH2 0x4B86 JUMP JUMPDEST PUSH1 0x4 PUSH1 0x0 DUP3 DUP3 SLOAD PUSH2 0x4118 SWAP2 SWAP1 PUSH2 0x4B30 JUMP JUMPDEST SWAP3 POP POP DUP2 SWAP1 SSTORE POP PUSH2 0x414B PUSH32 0xFB8F9509C560A223E1744080A518BB06517D3ED5DA056A1F6315ED365656ADB4 PUSH1 0x0 SHL PUSH2 0x4183 JUMP JUMPDEST PUSH2 0x4177 PUSH32 0x5151A0CDE136FB5DABFAF8C264F5153ED1B9487209684CD235ED6CE0E629505B PUSH1 0x0 SHL PUSH2 0x4183 JUMP JUMPDEST PUSH1 0x1 SWAP3 POP POP POP JUMPDEST SWAP2 SWAP1 POP JUMP JUMPDEST POP JUMP JUMPDEST PUSH1 0x40 MLOAD DUP1 PUSH1 0x40 ADD PUSH1 0x40 MSTORE DUP1 PUSH1 0x0 PUSH20 0xFFFFFFFFFFFFFFFFFFFFFFFFFFFFFFFFFFFFFFFF AND DUP2 MSTORE PUSH1 0x20 ADD PUSH1 0x0 DUP2 MSTORE POP SWAP1 JUMP JUMPDEST PUSH1 0x0 PUSH2 0x41C9 PUSH2 0x41C4 DUP5 PUSH2 0x4A55 JUMP JUMPDEST PUSH2 0x4A30 JUMP JUMPDEST SWAP1 POP DUP1 DUP4 DUP3 MSTORE PUSH1 0x20 DUP3 ADD SWAP1 POP DUP3 DUP6 PUSH1 0x20 DUP7 MUL DUP3 ADD GT ISZERO PUSH2 0x41E8 JUMPI PUSH1 0x0 DUP1 REVERT JUMPDEST PUSH1 0x0 JUMPDEST DUP6 DUP2 LT ISZERO PUSH2 0x4218 JUMPI DUP2 PUSH2 0x41FE DUP9 DUP3 PUSH2 0x428E JUMP JUMPDEST DUP5 MSTORE PUSH1 0x20 DUP5 ADD SWAP4 POP PUSH1 0x20 DUP4 ADD SWAP3 POP POP PUSH1 0x1 DUP2 ADD SWAP1 POP PUSH2 0x41EB JUMP JUMPDEST POP POP POP SWAP4 SWAP3 POP POP POP JUMP JUMPDEST PUSH1 0x0 PUSH2 0x4235 PUSH2 0x4230 DUP5 PUSH2 0x4A81 JUMP JUMPDEST PUSH2 0x4A30 JUMP JUMPDEST SWAP1 POP DUP1 DUP4 DUP3 MSTORE PUSH1 0x20 DUP3 ADD SWAP1 POP DUP3 DUP6 PUSH1 0x20 DUP7 MUL DUP3 ADD GT ISZERO PUSH2 0x4254 JUMPI PUSH1 0x0 DUP1 REVERT JUMPDEST PUSH1 0x0 JUMPDEST DUP6 DUP2 LT ISZERO PUSH2 0x4284 JUMPI DUP2 PUSH2 0x426A DUP9 DUP3 PUSH2 0x42F7 JUMP JUMPDEST DUP5 MSTORE PUSH1 0x20 DUP5 ADD SWAP4 POP PUSH1 0x20 DUP4 ADD SWAP3 POP POP PUSH1 0x1 DUP2 ADD SWAP1 POP PUSH2 0x4257 JUMP JUMPDEST POP POP POP SWAP4 SWAP3 POP POP POP JUMP JUMPDEST PUSH1 0x0 DUP2 CALLDATALOAD SWAP1 POP PUSH2 0x429D DUP2 PUSH2 0x5069 JUMP JUMPDEST SWAP3 SWAP2 POP POP JUMP JUMPDEST PUSH1 0x0 DUP3 PUSH1 0x1F DUP4 ADD SLT PUSH2 0x42B4 JUMPI PUSH1 0x0 DUP1 REVERT JUMPDEST DUP2 CALLDATALOAD PUSH2 0x42C4 DUP5 DUP3 PUSH1 0x20 DUP7 ADD PUSH2 0x41B6 JUMP JUMPDEST SWAP2 POP POP SWAP3 SWAP2 POP POP JUMP JUMPDEST PUSH1 0x0 DUP3 PUSH1 0x1F DUP4 ADD SLT PUSH2 0x42DE JUMPI PUSH1 0x0 DUP1 REVERT JUMPDEST DUP2 CALLDATALOAD PUSH2 0x42EE DUP5 DUP3 PUSH1 0x20 DUP7 ADD PUSH2 0x4222 JUMP JUMPDEST SWAP2 POP POP SWAP3 SWAP2 POP POP JUMP JUMPDEST PUSH1 0x0 DUP2 CALLDATALOAD SWAP1 POP PUSH2 0x4306 DUP2 PUSH2 0x5080 JUMP JUMPDEST SWAP3 SWAP2 POP POP JUMP JUMPDEST PUSH1 0x0 DUP2 CALLDATALOAD SWAP1 POP PUSH2 0x431B DUP2 PUSH2 0x5097 JUMP JUMPDEST SWAP3 SWAP2 POP POP JUMP JUMPDEST PUSH1 0x0 PUSH1 0x20 DUP3 DUP5 SUB SLT ISZERO PUSH2 0x4333 JUMPI PUSH1 0x0 DUP1 REVERT JUMPDEST PUSH1 0x0 PUSH2 0x4341 DUP5 DUP3 DUP6 ADD PUSH2 0x430C JUMP JUMPDEST SWAP2 POP POP SWAP3 SWAP2 POP POP JUMP JUMPDEST PUSH1 0x0 DUP1 PUSH1 0x40 DUP4 DUP6 SUB SLT ISZERO PUSH2 0x435D JUMPI PUSH1 0x0 DUP1 REVERT JUMPDEST PUSH1 0x0 PUSH2 0x436B DUP6 DUP3 DUP7 ADD PUSH2 0x430C JUMP JUMPDEST SWAP3 POP POP PUSH1 0x20 PUSH2 0x437C DUP6 DUP3 DUP7 ADD PUSH2 0x428E JUMP JUMPDEST SWAP2 POP POP SWAP3 POP SWAP3 SWAP1 POP JUMP JUMPDEST PUSH1 0x0 DUP1 PUSH1 0x0 PUSH1 0x60 DUP5 DUP7 SUB SLT ISZERO PUSH2 0x439B JUMPI PUSH1 0x0 DUP1 REVERT JUMPDEST PUSH1 0x0 PUSH2 0x43A9 DUP7 DUP3 DUP8 ADD PUSH2 0x430C JUMP JUMPDEST SWAP4 POP POP PUSH1 0x20 DUP5 ADD CALLDATALOAD PUSH8 0xFFFFFFFFFFFFFFFF DUP2 GT ISZERO PUSH2 0x43C6 JUMPI PUSH1 0x0 DUP1 REVERT JUMPDEST PUSH2 0x43D2 DUP7 DUP3 DUP8 ADD PUSH2 0x42A3 JUMP JUMPDEST SWAP3 POP POP PUSH1 0x40 DUP5 ADD CALLDATALOAD PUSH8 0xFFFFFFFFFFFFFFFF DUP2 GT ISZERO PUSH2 0x43EF JUMPI PUSH1 0x0 DUP1 REVERT JUMPDEST PUSH2 0x43FB DUP7 DUP3 DUP8 ADD PUSH2 0x42CD JUMP JUMPDEST SWAP2 POP POP SWAP3 POP SWAP3 POP SWAP3 JUMP JUMPDEST PUSH1 0x0 DUP1 PUSH1 0x40 DUP4 DUP6 SUB SLT ISZERO PUSH2 0x4418 JUMPI PUSH1 0x0 DUP1 REVERT JUMPDEST PUSH1 0x0 PUSH2 0x4426 DUP6 DUP3 DUP7 ADD PUSH2 0x430C JUMP JUMPDEST SWAP3 POP POP PUSH1 0x20 PUSH2 0x4437 DUP6 DUP3 DUP7 ADD PUSH2 0x42F7 JUMP JUMPDEST SWAP2 POP POP SWAP3 POP SWAP3 SWAP1 POP JUMP JUMPDEST PUSH1 0x0 PUSH2 0x444D DUP4 DUP4 PUSH2 0x4471 JUMP JUMPDEST PUSH1 0x20 DUP4 ADD SWAP1 POP SWAP3 SWAP2 POP POP JUMP JUMPDEST PUSH1 0x0 PUSH2 0x4465 DUP4 DUP4 PUSH2 0x4744 JUMP JUMPDEST PUSH1 0x40 DUP4 ADD SWAP1 POP SWAP3 SWAP2 POP POP JUMP JUMPDEST PUSH2 0x447A DUP2 PUSH2 0x4C45 JUMP JUMPDEST DUP3 MSTORE POP POP JUMP JUMPDEST PUSH1 0x0 PUSH2 0x448B DUP3 PUSH2 0x4ACD JUMP JUMPDEST PUSH2 0x4495 DUP2 DUP6 PUSH2 0x4AFD JUMP JUMPDEST SWAP4 POP PUSH2 0x44A0 DUP4 PUSH2 0x4AAD JUMP JUMPDEST DUP1 PUSH1 0x0 JUMPDEST DUP4 DUP2 LT ISZERO PUSH2 0x44D1 JUMPI DUP2 MLOAD PUSH2 0x44B8 DUP9 DUP3 PUSH2 0x4441 JUMP JUMPDEST SWAP8 POP PUSH2 0x44C3 DUP4 PUSH2 0x4AE3 JUMP JUMPDEST SWAP3 POP POP PUSH1 0x1 DUP2 ADD SWAP1 POP PUSH2 0x44A4 JUMP JUMPDEST POP DUP6 SWAP4 POP POP POP POP SWAP3 SWAP2 POP POP JUMP JUMPDEST PUSH1 0x0 PUSH2 0x44E9 DUP3 PUSH2 0x4AD8 JUMP JUMPDEST PUSH2 0x44F3 DUP2 DUP6 PUSH2 0x4B0E JUMP JUMPDEST SWAP4 POP PUSH2 0x44FE DUP4 PUSH2 0x4ABD JUMP JUMPDEST DUP1 PUSH1 0x0 JUMPDEST DUP4 DUP2 LT ISZERO PUSH2 0x452F JUMPI DUP2 MLOAD PUSH2 0x4516 DUP9 DUP3 PUSH2 0x4459 JUMP JUMPDEST SWAP8 POP PUSH2 0x4521 DUP4 PUSH2 0x4AF0 JUMP JUMPDEST SWAP3 POP POP PUSH1 0x1 DUP2 ADD SWAP1 POP PUSH2 0x4502 JUMP JUMPDEST POP DUP6 SWAP4 POP POP POP POP SWAP3 SWAP2 POP POP JUMP JUMPDEST PUSH2 0x4545 DUP2 PUSH2 0x4C57 JUMP JUMPDEST DUP3 MSTORE POP POP JUMP JUMPDEST PUSH2 0x4554 DUP2 PUSH2 0x4C6D JUMP JUMPDEST DUP3 MSTORE POP POP JUMP JUMPDEST PUSH1 0x0 PUSH2 0x4567 PUSH1 0xF DUP4 PUSH2 0x4B1F JUMP JUMPDEST SWAP2 POP PUSH2 0x4572 DUP3 PUSH2 0x4DB9 JUMP JUMPDEST PUSH1 0x20 DUP3 ADD SWAP1 POP SWAP2 SWAP1 POP JUMP JUMPDEST PUSH1 0x0 PUSH2 0x458A PUSH1 0x15 DUP4 PUSH2 0x4B1F JUMP JUMPDEST SWAP2 POP PUSH2 0x4595 DUP3 PUSH2 0x4DE2 JUMP JUMPDEST PUSH1 0x20 DUP3 ADD SWAP1 POP SWAP2 SWAP1 POP JUMP JUMPDEST PUSH1 0x0 PUSH2 0x45AD PUSH1 0x12 DUP4 PUSH2 0x4B1F JUMP JUMPDEST SWAP2 POP PUSH2 0x45B8 DUP3 PUSH2 0x4E0B JUMP JUMPDEST PUSH1 0x20 DUP3 ADD SWAP1 POP SWAP2 SWAP1 POP JUMP JUMPDEST PUSH1 0x0 PUSH2 0x45D0 PUSH1 0x1B DUP4 PUSH2 0x4B1F JUMP JUMPDEST SWAP2 POP PUSH2 0x45DB DUP3 PUSH2 0x4E34 JUMP JUMPDEST PUSH1 0x20 DUP3 ADD SWAP1 POP SWAP2 SWAP1 POP JUMP JUMPDEST PUSH1 0x0 PUSH2 0x45F3 PUSH1 0x17 DUP4 PUSH2 0x4B1F JUMP JUMPDEST SWAP2 POP PUSH2 0x45FE DUP3 PUSH2 0x4E5D JUMP JUMPDEST PUSH1 0x20 DUP3 ADD SWAP1 POP SWAP2 SWAP1 POP JUMP JUMPDEST PUSH1 0x0 PUSH2 0x4616 PUSH1 0x19 DUP4 PUSH2 0x4B1F JUMP JUMPDEST SWAP2 POP PUSH2 0x4621 DUP3 PUSH2 0x4E86 JUMP JUMPDEST PUSH1 0x20 DUP3 ADD SWAP1 POP SWAP2 SWAP1 POP JUMP JUMPDEST PUSH1 0x0 PUSH2 0x4639 PUSH1 0x17 DUP4 PUSH2 0x4B1F JUMP JUMPDEST SWAP2 POP PUSH2 0x4644 DUP3 PUSH2 0x4EAF JUMP JUMPDEST PUSH1 0x20 DUP3 ADD SWAP1 POP SWAP2 SWAP1 POP JUMP JUMPDEST PUSH1 0x0 PUSH2 0x465C PUSH1 0x1D DUP4 PUSH2 0x4B1F JUMP JUMPDEST SWAP2 POP PUSH2 0x4667 DUP3 PUSH2 0x4ED8 JUMP JUMPDEST PUSH1 0x20 DUP3 ADD SWAP1 POP SWAP2 SWAP1 POP JUMP JUMPDEST PUSH1 0x0 PUSH2 0x467F PUSH1 0x1F DUP4 PUSH2 0x4B1F JUMP JUMPDEST SWAP2 POP PUSH2 0x468A DUP3 PUSH2 0x4F01 JUMP JUMPDEST PUSH1 0x20 DUP3 ADD SWAP1 POP SWAP2 SWAP1 POP JUMP JUMPDEST PUSH1 0x0 PUSH2 0x46A2 PUSH1 0x2D DUP4 PUSH2 0x4B1F JUMP JUMPDEST SWAP2 POP PUSH2 0x46AD DUP3 PUSH2 0x4F2A JUMP JUMPDEST PUSH1 0x40 DUP3 ADD SWAP1 POP SWAP2 SWAP1 POP JUMP JUMPDEST PUSH1 0x0 PUSH2 0x46C5 PUSH1 0x30 DUP4 PUSH2 0x4B1F JUMP JUMPDEST SWAP2 POP PUSH2 0x46D0 DUP3 PUSH2 0x4F79 JUMP JUMPDEST PUSH1 0x40 DUP3 ADD SWAP1 POP SWAP2 SWAP1 POP JUMP JUMPDEST PUSH1 0x0 PUSH2 0x46E8 PUSH1 0x12 DUP4 PUSH2 0x4B1F JUMP JUMPDEST SWAP2 POP PUSH2 0x46F3 DUP3 PUSH2 0x4FC8 JUMP JUMPDEST PUSH1 0x20 DUP3 ADD SWAP1 POP SWAP2 SWAP1 POP JUMP JUMPDEST PUSH1 0x0 PUSH2 0x470B PUSH1 0x22 DUP4 PUSH2 0x4B1F JUMP JUMPDEST SWAP2 POP PUSH2 0x4716 DUP3 PUSH2 0x4FF1 JUMP JUMPDEST PUSH1 0x40 DUP3 ADD SWAP1 POP SWAP2 SWAP1 POP JUMP JUMPDEST PUSH1 0x0 PUSH2 0x472E PUSH1 0x14 DUP4 PUSH2 0x4B1F JUMP JUMPDEST SWAP2 POP PUSH2 0x4739 DUP3 PUSH2 0x5040 JUMP JUMPDEST PUSH1 0x20 DUP3 ADD SWAP1 POP SWAP2 SWAP1 POP JUMP JUMPDEST PUSH1 0x40 DUP3 ADD PUSH1 0x0 DUP3 ADD MLOAD PUSH2 0x475A PUSH1 0x0 DUP6 ADD DUP3 PUSH2 0x4471 JUMP JUMPDEST POP PUSH1 0x20 DUP3 ADD MLOAD PUSH2 0x476D PUSH1 0x20 DUP6 ADD DUP3 PUSH2 0x47A2 JUMP JUMPDEST POP POP POP POP JUMP JUMPDEST PUSH1 0x40 DUP3 ADD PUSH1 0x0 DUP3 ADD MLOAD PUSH2 0x4789 PUSH1 0x0 DUP6 ADD DUP3 PUSH2 0x4471 JUMP JUMPDEST POP PUSH1 0x20 DUP3 ADD MLOAD PUSH2 0x479C PUSH1 0x20 DUP6 ADD DUP3 PUSH2 0x47A2 JUMP JUMPDEST POP POP POP POP JUMP JUMPDEST PUSH2 0x47AB DUP2 PUSH2 0x4C97 JUMP JUMPDEST DUP3 MSTORE POP POP JUMP JUMPDEST PUSH2 0x47BA DUP2 PUSH2 0x4C97 JUMP JUMPDEST DUP3 MSTORE POP POP JUMP JUMPDEST PUSH1 0x0 PUSH1 0x20 DUP3 ADD SWAP1 POP DUP2 DUP2 SUB PUSH1 0x0 DUP4 ADD MSTORE PUSH2 0x47DA DUP2 DUP5 PUSH2 0x4480 JUMP JUMPDEST SWAP1 POP SWAP3 SWAP2 POP POP JUMP JUMPDEST PUSH1 0x0 PUSH1 0x20 DUP3 ADD SWAP1 POP DUP2 DUP2 SUB PUSH1 0x0 DUP4 ADD MSTORE PUSH2 0x47FC DUP2 DUP5 PUSH2 0x44DE JUMP JUMPDEST SWAP1 POP SWAP3 SWAP2 POP POP JUMP JUMPDEST PUSH1 0x0 PUSH1 0x20 DUP3 ADD SWAP1 POP PUSH2 0x4819 PUSH1 0x0 DUP4 ADD DUP5 PUSH2 0x453C JUMP JUMPDEST SWAP3 SWAP2 POP POP JUMP JUMPDEST PUSH1 0x0 PUSH1 0x20 DUP3 ADD SWAP1 POP PUSH2 0x4834 PUSH1 0x0 DUP4 ADD DUP5 PUSH2 0x454B JUMP JUMPDEST SWAP3 SWAP2 POP POP JUMP JUMPDEST PUSH1 0x0 PUSH1 0x20 DUP3 ADD SWAP1 POP DUP2 DUP2 SUB PUSH1 0x0 DUP4 ADD MSTORE PUSH2 0x4853 DUP2 PUSH2 0x455A JUMP JUMPDEST SWAP1 POP SWAP2 SWAP1 POP JUMP JUMPDEST PUSH1 0x0 PUSH1 0x20 DUP3 ADD SWAP1 POP DUP2 DUP2 SUB PUSH1 0x0 DUP4 ADD MSTORE PUSH2 0x4873 DUP2 PUSH2 0x457D JUMP JUMPDEST SWAP1 POP SWAP2 SWAP1 POP JUMP JUMPDEST PUSH1 0x0 PUSH1 0x20 DUP3 ADD SWAP1 POP DUP2 DUP2 SUB PUSH1 0x0 DUP4 ADD MSTORE PUSH2 0x4893 DUP2 PUSH2 0x45A0 JUMP JUMPDEST SWAP1 POP SWAP2 SWAP1 POP JUMP JUMPDEST PUSH1 0x0 PUSH1 0x20 DUP3 ADD SWAP1 POP DUP2 DUP2 SUB PUSH1 0x0 DUP4 ADD MSTORE PUSH2 0x48B3 DUP2 PUSH2 0x45C3 JUMP JUMPDEST SWAP1 POP SWAP2 SWAP1 POP JUMP JUMPDEST PUSH1 0x0 PUSH1 0x20 DUP3 ADD SWAP1 POP DUP2 DUP2 SUB PUSH1 0x0 DUP4 ADD MSTORE PUSH2 0x48D3 DUP2 PUSH2 0x45E6 JUMP JUMPDEST SWAP1 POP SWAP2 SWAP1 POP JUMP JUMPDEST PUSH1 0x0 PUSH1 0x20 DUP3 ADD SWAP1 POP DUP2 DUP2 SUB PUSH1 0x0 DUP4 ADD MSTORE PUSH2 0x48F3 DUP2 PUSH2 0x4609 JUMP JUMPDEST SWAP1 POP SWAP2 SWAP1 POP JUMP JUMPDEST PUSH1 0x0 PUSH1 0x20 DUP3 ADD SWAP1 POP DUP2 DUP2 SUB PUSH1 0x0 DUP4 ADD MSTORE PUSH2 0x4913 DUP2 PUSH2 0x462C JUMP JUMPDEST SWAP1 POP SWAP2 SWAP1 POP JUMP JUMPDEST PUSH1 0x0 PUSH1 0x20 DUP3 ADD SWAP1 POP DUP2 DUP2 SUB PUSH1 0x0 DUP4 ADD MSTORE PUSH2 0x4933 DUP2 PUSH2 0x464F JUMP JUMPDEST SWAP1 POP SWAP2 SWAP1 POP JUMP JUMPDEST PUSH1 0x0 PUSH1 0x20 DUP3 ADD SWAP1 POP DUP2 DUP2 SUB PUSH1 0x0 DUP4 ADD MSTORE PUSH2 0x4953 DUP2 PUSH2 0x4672 JUMP JUMPDEST SWAP1 POP SWAP2 SWAP1 POP JUMP JUMPDEST PUSH1 0x0 PUSH1 0x20 DUP3 ADD SWAP1 POP DUP2 DUP2 SUB PUSH1 0x0 DUP4 ADD MSTORE PUSH2 0x4973 DUP2 PUSH2 0x4695 JUMP JUMPDEST SWAP1 POP SWAP2 SWAP1 POP JUMP JUMPDEST PUSH1 0x0 PUSH1 0x20 DUP3 ADD SWAP1 POP DUP2 DUP2 SUB PUSH1 0x0 DUP4 ADD MSTORE PUSH2 0x4993 DUP2 PUSH2 0x46B8 JUMP JUMPDEST SWAP1 POP SWAP2 SWAP1 POP JUMP JUMPDEST PUSH1 0x0 PUSH1 0x20 DUP3 ADD SWAP1 POP DUP2 DUP2 SUB PUSH1 0x0 DUP4 ADD MSTORE PUSH2 0x49B3 DUP2 PUSH2 0x46DB JUMP JUMPDEST SWAP1 POP SWAP2 SWAP1 POP JUMP JUMPDEST PUSH1 0x0 PUSH1 0x20 DUP3 ADD SWAP1 POP DUP2 DUP2 SUB PUSH1 0x0 DUP4 ADD MSTORE PUSH2 0x49D3 DUP2 PUSH2 0x46FE JUMP JUMPDEST SWAP1 POP SWAP2 SWAP1 POP JUMP JUMPDEST PUSH1 0x0 PUSH1 0x20 DUP3 ADD SWAP1 POP DUP2 DUP2 SUB PUSH1 0x0 DUP4 ADD MSTORE PUSH2 0x49F3 DUP2 PUSH2 0x4721 JUMP JUMPDEST SWAP1 POP SWAP2 SWAP1 POP JUMP JUMPDEST PUSH1 0x0 PUSH1 0x40 DUP3 ADD SWAP1 POP PUSH2 0x4A0F PUSH1 0x0 DUP4 ADD DUP5 PUSH2 0x4773 JUMP JUMPDEST SWAP3 SWAP2 POP POP JUMP JUMPDEST PUSH1 0x0 PUSH1 0x20 DUP3 ADD SWAP1 POP PUSH2 0x4A2A PUSH1 0x0 DUP4 ADD DUP5 PUSH2 0x47B1 JUMP JUMPDEST SWAP3 SWAP2 POP POP JUMP JUMPDEST PUSH1 0x0 PUSH2 0x4A3A PUSH2 0x4A4B JUMP JUMPDEST SWAP1 POP PUSH2 0x4A46 DUP3 DUP3 PUSH2 0x4CA1 JUMP JUMPDEST SWAP2 SWAP1 POP JUMP JUMPDEST PUSH1 0x0 PUSH1 0x40 MLOAD SWAP1 POP SWAP1 JUMP JUMPDEST PUSH1 0x0 PUSH8 0xFFFFFFFFFFFFFFFF DUP3 GT ISZERO PUSH2 0x4A70 JUMPI PUSH2 0x4A6F PUSH2 0x4D79 JUMP JUMPDEST JUMPDEST PUSH1 0x20 DUP3 MUL SWAP1 POP PUSH1 0x20 DUP2 ADD SWAP1 POP SWAP2 SWAP1 POP JUMP JUMPDEST PUSH1 0x0 PUSH8 0xFFFFFFFFFFFFFFFF DUP3 GT ISZERO PUSH2 0x4A9C JUMPI PUSH2 0x4A9B PUSH2 0x4D79 JUMP JUMPDEST JUMPDEST PUSH1 0x20 DUP3 MUL SWAP1 POP PUSH1 0x20 DUP2 ADD SWAP1 POP SWAP2 SWAP1 POP JUMP JUMPDEST PUSH1 0x0 DUP2 SWAP1 POP PUSH1 0x20 DUP3 ADD SWAP1 POP SWAP2 SWAP1 POP JUMP JUMPDEST PUSH1 0x0 DUP2 SWAP1 POP PUSH1 0x20 DUP3 ADD SWAP1 POP SWAP2 SWAP1 POP JUMP JUMPDEST PUSH1 0x0 DUP2 MLOAD SWAP1 POP SWAP2 SWAP1 POP JUMP JUMPDEST PUSH1 0x0 DUP2 MLOAD SWAP1 POP SWAP2 SWAP1 POP JUMP JUMPDEST PUSH1 0x0 PUSH1 0x20 DUP3 ADD SWAP1 POP SWAP2 SWAP1 POP JUMP JUMPDEST PUSH1 0x0 PUSH1 0x20 DUP3 ADD SWAP1 POP SWAP2 SWAP1 POP JUMP JUMPDEST PUSH1 0x0 DUP3 DUP3 MSTORE PUSH1 0x20 DUP3 ADD SWAP1 POP SWAP3 SWAP2 POP POP JUMP JUMPDEST PUSH1 0x0 DUP3 DUP3 MSTORE PUSH1 0x20 DUP3 ADD SWAP1 POP SWAP3 SWAP2 POP POP JUMP JUMPDEST PUSH1 0x0 DUP3 DUP3 MSTORE PUSH1 0x20 DUP3 ADD SWAP1 POP SWAP3 SWAP2 POP POP JUMP JUMPDEST PUSH1 0x0 PUSH2 0x4B3B DUP3 PUSH2 0x4C97 JUMP JUMPDEST SWAP2 POP PUSH2 0x4B46 DUP4 PUSH2 0x4C97 JUMP JUMPDEST SWAP3 POP DUP3 PUSH32 0xFFFFFFFFFFFFFFFFFFFFFFFFFFFFFFFFFFFFFFFFFFFFFFFFFFFFFFFFFFFFFFFF SUB DUP3 GT ISZERO PUSH2 0x4B7B JUMPI PUSH2 0x4B7A PUSH2 0x4D1B JUMP JUMPDEST JUMPDEST DUP3 DUP3 ADD SWAP1 POP SWAP3 SWAP2 POP POP JUMP JUMPDEST PUSH1 0x0 PUSH2 0x4B91 DUP3 PUSH2 0x4C97 JUMP JUMPDEST SWAP2 POP PUSH2 0x4B9C DUP4 PUSH2 0x4C97 JUMP JUMPDEST SWAP3 POP DUP3 PUSH2 0x4BAC JUMPI PUSH2 0x4BAB PUSH2 0x4D4A JUMP JUMPDEST JUMPDEST DUP3 DUP3 DIV SWAP1 POP SWAP3 SWAP2 POP POP JUMP JUMPDEST PUSH1 0x0 PUSH2 0x4BC2 DUP3 PUSH2 0x4C97 JUMP JUMPDEST SWAP2 POP PUSH2 0x4BCD DUP4 PUSH2 0x4C97 JUMP JUMPDEST SWAP3 POP DUP2 PUSH32 0xFFFFFFFFFFFFFFFFFFFFFFFFFFFFFFFFFFFFFFFFFFFFFFFFFFFFFFFFFFFFFFFF DIV DUP4 GT DUP3 ISZERO ISZERO AND ISZERO PUSH2 0x4C06 JUMPI PUSH2 0x4C05 PUSH2 0x4D1B JUMP JUMPDEST JUMPDEST DUP3 DUP3 MUL SWAP1 POP SWAP3 SWAP2 POP POP JUMP JUMPDEST PUSH1 0x0 PUSH2 0x4C1C DUP3 PUSH2 0x4C97 JUMP JUMPDEST SWAP2 POP PUSH2 0x4C27 DUP4 PUSH2 0x4C97 JUMP JUMPDEST SWAP3 POP DUP3 DUP3 LT ISZERO PUSH2 0x4C3A JUMPI PUSH2 0x4C39 PUSH2 0x4D1B JUMP JUMPDEST JUMPDEST DUP3 DUP3 SUB SWAP1 POP SWAP3 SWAP2 POP POP JUMP JUMPDEST PUSH1 0x0 PUSH2 0x4C50 DUP3 PUSH2 0x4C77 JUMP JUMPDEST SWAP1 POP SWAP2 SWAP1 POP JUMP JUMPDEST PUSH1 0x0 DUP2 ISZERO ISZERO SWAP1 POP SWAP2 SWAP1 POP JUMP JUMPDEST PUSH1 0x0 DUP2 SWAP1 POP SWAP2 SWAP1 POP JUMP JUMPDEST PUSH1 0x0 DUP2 SWAP1 POP SWAP2 SWAP1 POP JUMP JUMPDEST PUSH1 0x0 PUSH20 0xFFFFFFFFFFFFFFFFFFFFFFFFFFFFFFFFFFFFFFFF DUP3 AND SWAP1 POP SWAP2 SWAP1 POP JUMP JUMPDEST PUSH1 0x0 DUP2 SWAP1 POP SWAP2 SWAP1 POP JUMP JUMPDEST PUSH2 0x4CAA DUP3 PUSH2 0x4DA8 JUMP JUMPDEST DUP2 ADD DUP2 DUP2 LT PUSH8 0xFFFFFFFFFFFFFFFF DUP3 GT OR ISZERO PUSH2 0x4CC9 JUMPI PUSH2 0x4CC8 PUSH2 0x4D79 JUMP JUMPDEST JUMPDEST DUP1 PUSH1 0x40 MSTORE POP POP POP JUMP JUMPDEST PUSH1 0x0 PUSH2 0x4CDD DUP3 PUSH2 0x4C97 JUMP JUMPDEST SWAP2 POP PUSH32 0xFFFFFFFFFFFFFFFFFFFFFFFFFFFFFFFFFFFFFFFFFFFFFFFFFFFFFFFFFFFFFFFF DUP3 EQ ISZERO PUSH2 0x4D10 JUMPI PUSH2 0x4D0F PUSH2 0x4D1B JUMP JUMPDEST JUMPDEST PUSH1 0x1 DUP3 ADD SWAP1 POP SWAP2 SWAP1 POP JUMP JUMPDEST PUSH32 0x4E487B7100000000000000000000000000000000000000000000000000000000 PUSH1 0x0 MSTORE PUSH1 0x11 PUSH1 0x4 MSTORE PUSH1 0x24 PUSH1 0x0 REVERT JUMPDEST PUSH32 0x4E487B7100000000000000000000000000000000000000000000000000000000 PUSH1 0x0 MSTORE PUSH1 0x12 PUSH1 0x4 MSTORE PUSH1 0x24 PUSH1 0x0 REVERT JUMPDEST PUSH32 0x4E487B7100000000000000000000000000000000000000000000000000000000 PUSH1 0x0 MSTORE PUSH1 0x41 PUSH1 0x4 MSTORE PUSH1 0x24 PUSH1 0x0 REVERT JUMPDEST PUSH1 0x0 PUSH1 0x1F NOT PUSH1 0x1F DUP4 ADD AND SWAP1 POP SWAP2 SWAP1 POP JUMP JUMPDEST PUSH32 0x4E6F207375636820766F74696E67210000000000000000000000000000000000 PUSH1 0x0 DUP3 ADD MSTORE POP JUMP JUMPDEST PUSH32 0x596F7520617265206E6F7420616E206F776E6572210000000000000000000000 PUSH1 0x0 DUP3 ADD MSTORE POP JUMP JUMPDEST PUSH32 0x5468697320766F7465206973206F766572210000000000000000000000000000 PUSH1 0x0 DUP3 ADD MSTORE POP JUMP JUMPDEST PUSH32 0x596F752063616E7420766F746520666F7220796F757273656C66210000000000 PUSH1 0x0 DUP3 ADD MSTORE POP JUMP JUMPDEST PUSH32 0x596F75206861766520616C726561647920766F74656421000000000000000000 PUSH1 0x0 DUP3 ADD MSTORE POP JUMP JUMPDEST PUSH32 0x43616E74207769746864726177206E756C6C2076616C75652100000000000000 PUSH1 0x0 DUP3 ADD MSTORE POP JUMP JUMPDEST PUSH32 0x43616E742066696E69736820766F74696E672079657421000000000000000000 PUSH1 0x0 DUP3 ADD MSTORE POP JUMP JUMPDEST PUSH32 0x56616C7565206973206F7574206F6620667265652062616C616E636521000000 PUSH1 0x0 DUP3 ADD MSTORE POP JUMP JUMPDEST PUSH32 0x417272617973206D757374206265207468652073616D65206C656E6774682100 PUSH1 0x0 DUP3 ADD MSTORE POP JUMP JUMPDEST PUSH32 0x5468652076616C756520646F6573206E6F74206D617463682074686520707269 PUSH1 0x0 DUP3 ADD MSTORE PUSH32 0x7365206F6620766F74696E672100000000000000000000000000000000000000 PUSH1 0x20 DUP3 ADD MSTORE POP JUMP JUMPDEST PUSH32 0x456E7465722074686520696E646578206F662074686520766F74652120496E64 PUSH1 0x0 DUP3 ADD MSTORE PUSH32 0x65782063616E74206265206E756C6C2100000000000000000000000000000000 PUSH1 0x20 DUP3 ADD MSTORE POP JUMP JUMPDEST PUSH32 0x4E6F20737563682063616E646964617465210000000000000000000000000000 PUSH1 0x0 DUP3 ADD MSTORE POP JUMP JUMPDEST PUSH32 0x4D7573742068617665206174206C656173742074776F2063616E646964617465 PUSH1 0x0 DUP3 ADD MSTORE PUSH32 0x7321000000000000000000000000000000000000000000000000000000000000 PUSH1 0x20 DUP3 ADD MSTORE POP JUMP JUMPDEST PUSH32 0x5468697320696E6465782069732074616B656E21000000000000000000000000 PUSH1 0x0 DUP3 ADD MSTORE POP JUMP JUMPDEST PUSH2 0x5072 DUP2 PUSH2 0x4C45 JUMP JUMPDEST DUP2 EQ PUSH2 0x507D JUMPI PUSH1 0x0 DUP1 REVERT JUMPDEST POP JUMP JUMPDEST PUSH2 0x5089 DUP2 PUSH2 0x4C63 JUMP JUMPDEST DUP2 EQ PUSH2 0x5094 JUMPI PUSH1 0x0 DUP1 REVERT JUMPDEST POP JUMP JUMPDEST PUSH2 0x50A0 DUP2 PUSH2 0x4C97 JUMP JUMPDEST DUP2 EQ PUSH2 0x50AB JUMPI PUSH1 0x0 DUP1 REVERT JUMPDEST POP JUMP INVALID LOG2 PUSH5 0x6970667358 0x22 SLT KECCAK256 0xD0 ORIGIN SLOAD MULMOD 0xAE SWAP4 EXTCODEHASH LOG4 0xCD SWAP4 CALLDATASIZE DUP5 0xC8 PUSH9 0x9B0ECC5486E25D277F 0xB3 OR JUMP PUSH28 0xD2F005650164736F6C63430008040033000000000000000000000000 "
        },
        "methodIdentifiers": {
          "addVote(uint256,address[],bytes32[])": "5977e867",
          "checkCandidate(uint256,bytes32)": "cdfcc591",
          "checkFinishVoting(uint256)": "ff110b06",
          "checkVote(uint256,address)": "26961777",
          "checkVoting(uint256)": "1c64b670",
          "comission()": "3a4b4532",
          "currentTime()": "d18e81b3",
          "destruct()": "2b68b9c6",
          "finishVote(uint256)": "e13646f0",
          "getBalance()": "12065fe0",
          "getCandidate(uint256,bytes32)": "2c7b1bd7",
          "getFreeBalance()": "e93c4f15",
          "getTimeLeft(uint256)": "e8c58763",
          "getVotingCandidates(uint256)": "be58b30e",
          "getWinners(uint256)": "6b1426a4",
          "vote(uint256,bytes32)": "68bb8bb6",
          "voteDuration()": "56364499",
          "votePrice()": "860c851a",
          "winners(uint256)": "a2fb1175",
          "withdraw(uint256)": "2e1a7d4d"
        }
      }
    }
  }
}