{
  "_format": "hh-sol-artifact-1",
  "contractName": "CryptonVoting",
  "sourceName": "contracts/Voting.sol",
  "abi": [
    {
      "inputs": [
        {
          "internalType": "uint256",
          "name": "_voteDuration",
          "type": "uint256"
        }
      ],
      "stateMutability": "nonpayable",
      "type": "constructor"
    },
    {
      "anonymous": false,
      "inputs": [
        {
          "indexed": true,
          "internalType": "address",
          "name": "_to",
          "type": "address"
        },
        {
          "indexed": false,
          "internalType": "uint256",
          "name": "_value",
          "type": "uint256"
        }
      ],
      "name": "Transfer",
      "type": "event"
    },
    {
      "anonymous": false,
      "inputs": [
        {
          "indexed": true,
          "internalType": "uint256",
          "name": "_voteIndex",
          "type": "uint256"
        },
        {
          "indexed": true,
          "internalType": "address",
          "name": "_winnerAddress",
          "type": "address"
        },
        {
          "indexed": false,
          "internalType": "uint256",
          "name": "_prize",
          "type": "uint256"
        }
      ],
      "name": "Winner",
      "type": "event"
    },
    {
      "inputs": [
        {
          "internalType": "uint256",
          "name": "_voteIndex",
          "type": "uint256"
        },
        {
          "internalType": "address[]",
          "name": "_candidatesAddresses",
          "type": "address[]"
        },
        {
          "internalType": "bytes32[]",
          "name": "_candidatesNames",
          "type": "bytes32[]"
        }
      ],
      "name": "addVote",
      "outputs": [],
      "stateMutability": "nonpayable",
      "type": "function"
    },
    {
      "inputs": [
        {
          "internalType": "uint256",
          "name": "_voteIndex",
          "type": "uint256"
        },
        {
          "internalType": "bytes32",
          "name": "_candidateName",
          "type": "bytes32"
        }
      ],
      "name": "checkCandidate",
      "outputs": [
        {
          "internalType": "bool",
          "name": "",
          "type": "bool"
        }
      ],
      "stateMutability": "view",
      "type": "function"
    },
    {
      "inputs": [
        {
          "internalType": "uint256",
          "name": "_voteIndex",
          "type": "uint256"
        }
      ],
      "name": "checkFinishVoting",
      "outputs": [
        {
          "internalType": "bool",
          "name": "",
          "type": "bool"
        }
      ],
      "stateMutability": "nonpayable",
      "type": "function"
    },
    {
      "inputs": [
        {
          "internalType": "uint256",
          "name": "_voteIndex",
          "type": "uint256"
        },
        {
          "internalType": "address",
          "name": "_address",
          "type": "address"
        }
      ],
      "name": "checkVote",
      "outputs": [
        {
          "internalType": "bool",
          "name": "",
          "type": "bool"
        }
      ],
      "stateMutability": "view",
      "type": "function"
    },
    {
      "inputs": [
        {
          "internalType": "uint256",
          "name": "_voteIndex",
          "type": "uint256"
        }
      ],
      "name": "checkVoting",
      "outputs": [
        {
          "internalType": "bool",
          "name": "",
          "type": "bool"
        }
      ],
      "stateMutability": "view",
      "type": "function"
    },
    {
      "inputs": [],
      "name": "comission",
      "outputs": [
        {
          "internalType": "uint256",
          "name": "",
          "type": "uint256"
        }
      ],
      "stateMutability": "view",
      "type": "function"
    },
    {
      "inputs": [],
      "name": "currentTime",
      "outputs": [
        {
          "internalType": "uint256",
          "name": "",
          "type": "uint256"
        }
      ],
      "stateMutability": "view",
      "type": "function"
    },
    {
      "inputs": [],
      "name": "destruct",
      "outputs": [],
      "stateMutability": "nonpayable",
      "type": "function"
    },
    {
      "inputs": [
        {
          "internalType": "uint256",
          "name": "_voteIndex",
          "type": "uint256"
        }
      ],
      "name": "finishVote",
      "outputs": [],
      "stateMutability": "nonpayable",
      "type": "function"
    },
    {
      "inputs": [],
      "name": "getBalance",
      "outputs": [
        {
          "internalType": "uint256",
          "name": "",
          "type": "uint256"
        }
      ],
      "stateMutability": "view",
      "type": "function"
    },
    {
      "inputs": [
        {
          "internalType": "uint256",
          "name": "_voteIndex",
          "type": "uint256"
        },
        {
          "internalType": "bytes32",
          "name": "_candidateName",
          "type": "bytes32"
        }
      ],
      "name": "getCandidate",
      "outputs": [
        {
          "components": [
            {
              "internalType": "address",
              "name": "candidateAddress",
              "type": "address"
            },
            {
              "internalType": "uint256",
              "name": "votesCount",
              "type": "uint256"
            }
          ],
          "internalType": "struct CryptonVoting.Candidate",
          "name": "",
          "type": "tuple"
        }
      ],
      "stateMutability": "view",
      "type": "function"
    },
    {
      "inputs": [],
      "name": "getFreeBalance",
      "outputs": [
        {
          "internalType": "uint256",
          "name": "",
          "type": "uint256"
        }
      ],
      "stateMutability": "view",
      "type": "function"
    },
    {
      "inputs": [
        {
          "internalType": "uint256",
          "name": "_voteIndex",
          "type": "uint256"
        }
      ],
      "name": "getTimeLeft",
      "outputs": [
        {
          "internalType": "int256",
          "name": "",
          "type": "int256"
        }
      ],
      "stateMutability": "view",
      "type": "function"
    },
    {
      "inputs": [
        {
          "internalType": "uint256",
          "name": "_voteIndex",
          "type": "uint256"
        }
      ],
      "name": "getVotingCandidates",
      "outputs": [
        {
          "components": [
            {
              "internalType": "address",
              "name": "candidateAddress",
              "type": "address"
            },
            {
              "internalType": "uint256",
              "name": "votesCount",
              "type": "uint256"
            }
          ],
          "internalType": "struct CryptonVoting.Candidate[]",
          "name": "_candidates",
          "type": "tuple[]"
        }
      ],
      "stateMutability": "view",
      "type": "function"
    },
    {
      "inputs": [
        {
          "internalType": "uint256",
          "name": "_voteIndex",
          "type": "uint256"
        }
      ],
      "name": "getWinners",
      "outputs": [
        {
          "internalType": "address[]",
          "name": "",
          "type": "address[]"
        }
      ],
      "stateMutability": "view",
      "type": "function"
    },
    {
      "inputs": [
        {
          "internalType": "uint256",
          "name": "_voteIndex",
          "type": "uint256"
        },
        {
          "internalType": "bytes32",
          "name": "_candidateName",
          "type": "bytes32"
        }
      ],
      "name": "vote",
      "outputs": [],
      "stateMutability": "payable",
      "type": "function"
    },
    {
      "inputs": [],
      "name": "voteDuration",
      "outputs": [
        {
          "internalType": "uint256",
          "name": "",
          "type": "uint256"
        }
      ],
      "stateMutability": "view",
      "type": "function"
    },
    {
      "inputs": [],
      "name": "votePrice",
      "outputs": [
        {
          "internalType": "uint256",
          "name": "",
          "type": "uint256"
        }
      ],
      "stateMutability": "view",
      "type": "function"
    },
    {
      "inputs": [
        {
          "internalType": "uint256",
          "name": "_voteIndex",
          "type": "uint256"
        }
      ],
      "name": "winners",
      "outputs": [
        {
          "internalType": "address[]",
          "name": "_winners",
          "type": "address[]"
        }
      ],
      "stateMutability": "view",
      "type": "function"
    },
    {
      "inputs": [
        {
          "internalType": "uint256",
          "name": "_value",
          "type": "uint256"
        }
      ],
      "name": "withdraw",
      "outputs": [],
      "stateMutability": "nonpayable",
      "type": "function"
    }
  ],
  "bytecode": "0x608060405267016345785d8a0000600255600a6003553480156200002257600080fd5b5060405162002a0038038062002a008339818101604052810190620000489190620000ae565b33600560006101000a81548173ffffffffffffffffffffffffffffffffffffffff021916908373ffffffffffffffffffffffffffffffffffffffff1602179055508060018190555050620000fe565b600081519050620000a881620000e4565b92915050565b600060208284031215620000c157600080fd5b6000620000d18482850162000097565b91505092915050565b6000819050919050565b620000ef81620000da565b8114620000fb57600080fd5b50565b6128f2806200010e6000396000f3fe60806040526004361061011f5760003560e01c80636b1426a4116100a0578063d18e81b311610064578063d18e81b314610400578063e13646f01461042b578063e8c5876314610454578063e93c4f1514610491578063ff110b06146104bc5761011f565b80636b1426a4146102e1578063860c851a1461031e578063a2fb117514610349578063be58b30e14610386578063cdfcc591146103c35761011f565b80632e1a7d4d116100e75780632e1a7d4d1461021d5780633a4b45321461024657806356364499146102715780635977e8671461029c57806368bb8bb6146102c55761011f565b806312065fe0146101245780631c64b6701461014f578063269617771461018c5780632b68b9c6146101c95780632c7b1bd7146101e0575b600080fd5b34801561013057600080fd5b506101396104f9565b6040516101469190612223565b60405180910390f35b34801561015b57600080fd5b5061017660048036038101906101719190611b2f565b610501565b6040516101839190612012565b60405180910390f35b34801561019857600080fd5b506101b360048036038101906101ae9190611b58565b610533565b6040516101c09190612012565b60405180910390f35b3480156101d557600080fd5b506101de6105a6565b005b3480156101ec57600080fd5b5061020760048036038101906102029190611c13565b610671565b6040516102149190612208565b60405180910390f35b34801561022957600080fd5b50610244600480360381019061023f9190611b2f565b610712565b005b34801561025257600080fd5b5061025b610907565b6040516102689190612223565b60405180910390f35b34801561027d57600080fd5b5061028661090d565b6040516102939190612223565b60405180910390f35b3480156102a857600080fd5b506102c360048036038101906102be9190611b94565b610913565b005b6102df60048036038101906102da9190611c13565b610cec565b005b3480156102ed57600080fd5b5061030860048036038101906103039190611b2f565b610fd5565b6040516103159190611fce565b60405180910390f35b34801561032a57600080fd5b50610333610fe7565b6040516103409190612223565b60405180910390f35b34801561035557600080fd5b50610370600480360381019061036b9190611b2f565b610fed565b60405161037d9190611fce565b60405180910390f35b34801561039257600080fd5b506103ad60048036038101906103a89190611b2f565b611349565b6040516103ba9190611ff0565b60405180910390f35b3480156103cf57600080fd5b506103ea60048036038101906103e59190611c13565b611547565b6040516103f79190612012565b60405180910390f35b34801561040c57600080fd5b506104156115da565b6040516104229190612223565b60405180910390f35b34801561043757600080fd5b50610452600480360381019061044d9190611b2f565b6115e2565b005b34801561046057600080fd5b5061047b60048036038101906104769190611b2f565b61162d565b604051610488919061202d565b60405180910390f35b34801561049d57600080fd5b506104a661165e565b6040516104b39190612223565b60405180910390f35b3480156104c857600080fd5b506104e360048036038101906104de9190611b2f565b6116f8565b6040516104f09190612012565b60405180910390f35b600047905090565b600080600080848152602001908152602001600020600401541415610529576000905061052e565b600190505b919050565b60008060001b60008085815260200190815260200160002060000160008473ffffffffffffffffffffffffffffffffffffffff1673ffffffffffffffffffffffffffffffffffffffff16815260200190815260200160002054141561059b57600090506105a0565b600190505b92915050565b600560009054906101000a900473ffffffffffffffffffffffffffffffffffffffff1673ffffffffffffffffffffffffffffffffffffffff163373ffffffffffffffffffffffffffffffffffffffff1614610636576040517f08c379a000000000000000000000000000000000000000000000000000000000815260040161062d90612068565b60405180910390fd5b600560009054906101000a900473ffffffffffffffffffffffffffffffffffffffff1673ffffffffffffffffffffffffffffffffffffffff16ff5b610679611994565b60008084815260200190815260200160002060010160008381526020019081526020016000206040518060400160405290816000820160009054906101000a900473ffffffffffffffffffffffffffffffffffffffff1673ffffffffffffffffffffffffffffffffffffffff1673ffffffffffffffffffffffffffffffffffffffff168152602001600182015481525050905092915050565b600560009054906101000a900473ffffffffffffffffffffffffffffffffffffffff1673ffffffffffffffffffffffffffffffffffffffff163373ffffffffffffffffffffffffffffffffffffffff16146107a2576040517f08c379a000000000000000000000000000000000000000000000000000000000815260040161079990612068565b60405180910390fd5b6004548111156107e7576040517f08c379a00000000000000000000000000000000000000000000000000000000081526004016107de90612128565b60405180910390fd5b600081141561082b576040517f08c379a0000000000000000000000000000000000000000000000000000000008152600401610822906120e8565b60405180910390fd5b600560009054906101000a900473ffffffffffffffffffffffffffffffffffffffff1673ffffffffffffffffffffffffffffffffffffffff166108fc829081150290604051600060405180830381858888f19350505050158015610893573d6000803e3d6000fd5b50600560009054906101000a900473ffffffffffffffffffffffffffffffffffffffff1673ffffffffffffffffffffffffffffffffffffffff167f69ca02dd4edd7bf0a4abb9ed3b7af3f14778db5d61921c7dc7cd545266326de2826040516108fc9190612223565b60405180910390a250565b60035481565b60015481565b600560009054906101000a900473ffffffffffffffffffffffffffffffffffffffff1673ffffffffffffffffffffffffffffffffffffffff163373ffffffffffffffffffffffffffffffffffffffff16146109a3576040517f08c379a000000000000000000000000000000000000000000000000000000000815260040161099a90612068565b60405180910390fd5b60008314156109e7576040517f08c379a00000000000000000000000000000000000000000000000000000000081526004016109de90612188565b60405180910390fd5b6109f083610501565b15610a30576040517f08c379a0000000000000000000000000000000000000000000000000000000008152600401610a27906121e8565b60405180910390fd5b6001825111610a74576040517f08c379a0000000000000000000000000000000000000000000000000000000008152600401610a6b906121c8565b60405180910390fd5b8051825114610ab8576040517f08c379a0000000000000000000000000000000000000000000000000000000008152600401610aaf90612148565b60405180910390fd5b60005b8251811015610c8a57610b0e84838381518110610b01577f4e487b7100000000000000000000000000000000000000000000000000000000600052603260045260246000fd5b6020026020010151611547565b610c7757828181518110610b4b577f4e487b7100000000000000000000000000000000000000000000000000000000600052603260045260246000fd5b60200260200101516000808681526020019081526020016000206001016000848481518110610ba3577f4e487b7100000000000000000000000000000000000000000000000000000000600052603260045260246000fd5b6020026020010151815260200190815260200160002060000160006101000a81548173ffffffffffffffffffffffffffffffffffffffff021916908373ffffffffffffffffffffffffffffffffffffffff160217905550600080858152602001908152602001600020600201828281518110610c48577f4e487b7100000000000000000000000000000000000000000000000000000000600052603260045260246000fd5b602002602001015190806001815401808255809150506001900390600052602060002001600090919091909150555b8080610c82906124e0565b915050610abb565b50600160008085815260200190815260200160002060050160006101000a81548160ff021916908315150217905550600154610cc46115da565b610cce919061233e565b60008085815260200190815260200160002060040181905550505050565b8181610cf782610501565b610d36576040517f08c379a0000000000000000000000000000000000000000000000000000000008152600401610d2d90612048565b60405180910390fd5b610d3f826116f8565b15610d7f576040517f08c379a0000000000000000000000000000000000000000000000000000000008152600401610d7690612088565b60405180910390fd5b610d898282611547565b610dc8576040517f08c379a0000000000000000000000000000000000000000000000000000000008152600401610dbf906121a8565b60405180910390fd5b600080838152602001908152602001600020600101600082815260200190815260200160002060000160009054906101000a900473ffffffffffffffffffffffffffffffffffffffff1673ffffffffffffffffffffffffffffffffffffffff163373ffffffffffffffffffffffffffffffffffffffff161415610e80576040517f08c379a0000000000000000000000000000000000000000000000000000000008152600401610e77906120a8565b60405180910390fd5b610e8a8233610533565b15610eca576040517f08c379a0000000000000000000000000000000000000000000000000000000008152600401610ec1906120c8565b60405180910390fd5b6002543414610f0e576040517f08c379a0000000000000000000000000000000000000000000000000000000008152600401610f0590612168565b60405180910390fd5b60008085815260200190815260200160002060010160008481526020019081526020016000206001016000815480929190610f48906124e0565b91905055508260008086815260200190815260200160002060000160003373ffffffffffffffffffffffffffffffffffffffff1673ffffffffffffffffffffffffffffffffffffffff168152602001908152602001600020819055506000808581526020019081526020016000206003016000815480929190610fca906124e0565b919050555050505050565b6060610fe082610fed565b9050919050565b60025481565b60606000806001905060005b600080868152602001908152602001600020600201805490508110156110de5760008060008781526020019081526020016000206001016000806000898152602001908152602001600020600201848154811061107f577f4e487b7100000000000000000000000000000000000000000000000000000000600052603260045260246000fd5b90600052602060002001548152602001908152602001600020600101549050838111156110b257809350600192506110ca565b838114156110c95782806110c5906124e0565b9350505b5b5080806110d6906124e0565b915050610ff9565b506000821115611342578067ffffffffffffffff811115611128577f4e487b7100000000000000000000000000000000000000000000000000000000600052604160045260246000fd5b6040519080825280602002602001820160405280156111565781602001602082028036833780820191505090505b509250600080600090505b6000808781526020019081526020016000206002018054905081101561133f578360008088815260200190815260200160002060010160008060008a815260200190815260200160002060020184815481106111e6577f4e487b7100000000000000000000000000000000000000000000000000000000600052603260045260246000fd5b9060005260206000200154815260200190815260200160002060010154141561132c576000808781526020019081526020016000206001016000806000898152602001908152602001600020600201838154811061126d577f4e487b7100000000000000000000000000000000000000000000000000000000600052603260045260246000fd5b9060005260206000200154815260200190815260200160002060000160009054906101000a900473ffffffffffffffffffffffffffffffffffffffff168583815181106112e3577f4e487b7100000000000000000000000000000000000000000000000000000000600052603260045260246000fd5b602002602001019073ffffffffffffffffffffffffffffffffffffffff16908173ffffffffffffffffffffffffffffffffffffffff16815250508180611328906124e0565b9250505b8080611337906124e0565b915050611161565b50505b5050919050565b60606000808381526020019081526020016000206002018054905067ffffffffffffffff8111156113a3577f4e487b7100000000000000000000000000000000000000000000000000000000600052604160045260246000fd5b6040519080825280602002602001820160405280156113dc57816020015b6113c9611994565b8152602001906001900390816113c15790505b50905060005b600080848152602001908152602001600020600201805490508110156115415760008084815260200190815260200160002060010160008060008681526020019081526020016000206002018381548110611466577f4e487b7100000000000000000000000000000000000000000000000000000000600052603260045260246000fd5b906000526020600020015481526020019081526020016000206040518060400160405290816000820160009054906101000a900473ffffffffffffffffffffffffffffffffffffffff1673ffffffffffffffffffffffffffffffffffffffff1673ffffffffffffffffffffffffffffffffffffffff168152602001600182015481525050828281518110611523577f4e487b7100000000000000000000000000000000000000000000000000000000600052603260045260246000fd5b60200260200101819052508080611539906124e0565b9150506113e2565b50919050565b60008073ffffffffffffffffffffffffffffffffffffffff16600080858152602001908152602001600020600101600084815260200190815260200160002060000160009054906101000a900473ffffffffffffffffffffffffffffffffffffffff1673ffffffffffffffffffffffffffffffffffffffff1614156115cf57600090506115d4565b600190505b92915050565b600042905090565b6115eb816116f8565b61162a576040517f08c379a000000000000000000000000000000000000000000000000000000000815260040161162190612108565b60405180910390fd5b50565b60006116376115da565b60008084815260200190815260200160002060040154611657919061241f565b9050919050565b6000600560009054906101000a900473ffffffffffffffffffffffffffffffffffffffff1673ffffffffffffffffffffffffffffffffffffffff163373ffffffffffffffffffffffffffffffffffffffff16146116f0576040517f08c379a00000000000000000000000000000000000000000000000000000000081526004016116e790612068565b60405180910390fd5b600454905090565b60006117026115da565b600080848152602001908152602001600020600401541115611727576000905061198f565b60008083815260200190815260200160002060050160009054906101000a900460ff16611757576000905061198f565b600080600084815260200190815260200160002060050160006101000a81548160ff021916908315150217905550600061179083610fed565b90506000815114156117a657600191505061198f565b6000815160646117b691906123c5565b60035460646117c5919061241f565b600254600080888152602001908152602001600020600301546117e891906123c5565b6117f291906123c5565b6117fc9190612394565b905060005b825181101561193357828181518110611843577f4e487b7100000000000000000000000000000000000000000000000000000000600052603260045260246000fd5b602002602001015173ffffffffffffffffffffffffffffffffffffffff16857f1c2ae1f7e99dbbbfe25aac964f3889ea68259d88b74709f53037a6fb930bb02a846040516118919190612223565b60405180910390a38281815181106118d2577f4e487b7100000000000000000000000000000000000000000000000000000000600052603260045260246000fd5b602002602001015173ffffffffffffffffffffffffffffffffffffffff166108fc839081150290604051600060405180830381858888f1935050505015801561191f573d6000803e3d6000fd5b50808061192b906124e0565b915050611801565b5060646003546002546000808881526020019081526020016000206003015461195c91906123c5565b61196691906123c5565b6119709190612394565b60046000828254611981919061233e565b925050819055506001925050505b919050565b6040518060400160405280600073ffffffffffffffffffffffffffffffffffffffff168152602001600081525090565b60006119d76119d284612263565b61223e565b905080838252602082019050828560208602820111156119f657600080fd5b60005b85811015611a265781611a0c8882611a9c565b8452602084019350602083019250506001810190506119f9565b5050509392505050565b6000611a43611a3e8461228f565b61223e565b90508083825260208201905082856020860282011115611a6257600080fd5b60005b85811015611a925781611a788882611b05565b845260208401935060208301925050600181019050611a65565b5050509392505050565b600081359050611aab81612877565b92915050565b600082601f830112611ac257600080fd5b8135611ad28482602086016119c4565b91505092915050565b600082601f830112611aec57600080fd5b8135611afc848260208601611a30565b91505092915050565b600081359050611b148161288e565b92915050565b600081359050611b29816128a5565b92915050565b600060208284031215611b4157600080fd5b6000611b4f84828501611b1a565b91505092915050565b60008060408385031215611b6b57600080fd5b6000611b7985828601611b1a565b9250506020611b8a85828601611a9c565b9150509250929050565b600080600060608486031215611ba957600080fd5b6000611bb786828701611b1a565b935050602084013567ffffffffffffffff811115611bd457600080fd5b611be086828701611ab1565b925050604084013567ffffffffffffffff811115611bfd57600080fd5b611c0986828701611adb565b9150509250925092565b60008060408385031215611c2657600080fd5b6000611c3485828601611b1a565b9250506020611c4585828601611b05565b9150509250929050565b6000611c5b8383611c7f565b60208301905092915050565b6000611c738383611f52565b60408301905092915050565b611c8881612453565b82525050565b6000611c99826122db565b611ca3818561230b565b9350611cae836122bb565b8060005b83811015611cdf578151611cc68882611c4f565b9750611cd1836122f1565b925050600181019050611cb2565b5085935050505092915050565b6000611cf7826122e6565b611d01818561231c565b9350611d0c836122cb565b8060005b83811015611d3d578151611d248882611c67565b9750611d2f836122fe565b925050600181019050611d10565b5085935050505092915050565b611d5381612465565b82525050565b611d628161247b565b82525050565b6000611d75600f8361232d565b9150611d80826125c7565b602082019050919050565b6000611d9860158361232d565b9150611da3826125f0565b602082019050919050565b6000611dbb60128361232d565b9150611dc682612619565b602082019050919050565b6000611dde601b8361232d565b9150611de982612642565b602082019050919050565b6000611e0160178361232d565b9150611e0c8261266b565b602082019050919050565b6000611e2460198361232d565b9150611e2f82612694565b602082019050919050565b6000611e4760178361232d565b9150611e52826126bd565b602082019050919050565b6000611e6a601d8361232d565b9150611e75826126e6565b602082019050919050565b6000611e8d601f8361232d565b9150611e988261270f565b602082019050919050565b6000611eb0602d8361232d565b9150611ebb82612738565b604082019050919050565b6000611ed360308361232d565b9150611ede82612787565b604082019050919050565b6000611ef660128361232d565b9150611f01826127d6565b602082019050919050565b6000611f1960228361232d565b9150611f24826127ff565b604082019050919050565b6000611f3c60148361232d565b9150611f478261284e565b602082019050919050565b604082016000820151611f686000850182611c7f565b506020820151611f7b6020850182611fb0565b50505050565b604082016000820151611f976000850182611c7f565b506020820151611faa6020850182611fb0565b50505050565b611fb9816124a5565b82525050565b611fc8816124a5565b82525050565b60006020820190508181036000830152611fe88184611c8e565b905092915050565b6000602082019050818103600083015261200a8184611cec565b905092915050565b60006020820190506120276000830184611d4a565b92915050565b60006020820190506120426000830184611d59565b92915050565b6000602082019050818103600083015261206181611d68565b9050919050565b6000602082019050818103600083015261208181611d8b565b9050919050565b600060208201905081810360008301526120a181611dae565b9050919050565b600060208201905081810360008301526120c181611dd1565b9050919050565b600060208201905081810360008301526120e181611df4565b9050919050565b6000602082019050818103600083015261210181611e17565b9050919050565b6000602082019050818103600083015261212181611e3a565b9050919050565b6000602082019050818103600083015261214181611e5d565b9050919050565b6000602082019050818103600083015261216181611e80565b9050919050565b6000602082019050818103600083015261218181611ea3565b9050919050565b600060208201905081810360008301526121a181611ec6565b9050919050565b600060208201905081810360008301526121c181611ee9565b9050919050565b600060208201905081810360008301526121e181611f0c565b9050919050565b6000602082019050818103600083015261220181611f2f565b9050919050565b600060408201905061221d6000830184611f81565b92915050565b60006020820190506122386000830184611fbf565b92915050565b6000612248612259565b905061225482826124af565b919050565b6000604051905090565b600067ffffffffffffffff82111561227e5761227d612587565b5b602082029050602081019050919050565b600067ffffffffffffffff8211156122aa576122a9612587565b5b602082029050602081019050919050565b6000819050602082019050919050565b6000819050602082019050919050565b600081519050919050565b600081519050919050565b6000602082019050919050565b6000602082019050919050565b600082825260208201905092915050565b600082825260208201905092915050565b600082825260208201905092915050565b6000612349826124a5565b9150612354836124a5565b9250827fffffffffffffffffffffffffffffffffffffffffffffffffffffffffffffffff0382111561238957612388612529565b5b828201905092915050565b600061239f826124a5565b91506123aa836124a5565b9250826123ba576123b9612558565b5b828204905092915050565b60006123d0826124a5565b91506123db836124a5565b9250817fffffffffffffffffffffffffffffffffffffffffffffffffffffffffffffffff048311821515161561241457612413612529565b5b828202905092915050565b600061242a826124a5565b9150612435836124a5565b92508282101561244857612447612529565b5b828203905092915050565b600061245e82612485565b9050919050565b60008115159050919050565b6000819050919050565b6000819050919050565b600073ffffffffffffffffffffffffffffffffffffffff82169050919050565b6000819050919050565b6124b8826125b6565b810181811067ffffffffffffffff821117156124d7576124d6612587565b5b80604052505050565b60006124eb826124a5565b91507fffffffffffffffffffffffffffffffffffffffffffffffffffffffffffffffff82141561251e5761251d612529565b5b600182019050919050565b7f4e487b7100000000000000000000000000000000000000000000000000000000600052601160045260246000fd5b7f4e487b7100000000000000000000000000000000000000000000000000000000600052601260045260246000fd5b7f4e487b7100000000000000000000000000000000000000000000000000000000600052604160045260246000fd5b6000601f19601f8301169050919050565b7f4e6f207375636820766f74696e67210000000000000000000000000000000000600082015250565b7f596f7520617265206e6f7420616e206f776e6572210000000000000000000000600082015250565b7f5468697320766f7465206973206f766572210000000000000000000000000000600082015250565b7f596f752063616e7420766f746520666f7220796f757273656c66210000000000600082015250565b7f596f75206861766520616c726561647920766f74656421000000000000000000600082015250565b7f43616e74207769746864726177206e756c6c2076616c75652100000000000000600082015250565b7f43616e742066696e69736820766f74696e672079657421000000000000000000600082015250565b7f56616c7565206973206f7574206f6620667265652062616c616e636521000000600082015250565b7f417272617973206d757374206265207468652073616d65206c656e6774682100600082015250565b7f5468652076616c756520646f6573206e6f74206d61746368207468652070726960008201527f7365206f6620766f74696e672100000000000000000000000000000000000000602082015250565b7f456e7465722074686520696e646578206f662074686520766f74652120496e6460008201527f65782063616e74206265206e756c6c2100000000000000000000000000000000602082015250565b7f4e6f20737563682063616e646964617465210000000000000000000000000000600082015250565b7f4d7573742068617665206174206c656173742074776f2063616e64696461746560008201527f7321000000000000000000000000000000000000000000000000000000000000602082015250565b7f5468697320696e6465782069732074616b656e21000000000000000000000000600082015250565b61288081612453565b811461288b57600080fd5b50565b61289781612471565b81146128a257600080fd5b50565b6128ae816124a5565b81146128b957600080fd5b5056fea264697066735822122083d4aed681c09355020c989dca99a071de3466cc4775280f5feed5139b56a31464736f6c63430008040033",
  "linkReferences": {},
  "deployedLinkReferences": {}
}