{
  "_format": "hh-sol-artifact-1",
  "contractName": "CryptonVoting",
  "sourceName": "contracts/Voting.sol",
  "abi": [
    {
      "inputs": [
        {
          "internalType": "uint256",
          "name": "_voteDuration",
          "type": "uint256"
        }
      ],
      "stateMutability": "nonpayable",
      "type": "constructor"
    },
    {
      "anonymous": false,
      "inputs": [
        {
          "indexed": true,
          "internalType": "address",
          "name": "_to",
          "type": "address"
        },
        {
          "indexed": false,
          "internalType": "uint256",
          "name": "_value",
          "type": "uint256"
        }
      ],
      "name": "Transfer",
      "type": "event"
    },
    {
      "anonymous": false,
      "inputs": [
        {
          "indexed": true,
          "internalType": "uint256",
          "name": "_voteIndex",
          "type": "uint256"
        },
        {
          "indexed": true,
          "internalType": "address",
          "name": "_winnerAddress",
          "type": "address"
        },
        {
          "indexed": false,
          "internalType": "uint256",
          "name": "_prize",
          "type": "uint256"
        }
      ],
      "name": "Winner",
      "type": "event"
    },
    {
      "inputs": [
        {
          "internalType": "uint256",
          "name": "_voteIndex",
          "type": "uint256"
        },
        {
          "internalType": "address[]",
          "name": "_candidatesAddresses",
          "type": "address[]"
        },
        {
          "internalType": "bytes32[]",
          "name": "_candidatesNames",
          "type": "bytes32[]"
        }
      ],
      "name": "addVote",
      "outputs": [],
      "stateMutability": "nonpayable",
      "type": "function"
    },
    {
      "inputs": [
        {
          "internalType": "uint256",
          "name": "_voteIndex",
          "type": "uint256"
        },
        {
          "internalType": "bytes32",
          "name": "_candidateName",
          "type": "bytes32"
        }
      ],
      "name": "checkCandidate",
      "outputs": [
        {
          "internalType": "bool",
          "name": "",
          "type": "bool"
        }
      ],
      "stateMutability": "view",
      "type": "function"
    },
    {
      "inputs": [
        {
          "internalType": "uint256",
          "name": "_voteIndex",
          "type": "uint256"
        }
      ],
      "name": "checkFinishVoting",
      "outputs": [
        {
          "internalType": "bool",
          "name": "",
          "type": "bool"
        }
      ],
      "stateMutability": "nonpayable",
      "type": "function"
    },
    {
      "inputs": [
        {
          "internalType": "uint256",
          "name": "_voteIndex",
          "type": "uint256"
        },
        {
          "internalType": "address",
          "name": "_address",
          "type": "address"
        }
      ],
      "name": "checkVote",
      "outputs": [
        {
          "internalType": "bool",
          "name": "",
          "type": "bool"
        }
      ],
      "stateMutability": "view",
      "type": "function"
    },
    {
      "inputs": [
        {
          "internalType": "uint256",
          "name": "_voteIndex",
          "type": "uint256"
        }
      ],
      "name": "checkVoting",
      "outputs": [
        {
          "internalType": "bool",
          "name": "",
          "type": "bool"
        }
      ],
      "stateMutability": "view",
      "type": "function"
    },
    {
      "inputs": [],
      "name": "comission",
      "outputs": [
        {
          "internalType": "uint256",
          "name": "",
          "type": "uint256"
        }
      ],
      "stateMutability": "view",
      "type": "function"
    },
    {
      "inputs": [],
      "name": "currentTime",
      "outputs": [
        {
          "internalType": "uint256",
          "name": "",
          "type": "uint256"
        }
      ],
      "stateMutability": "view",
      "type": "function"
    },
    {
      "inputs": [],
      "name": "destruct",
      "outputs": [],
      "stateMutability": "nonpayable",
      "type": "function"
    },
    {
      "inputs": [
        {
          "internalType": "uint256",
          "name": "_voteIndex",
          "type": "uint256"
        }
      ],
      "name": "finishVote",
      "outputs": [],
      "stateMutability": "nonpayable",
      "type": "function"
    },
    {
      "inputs": [],
      "name": "getBalance",
      "outputs": [
        {
          "internalType": "uint256",
          "name": "",
          "type": "uint256"
        }
      ],
      "stateMutability": "view",
      "type": "function"
    },
    {
      "inputs": [
        {
          "internalType": "uint256",
          "name": "_voteIndex",
          "type": "uint256"
        },
        {
          "internalType": "bytes32",
          "name": "_candidateName",
          "type": "bytes32"
        }
      ],
      "name": "getCandidate",
      "outputs": [
        {
          "components": [
            {
              "internalType": "address",
              "name": "candidateAddress",
              "type": "address"
            },
            {
              "internalType": "uint256",
              "name": "votesCount",
              "type": "uint256"
            }
          ],
          "internalType": "struct CryptonVoting.Candidate",
          "name": "",
          "type": "tuple"
        }
      ],
      "stateMutability": "view",
      "type": "function"
    },
    {
      "inputs": [],
      "name": "getFreeBalance",
      "outputs": [
        {
          "internalType": "uint256",
          "name": "",
          "type": "uint256"
        }
      ],
      "stateMutability": "view",
      "type": "function"
    },
    {
      "inputs": [
        {
          "internalType": "uint256",
          "name": "_voteIndex",
          "type": "uint256"
        }
      ],
      "name": "getTimeLeft",
      "outputs": [
        {
          "internalType": "int256",
          "name": "",
          "type": "int256"
        }
      ],
      "stateMutability": "view",
      "type": "function"
    },
    {
      "inputs": [
        {
          "internalType": "uint256",
          "name": "_voteIndex",
          "type": "uint256"
        }
      ],
      "name": "getVotingCandidates",
      "outputs": [
        {
          "components": [
            {
              "internalType": "address",
              "name": "candidateAddress",
              "type": "address"
            },
            {
              "internalType": "uint256",
              "name": "votesCount",
              "type": "uint256"
            }
          ],
          "internalType": "struct CryptonVoting.Candidate[]",
          "name": "_candidates",
          "type": "tuple[]"
        }
      ],
      "stateMutability": "view",
      "type": "function"
    },
    {
      "inputs": [
        {
          "internalType": "uint256",
          "name": "_voteIndex",
          "type": "uint256"
        }
      ],
      "name": "getWinners",
      "outputs": [
        {
          "internalType": "address[]",
          "name": "",
          "type": "address[]"
        }
      ],
      "stateMutability": "view",
      "type": "function"
    },
    {
      "inputs": [
        {
          "internalType": "uint256",
          "name": "_voteIndex",
          "type": "uint256"
        },
        {
          "internalType": "bytes32",
          "name": "_candidateName",
          "type": "bytes32"
        }
      ],
      "name": "vote",
      "outputs": [],
      "stateMutability": "payable",
      "type": "function"
    },
    {
      "inputs": [],
      "name": "voteDuration",
      "outputs": [
        {
          "internalType": "uint256",
          "name": "",
          "type": "uint256"
        }
      ],
      "stateMutability": "view",
      "type": "function"
    },
    {
      "inputs": [],
      "name": "votePrice",
      "outputs": [
        {
          "internalType": "uint256",
          "name": "",
          "type": "uint256"
        }
      ],
      "stateMutability": "view",
      "type": "function"
    },
    {
      "inputs": [
        {
          "internalType": "uint256",
          "name": "_voteIndex",
          "type": "uint256"
        }
      ],
      "name": "winners",
      "outputs": [
        {
          "internalType": "address[]",
          "name": "_winners",
          "type": "address[]"
        }
      ],
      "stateMutability": "view",
      "type": "function"
    },
    {
      "inputs": [
        {
          "internalType": "uint256",
          "name": "_value",
          "type": "uint256"
        }
      ],
      "name": "withdraw",
      "outputs": [],
      "stateMutability": "nonpayable",
      "type": "function"
    }
  ],
  "bytecode": "0x608060405267016345785d8a0000600255600a6003553480156200002257600080fd5b50604051620052f9380380620052f98339818101604052810190620000489190620001b5565b6200007c7f0a46103760d03e783f1b2cd58e71e5f9b6c30c5e2f0937846baa0f5977a5d52860001b6200019b60201b60201c565b620000b07f4c857b2251ec4129f2276937a266a53f05ecf337e62d360543e21180680fab9260001b6200019b60201b60201c565b620000e47f14e52fdcec9cbab7137b05ab826de9bb95650c0b81fe595061b84e97fb855ff460001b6200019b60201b60201c565b33600560006101000a81548173ffffffffffffffffffffffffffffffffffffffff021916908373ffffffffffffffffffffffffffffffffffffffff160217905550620001597f7b5bf6b761aba29f8966c4326733c0ba9a6bc2f9070da3e28282a83b28f5a58160001b6200019b60201b60201c565b6200018d7f1d8963ccff0a385e717ef0ad2d5965ff70eab02cd3a28b7b3e9809f2cf73f65d60001b6200019b60201b60201c565b806001819055505062000205565b50565b600081519050620001af81620001eb565b92915050565b600060208284031215620001c857600080fd5b6000620001d8848285016200019e565b91505092915050565b6000819050919050565b620001f681620001e1565b81146200020257600080fd5b50565b6150e480620002156000396000f3fe60806040526004361061011f5760003560e01c80636b1426a4116100a0578063d18e81b311610064578063d18e81b314610400578063e13646f01461042b578063e8c5876314610454578063e93c4f1514610491578063ff110b06146104bc5761011f565b80636b1426a4146102e1578063860c851a1461031e578063a2fb117514610349578063be58b30e14610386578063cdfcc591146103c35761011f565b80632e1a7d4d116100e75780632e1a7d4d1461021d5780633a4b45321461024657806356364499146102715780635977e8671461029c57806368bb8bb6146102c55761011f565b806312065fe0146101245780631c64b6701461014f578063269617771461018c5780632b68b9c6146101c95780632c7b1bd7146101e0575b600080fd5b34801561013057600080fd5b506101396104f9565b6040516101469190614a15565b60405180910390f35b34801561015b57600080fd5b5061017660048036038101906101719190614321565b610585565b6040516101839190614804565b60405180910390f35b34801561019857600080fd5b506101b360048036038101906101ae919061434a565b610744565b6040516101c09190614804565b60405180910390f35b3480156101d557600080fd5b506101de610943565b005b3480156101ec57600080fd5b5061020760048036038101906102029190614405565b610b99565b60405161021491906149fa565b60405180910390f35b34801561022957600080fd5b50610244600480360381019061023f9190614321565b610cbe565b005b34801561025257600080fd5b5061025b6111f6565b6040516102689190614a15565b60405180910390f35b34801561027d57600080fd5b506102866111fc565b6040516102939190614a15565b60405180910390f35b3480156102a857600080fd5b506102c360048036038101906102be9190614386565b611202565b005b6102df60048036038101906102da9190614405565b611c3b565b005b3480156102ed57600080fd5b5061030860048036038101906103039190614321565b612478565b60405161031591906147c0565b60405180910390f35b34801561032a57600080fd5b5061033361250e565b6040516103409190614a15565b60405180910390f35b34801561035557600080fd5b50610370600480360381019061036b9190614321565b612514565b60405161037d91906147c0565b60405180910390f35b34801561039257600080fd5b506103ad60048036038101906103a89190614321565b612f05565b6040516103ba91906147e2565b60405180910390f35b3480156103cf57600080fd5b506103ea60048036038101906103e59190614405565b613237565b6040516103f79190614804565b60405180910390f35b34801561040c57600080fd5b50610415613456565b6040516104229190614a15565b60405180910390f35b34801561043757600080fd5b50610452600480360381019061044d9190614321565b6134e2565b005b34801561046057600080fd5b5061047b60048036038101906104769190614321565b613609565b604051610488919061481f565b60405180910390f35b34801561049d57600080fd5b506104a66136be565b6040516104b39190614a15565b60405180910390f35b3480156104c857600080fd5b506104e360048036038101906104de9190614321565b6138e3565b6040516104f09190614804565b60405180910390f35b60006105277fdf5c5f99307595d02dbb82f92e84d8fd0ce42620a3f9708457cdd9f44149fc8760001b614183565b6105537f7be92e717284a065d304a4ecbb1dd4eabb487e779c82975c73d74c91f393723b60001b614183565b61057f7f5ee042667a8d2e01abaf3b0356859ba109975e099ce681aa99bbe4a182a7c87b60001b614183565b47905090565b60006105b37f303e8c43e2c077353cfb22963f51707a6a20465d2638d145f14477f145fbf5ba60001b614183565b6105df7fe4e10b44ca31460e6cdb9930faea31b5e3f78e1ad37891d79be744ac2a969b7360001b614183565b61060b7fa9c15db7037d4b6919cce4d5f85c6f9a2adfe273a26ca2ec3cb61aba06c3ec3a60001b614183565b60008060008481526020019081526020016000206004015414156106b6576106557f4a51b869862586a7fd26f5c33ee178513bbc7480abb4e084e981d443e9585fbe60001b614183565b6106817fedb2ca1263c0741df9febc9f2ae8a457d8350f2ec895688ef04754480e2ad82f60001b614183565b6106ad7fd32e4db8fdbe52a6d260704c39bcfebe034ac4a505b21bebc3e5d478efc4865b60001b614183565b6000905061073f565b6106e27ffbfdf3ce9106c2e6c4945e8e3a9f643f935d1bd37b0938d8d73a3a8f8e166c1f60001b614183565b61070e7f9ac151028f92b31e97f77391bae10f5815cf905094b98c650081ae599128a1ee60001b614183565b61073a7f212638c561dd74f9fc9e8e5347e7031dc51cd797f3252c1dbf1c4343a055279b60001b614183565b600190505b919050565b60006107727f78710ec47766e41645931cb8c36a205483ce17e206df03dea2f3ffa404d8aaad60001b614183565b61079e7f1843891f0b62f7f77eef9e96cb88bc3fee793ea271aa06ce3bb579c3008b069060001b614183565b6107ca7fe676098e046f4575e48555bfe26ac4b57f771908a421149e29c04ce92673522360001b614183565b6000801b60008085815260200190815260200160002060000160008473ffffffffffffffffffffffffffffffffffffffff1673ffffffffffffffffffffffffffffffffffffffff1681526020019081526020016000205414156108b4576108537f8f7ff236f3833984bddf0244f083cfffb7baa4fa2a3d976e5577980206425d8560001b614183565b61087f7fab1f658b733ab8400249dda1ac1992518d2d0f9b1e156a7f93bd58af3302f61060001b614183565b6108ab7f46a4aada76813741a1ca1ea8fffcc72dfe47f58ec7f9a90f3a17eb0bcd86bfe860001b614183565b6000905061093d565b6108e07f6936ecda9d8916b72b7b9f40d80017295427df88baacea4b6473343c9c89650b60001b614183565b61090c7f4861cfa06bda1343033c3fa7a35685ff6723278e4564fe55d7bb5a2c89e0916560001b614183565b6109387f3c7af0c7f8f4b479781275aaca4275a784b68eac9ded6989e63650b17e06977560001b614183565b600190505b92915050565b61096f7f801dac2cca4145cf73c1e44bb5351dcb05f3039694df7b0bf620e8257fc3709460001b614183565b61099b7fe4cf38610eb6b2aed51251219bf2001c9e9a4e7c986190f58a4a322a008caf7060001b614183565b6109c77fcf73666c091f72e447272bc286b587cfa9ae1ab4ba6cfee4b4241ccab5b2a55560001b614183565b6109f27e9d2d3dadadc3251875ca729bd8a78dd31a1226bd81dbcdf8ce754e99cf481d60001b614183565b600560009054906101000a900473ffffffffffffffffffffffffffffffffffffffff1673ffffffffffffffffffffffffffffffffffffffff163373ffffffffffffffffffffffffffffffffffffffff1614610a82576040517f08c379a0000000000000000000000000000000000000000000000000000000008152600401610a799061485a565b60405180910390fd5b610aae7f50867972228163d166b9e8dc1ba50a84a764215a5bea6cc6f3dab88fd23b6b8f60001b614183565b610ada7ffaec0b0457ef8a679827acfa17fc28274566de22b0c417ba87cababc2497246060001b614183565b610b067ff5e240354bc5bb3496b9e96013282c032b5a8e33ad29bb194c1e74e9b609829860001b614183565b610b327f146d6bdc370fcf9153ad93e721a746aeba5f82c681e24c3e0b131fec4eef811460001b614183565b610b5e7f057da40c6ab599e94a9d9c6e259c097928d82238de154508c53a2edc7ea3976160001b614183565b600560009054906101000a900473ffffffffffffffffffffffffffffffffffffffff1673ffffffffffffffffffffffffffffffffffffffff16ff5b610ba1614186565b610bcd7f4f188af283a3812465da23f6757b93498c4c5ade911fca1a40fcf9f3c319fca260001b614183565b610bf97f474a6aaa5f2e16fb87c035a8d92d4e75d05d8bfb341acc3f597bf46783d1088560001b614183565b610c257ff7433932e506b110999cd0bf8e58fceb6a923605fcccd47c7e595d79b72af65d60001b614183565b60008084815260200190815260200160002060010160008381526020019081526020016000206040518060400160405290816000820160009054906101000a900473ffffffffffffffffffffffffffffffffffffffff1673ffffffffffffffffffffffffffffffffffffffff1673ffffffffffffffffffffffffffffffffffffffff168152602001600182015481525050905092915050565b610cea7f801dac2cca4145cf73c1e44bb5351dcb05f3039694df7b0bf620e8257fc3709460001b614183565b610d167fe4cf38610eb6b2aed51251219bf2001c9e9a4e7c986190f58a4a322a008caf7060001b614183565b610d427fcf73666c091f72e447272bc286b587cfa9ae1ab4ba6cfee4b4241ccab5b2a55560001b614183565b610d6d7e9d2d3dadadc3251875ca729bd8a78dd31a1226bd81dbcdf8ce754e99cf481d60001b614183565b600560009054906101000a900473ffffffffffffffffffffffffffffffffffffffff1673ffffffffffffffffffffffffffffffffffffffff163373ffffffffffffffffffffffffffffffffffffffff1614610dfd576040517f08c379a0000000000000000000000000000000000000000000000000000000008152600401610df49061485a565b60405180910390fd5b610e297f50867972228163d166b9e8dc1ba50a84a764215a5bea6cc6f3dab88fd23b6b8f60001b614183565b610e557ffaec0b0457ef8a679827acfa17fc28274566de22b0c417ba87cababc2497246060001b614183565b610e817fdd7c23039c5cfd0de197dd04ae14987cba1c6aca8de66a0c2c9a136615917b2260001b614183565b610ead7f508a9d4d92bc6503961b0330feb5aba661c7ba0af8b9ea79938c97cbc259b9e160001b614183565b610ed97fb7d076b057978ec309c70533a29c238d470861c5cf6c1a3aab79cd94803481b360001b614183565b610f057f7c30536f7ff718ca7d95a5b66d183b399133c440f1e611ca0dc5604b3a031ddc60001b614183565b600454811115610f4a576040517f08c379a0000000000000000000000000000000000000000000000000000000008152600401610f419061491a565b60405180910390fd5b610f767f4eeb60b7007b449dd3d9ae7b4f022540a91cf2514738a35e113a3f916c5d731160001b614183565b610fa27f2a80211ae5361e719edea6875b5eae8ee9e49d5bf4b47413ca878869e4364f8160001b614183565b610fce7ffb7a6402889a477fd8c9b3fa7f990d5f81d940bfd0a86f024a0cf603e38cfaff60001b614183565b610ffa7f2003df7e55239bbe0810382ad85128bb317ebac1113d2bdf575936106bca63fa60001b614183565b600081141561103e576040517f08c379a0000000000000000000000000000000000000000000000000000000008152600401611035906148da565b60405180910390fd5b61106a7fbfbc4b8fd85d9549d066f7638f206b78ed8b73bb921e4f95260b8b148bf84d7160001b614183565b6110967f0d4046d480b1c3864109bdc335afd997e5afaa69309bde7fe362cc1dd29e08ec60001b614183565b6110c27f983043dcec0b90562af12bc667203ea2125eebe6d22178e1de33da31bad12c3d60001b614183565b600560009054906101000a900473ffffffffffffffffffffffffffffffffffffffff1673ffffffffffffffffffffffffffffffffffffffff166108fc829081150290604051600060405180830381858888f1935050505015801561112a573d6000803e3d6000fd5b506111577f43a870ecb37b9da7d10dc6e80807558131870e9c652b5023d0f57f4c3031d0e260001b614183565b6111837fb0430d52cda17f0f1a67e7192da36ac223d335f6bc2db18bb739f84f67a962b460001b614183565b600560009054906101000a900473ffffffffffffffffffffffffffffffffffffffff1673ffffffffffffffffffffffffffffffffffffffff167f69ca02dd4edd7bf0a4abb9ed3b7af3f14778db5d61921c7dc7cd545266326de2826040516111eb9190614a15565b60405180910390a250565b60035481565b60015481565b61122e7f801dac2cca4145cf73c1e44bb5351dcb05f3039694df7b0bf620e8257fc3709460001b614183565b61125a7fe4cf38610eb6b2aed51251219bf2001c9e9a4e7c986190f58a4a322a008caf7060001b614183565b6112867fcf73666c091f72e447272bc286b587cfa9ae1ab4ba6cfee4b4241ccab5b2a55560001b614183565b6112b17e9d2d3dadadc3251875ca729bd8a78dd31a1226bd81dbcdf8ce754e99cf481d60001b614183565b600560009054906101000a900473ffffffffffffffffffffffffffffffffffffffff1673ffffffffffffffffffffffffffffffffffffffff163373ffffffffffffffffffffffffffffffffffffffff1614611341576040517f08c379a00000000000000000000000000000000000000000000000000000000081526004016113389061485a565b60405180910390fd5b61136d7f50867972228163d166b9e8dc1ba50a84a764215a5bea6cc6f3dab88fd23b6b8f60001b614183565b6113997ffaec0b0457ef8a679827acfa17fc28274566de22b0c417ba87cababc2497246060001b614183565b6113c57feb0edcf38b93035eb8adc766ec950fe55b326fadb6648477d08802379f6a281160001b614183565b6113f17f287d726852fa6668c51e4cf7713e54dd750ac66c794e88a0df60e05d3249172b60001b614183565b61141d7f99261d474aff0b932ac9cb8fe9ab94d0067332b08a6bfbb147959014d8a2ac2160001b614183565b6114497f0facd25ab17291aa3dadf183e55f014ac323faea950fe1608f796f021d24872860001b614183565b600083141561148d576040517f08c379a00000000000000000000000000000000000000000000000000000000081526004016114849061497a565b60405180910390fd5b6114b97f6d0ae70c3beb53eb8b5a1c3fe7cfced37e9095339b6cb12f0eedbc602cb72b4360001b614183565b6114e57f6bddd38d42fc57bd5d72e832d039fc9d514373ff1b6efe7965d757b502ff023060001b614183565b6115117f26ccef134fd1a20906d26dbb6229dc498f052d2262eb347e64b11752ab3fbee660001b614183565b61153d7f6af54c6183f04ff7b177ce3a9e9f09b34990a21f83507984f9a61da59793445960001b614183565b61154683610585565b15611586576040517f08c379a000000000000000000000000000000000000000000000000000000000815260040161157d906149da565b60405180910390fd5b6115b27f0fd66da463211dd4ced799ea2a172b4559e0824b46b94f8e3bc168f8f8c6a27e60001b614183565b6115de7f3925172c478046dec39ebc775bdfe100569c5a44a1c51940f65615dfee0c583860001b614183565b61160a7fbff36cdcff5689da77054672951ff7b39ee8c14ed62fb69c4a1ad9738cb8274360001b614183565b6116367f2902921d5a9fa81a9c39e43111419a693df2c09ce69aeca34a4ba5ac79fb0cee60001b614183565b600182511161167a576040517f08c379a0000000000000000000000000000000000000000000000000000000008152600401611671906149ba565b60405180910390fd5b6116a67f342f9a5cca7c51f590b526126dc0990befb3b14b7147d24934980aef538a418760001b614183565b6116d27fd4e79f4ce62fefdbb82dfd02f1b824a0d6496430bb8ed93368653f889eff6b9160001b614183565b6116fe7f1bae8eb5ef8ca0b88231d670c77b7e40b3934b808965bdc14a898511071caac260001b614183565b61172a7f7bf74138d374a5c646ffd787dc03dbbc6a529a8aa2e3adf12e41b211ff0b095660001b614183565b805182511461176e576040517f08c379a00000000000000000000000000000000000000000000000000000000081526004016117659061493a565b60405180910390fd5b61179a7fe6787fc85216c151cd8a25dd35e7cd965b1c40844c7f9bddfc0130817a15b11960001b614183565b6117c67febefefab0e8e68aac7a0a9342efd027d1c9d27bc31a64b31df0e4bd9f196d11d60001b614183565b6117f27fc11c02ba5092c85c484476143b4c4cec931934f816db2ed8edde734e8406bcf460001b614183565b60005b8251811015611b295761182a7fae9e956d0ceeacd7356be6244ef6deb6da83f371fefdfbe473520baaf3b2c33060001b614183565b6118567fcc19f2893759b962425b9698a60c6480f2097f1513806f33c78edd4c0df0fc8960001b614183565b6118a084838381518110611893577f4e487b7100000000000000000000000000000000000000000000000000000000600052603260045260246000fd5b6020026020010151613237565b611ae9576118d07fdc14ee55bf883bcfb142a35bce372e1494dd9552f2bbd059d52640727df045bd60001b614183565b6118fc7fc916e697c78b3828c55e0baa999063b0399dc93d2e93732ac92ff430c283ad2d60001b614183565b6119287f23e98e1f44661ac83c246a9dd3ce47076e174da5493642329b9d722df3da289260001b614183565b828181518110611961577f4e487b7100000000000000000000000000000000000000000000000000000000600052603260045260246000fd5b602002602001015160008086815260200190815260200160002060010160008484815181106119b9577f4e487b7100000000000000000000000000000000000000000000000000000000600052603260045260246000fd5b6020026020010151815260200190815260200160002060000160006101000a81548173ffffffffffffffffffffffffffffffffffffffff021916908373ffffffffffffffffffffffffffffffffffffffff160217905550611a3c7f18281653f55a88908614ccd07a3d14e08e2b9ca61c974365f59f14cab56ff67d60001b614183565b611a687f1602f9ee2b19e0a0f676f4bb265c91942e75b30eb21dbc932cdd11f592cb9b1960001b614183565b600080858152602001908152602001600020600201828281518110611ab6577f4e487b7100000000000000000000000000000000000000000000000000000000600052603260045260246000fd5b60200260200101519080600181540180825580915050600190039060005260206000200160009091909190915055611b16565b611b157f3b45b2493b6b3d16422a459cf23eab1ed2df27a62f0812a83b97f165b4d3c26060001b614183565b5b8080611b2190614cd2565b9150506117f5565b50611b567f8ec3c513de4da8800b541fd1129e4d82e654183ab3e1d9c35e9cf6af60ce550e60001b614183565b611b827f0246531a3e4bf8743d41b96c4cb5a69b18b22a98cb6e623449b3588ac898fb7660001b614183565b600160008085815260200190815260200160002060050160006101000a81548160ff021916908315150217905550611bdc7ffeb9b7fe8a0eb23859c092fcd41dd85782875501deea58a1840af340b87ef1f660001b614183565b611c087f2596a841cc274f844b2b0d4fc64c948422dc6f94908ebba7a0d5fa1758da5e9860001b614183565b600154611c13613456565b611c1d9190614b30565b60008085815260200190815260200160002060040181905550505050565b8181611c697f77da160107ab4ac13172fb08641b4b532e605fc8e59024b84378598e51ffb89e60001b614183565b611c957fa0aeb7f0438379b3207f90a87e829570002999f1ac467f23d660580c0037ec6c60001b614183565b611cc17f88efe0b18047a5bdf9f965425476495e91b310181b23ff6cb74df13ac0a87ae760001b614183565b611ced7f559eb31416b0071b1c9d6e50ee5f9bdbb99319aab5e163cb8ae7622a8357b74460001b614183565b611cf682610585565b611d35576040517f08c379a0000000000000000000000000000000000000000000000000000000008152600401611d2c9061483a565b60405180910390fd5b611d617f9b07d54f59f1bd35892de9353d458b3ae5b7201784d0bc81b3d9fea56c4b396e60001b614183565b611d8d7ffacc6b6b950572d0227a8b4e9562a788e097e1a565516ced96db4defc97651ae60001b614183565b611db97f2975776d2f7e2d81cbfab0f32b53d96111951e032a10e4080a60ca60dde17f0660001b614183565b611de57ff5b13c389fdad319a93319c3cd25728e105e618593a8e759bbcc189c89a99d3860001b614183565b611dee826138e3565b15611e2e576040517f08c379a0000000000000000000000000000000000000000000000000000000008152600401611e259061487a565b60405180910390fd5b611e5a7f298d8f708aeb89268a1d07352227dbdb93a529539e64ed76dbc5d88bcc03b56b60001b614183565b611e867f90f059551838702bfbade35e18593ce655131f11ae3995aa8a51772c4a524ec660001b614183565b611eb27f42dbc9a32df84fe9c32bff6bd68e21cacd592a75aa5f35c19908d15a74236c2760001b614183565b611ede7ff938564f8acf63afe85696f63f0f738bddd3656cbe355319fb6eee07471f1eca60001b614183565b611ee88282613237565b611f27576040517f08c379a0000000000000000000000000000000000000000000000000000000008152600401611f1e9061499a565b60405180910390fd5b611f537fe665862712434e237357a20eba2f772186b37d3a0fb5813f1aac8628e3fbd50360001b614183565b611f7f7f8f3e893ccb60430ac0846a4fbbc2fd53f5588ff8d7b20e8f6f2a903ce92a33ef60001b614183565b611fab7f71251e326d4fc76990e96132fb4656931b88529d35f8dc7a547444cd5713b8ce60001b614183565b611fd77f3efb801cf17cd697e208e955a2ac0e83f5d8f9c2d1e49e2699f7bdda0c571c4e60001b614183565b600080838152602001908152602001600020600101600082815260200190815260200160002060000160009054906101000a900473ffffffffffffffffffffffffffffffffffffffff1673ffffffffffffffffffffffffffffffffffffffff163373ffffffffffffffffffffffffffffffffffffffff16141561208f576040517f08c379a00000000000000000000000000000000000000000000000000000000081526004016120869061489a565b60405180910390fd5b6120bb7f6878309ebd20acfb4651c5ea477ae3bc11093b51530227919ff4b1cc757af5c860001b614183565b6120e77fbdca5590ec9d572c34111ebacda8a41bcc2e0516023f7ba84523bbd2b3950d2460001b614183565b6121137f59cd687bf6a3664fa077d9fc4dc6fb1f30809dbeb003f9cabd8a695e878c204d60001b614183565b61213f7fbd2db34ec2374176f512471bfc7ef087aa1f09c680fb2975fcfd161e125e3d1c60001b614183565b6121498233610744565b15612189576040517f08c379a0000000000000000000000000000000000000000000000000000000008152600401612180906148ba565b60405180910390fd5b6121b57f25461f67ad9ebb73668d152004b942213f9e27483ff867b1e0c40e089e60618160001b614183565b6121e17f0a2f9080db569918923fa94f06ce520727c78f7fd994a66a7d383ba1fa3aa26f60001b614183565b61220d7fbdc4f94f4d8650470e4e58842871ac996ed38567673530b426807297cf19ba5260001b614183565b6122397ff06de43ed9ea2eb00c037d5477a7326f266760601393ff1ef19856da0745f30260001b614183565b600254341461227d576040517f08c379a00000000000000000000000000000000000000000000000000000000081526004016122749061495a565b60405180910390fd5b6122a97f2e6558b47a0e65d0c36abeab14804552d76cf972cb46c84d8e71e326dbc4aca860001b614183565b6122d57f461d0451d8e35c2cb8e9bbe4f9bfc23d8cd0be769d93d4c822343c62a1d8e70160001b614183565b6123017f62d40332ce0518847d5cede476b06665f8781d9c9f0889a3d19c7611ffc99b6460001b614183565b61232d7f8e4f3fa3df0d0809b308e3c9898e78fc4237ed1ae30d49f5765562d003b49ec360001b614183565b6000808581526020019081526020016000206001016000848152602001908152602001600020600101600081548092919061236790614cd2565b91905055506123987fb2c774f71505bc6a8ad53c906b9d31b3408db315ea2b0735ce655c75dda853ea60001b614183565b6123c47f6ce743d4fa6eaee432605144c33609970faa5e40b103489ee300d5b2270f2a9660001b614183565b8260008086815260200190815260200160002060000160003373ffffffffffffffffffffffffffffffffffffffff1673ffffffffffffffffffffffffffffffffffffffff168152602001908152602001600020819055506124477f1a905d7ab86d195c4bc5deac15e8923ca17ae1d0677dbae64e8641a24c46cdcf60001b614183565b600080858152602001908152602001600020600301600081548092919061246d90614cd2565b919050555050505050565b60606124a67f6249c1f072d0d4b3853c19d764262808ba112596926e35723e36244c9d30477560001b614183565b6124d27f67b3b8fdbca3f49b3f08f896e86af8086ffc291c9aaa1aafad88c03d76f77dcc60001b614183565b6124fe7f5754ada1cf7fc830e55b31589d87ddc3a67a0fb0ed58731040ca6a0545ce079a60001b614183565b61250782612514565b9050919050565b60025481565b60606125427fd980f844476a03082987693d8bf16290a201cb4f456c84c2af43094fec0f405760001b614183565b61256e7fb461c1bd0c1dabc80ba017df99b8bba834e868f54d7fcaca00d637104f1765d760001b614183565b61259a7f1ec2008a2ddd73a32bd3b6ed560f9ac4d705804b3e804ccb737233f4f969284360001b614183565b60006125c87ff8a61a1b11eb40157ae7ef9826fbb4bcd42ea9cda497d96daf2002f73827a6c860001b614183565b6125f47f60a623e8a7b928312532a439cec2350a772014affa46ecfb881627874582986960001b614183565b6000600190506126267f0c7348cf12b0a72ddb7c29a9a08543a7c043cde4322a19b047d0199424ff3cb460001b614183565b6126527fe371e3dc66d493a096d7a6f543e190d65d9a073e3460d3eaa77eac555856f92c60001b614183565b60005b600080868152602001908152602001600020600201805490508110156129a7576126a17ff112b23c041ea2ef7640fc18d1123cc7728547531a0a9ad622c41cd5f0c5e67560001b614183565b6126cd7f583d8f4b10fd1afc47063cbb81b264c521156484b44b3c5eebb267475ec96cd960001b614183565b600080600087815260200190815260200160002060010160008060008981526020019081526020016000206002018481548110612733577f4e487b7100000000000000000000000000000000000000000000000000000000600052603260045260246000fd5b9060005260206000200154815260200190815260200160002060010154905061277e7f4ccbe73c856b5192a125ea4ce67d2dd5e98f9203e22224c09c24834e0d6772e860001b614183565b6127aa7f0b38d0d6523af0310b1b178c3c4d7db25e743aa79c68f48a88a8601accd59c9c60001b614183565b8381111561289a576127de7f4d9294571d344616e6a81e67aa4e006b68168c4b794f4e4491ba1270fbbb132860001b614183565b61280a7f7ebeb2ff017668530be8477daf6eeb4725c09da4ef5755d1b0d85f490723d5fc60001b614183565b6128367fe2c0bafc99f10bcd1b4dc37c6a2524153210d78e534c8b952a04eb1ec8e0888560001b614183565b8093506128657ffc8d52829c52d6130896664c99f3d875e0fba3f77cc4b829b968912192a9c95a60001b614183565b6128917f23900498f7a25fb926680697aa46c6505458fa424066d84040d0943ecc4062b260001b614183565b60019250612993565b6128c67f2a5a584def8d50060335364416c6712ee31cbe2d9f7236aacefccc769e2f601f60001b614183565b6128f27f53b0738891f90be2c27924e5bd57cdbd6cdffe192363a5146f30474bf8ba3b4a60001b614183565b83811415612965576129267f59c0011e3fa5dfb051caf6c023a3e6013dc6d1d7425628e7a586b9abcbe9d8b560001b614183565b6129527fe83e0681976a09128d13ed097959142ffe197a3edda1f8c3d34ec6236b15932160001b614183565b828061295d90614cd2565b935050612992565b6129917fe129b29918066535ddfc122c3c20cf31aab2fabd154a9b60db34dd67c1f55c3160001b614183565b5b5b50808061299f90614cd2565b915050612655565b506129d47f5f99390f842e89e5645a3a6f796b8e6062c4285a519ec7f8dee8539b846ff4bc60001b614183565b612a007f3a198ae6e3e3f78d59e20421429922050d50632a4762fc83c09f895917c2d8ae60001b614183565b6000821115612ed157612a357f9a90396b3d0b30e7908c6306442e2e9d76a2754e5abcedec12903b358e4a4b9f60001b614183565b612a617fd6747678637c73016787c5de4fc29aa74929e0408854d6ce30385ab971281f0860001b614183565b612a8d7f04fc5505e5b318faaed5426c7326997fc168066ecd9d7c357fb125670a28db9260001b614183565b8067ffffffffffffffff811115612acd577f4e487b7100000000000000000000000000000000000000000000000000000000600052604160045260246000fd5b604051908082528060200260200182016040528015612afb5781602001602082028036833780820191505090505b509250612b2a7fa5263a9c34f39a969b1a04955b52c7cee9ad11856e24266d3653915f6480bcb860001b614183565b612b567f056500318ecf3e852fa53a7bad07ab2e9d93b56ace6c68edcf2b2b60d7048f8660001b614183565b6000612b847fd96ce6280c91703d0ddcb8333e229e840b0be068d24f58cb49797193920745f960001b614183565b612bb07fe76efb4a3b9a1cc0f2f417043059cf01773262540165c5da931c4ae3d560cc1660001b614183565b60005b60008087815260200190815260200160002060020180549050811015612eca57612bff7f522c6e3a3dc394c8e48a85c94fd474b1ab352871ceef0e10b8e8e6bcbe11af9660001b614183565b612c2b7f273d4ac68fa76ca0a396f6fab8fa47cdd02ced62e5c40be530a94c0a841e54f960001b614183565b8360008088815260200190815260200160002060010160008060008a81526020019081526020016000206002018481548110612c90577f4e487b7100000000000000000000000000000000000000000000000000000000600052603260045260246000fd5b90600052602060002001548152602001908152602001600020600101541415612e8a57612cdf7fa704029bd2e8fa2c0ab47a097912551c061256be56646c8fb6f0f1da2bf8e1bd60001b614183565b612d0b7fb8e72b576d1b7adbc6eaee1b9aa1f4999259be188d63d155510029f37eb1cdd460001b614183565b612d377fc4d04c9fb7e24e5a6205be38f5711de7d3781a410ec30a2b2adec2bbf5db087960001b614183565b60008087815260200190815260200160002060010160008060008981526020019081526020016000206002018381548110612d9b577f4e487b7100000000000000000000000000000000000000000000000000000000600052603260045260246000fd5b9060005260206000200154815260200190815260200160002060000160009054906101000a900473ffffffffffffffffffffffffffffffffffffffff16858381518110612e11577f4e487b7100000000000000000000000000000000000000000000000000000000600052603260045260246000fd5b602002602001019073ffffffffffffffffffffffffffffffffffffffff16908173ffffffffffffffffffffffffffffffffffffffff1681525050612e777ff525bb4aa696b2bc29fa320f607ef0152235418e1c11636252a9cdb1e006af7660001b614183565b8180612e8290614cd2565b925050612eb7565b612eb67f7d2efc7236f229b45c9ba3121f70397aab7db34f9fe0dd3fe383d9dd74d3123b60001b614183565b5b8080612ec290614cd2565b915050612bb3565b5050612efe565b612efd7f10dbe6be8972623f97da63c82e7020ae8021a9d053d8fc33ec7dc8ed50d2dd9160001b614183565b5b5050919050565b6060612f337f3ac107da5310104f8fec1b976a61349783abb3f64eddca123031cdeaa503a50860001b614183565b612f5f7f8c0210d8c8c557988162fa0fcb32645f477e4fd18a00b1b63290a0f6f40e5a4f60001b614183565b612f8b7fe84c7d02cef2a7a050f9b23c4cf9918ab953fbad5ec783629c5be56ab20c77e860001b614183565b6000808381526020019081526020016000206002018054905067ffffffffffffffff811115612fe3577f4e487b7100000000000000000000000000000000000000000000000000000000600052604160045260246000fd5b60405190808252806020026020018201604052801561301c57816020015b613009614186565b8152602001906001900390816130015790505b50905061304b7fdd58f7b93a19e9450ade180fcceea87f10ad0ed0bddbfac9b05bda4b88d0c16e60001b614183565b6130777f89c4936121484632c17c2eb3ed766fd84c92fb35db9f0b0b935b4fae5bf3918960001b614183565b60005b60008084815260200190815260200160002060020180549050811015613231576130c67f3bad41794ed7e9bffd053f5a53e2ce08360e562d54b25c56308ce2c458046c9c60001b614183565b6130f27f8383744722925c20bc89774c8cda3346ead04a3de17d1fc7c5d10f733562bdc660001b614183565b60008084815260200190815260200160002060010160008060008681526020019081526020016000206002018381548110613156577f4e487b7100000000000000000000000000000000000000000000000000000000600052603260045260246000fd5b906000526020600020015481526020019081526020016000206040518060400160405290816000820160009054906101000a900473ffffffffffffffffffffffffffffffffffffffff1673ffffffffffffffffffffffffffffffffffffffff1673ffffffffffffffffffffffffffffffffffffffff168152602001600182015481525050828281518110613213577f4e487b7100000000000000000000000000000000000000000000000000000000600052603260045260246000fd5b6020026020010181905250808061322990614cd2565b91505061307a565b50919050565b60006132657f17da741f75a73c8229437ba40a752a7c9b7a9844c27697998a2cf67876bd4e4460001b614183565b6132917f708b060130cb53e117bc0b61109e4ce774e56644f8c46d3be7993b4b10405c7260001b614183565b6132bd7f0237277423f050ff67d8f5e90b324ff391216c753b605ca9a929f14632c2c19e60001b614183565b600073ffffffffffffffffffffffffffffffffffffffff16600080858152602001908152602001600020600101600084815260200190815260200160002060000160009054906101000a900473ffffffffffffffffffffffffffffffffffffffff1673ffffffffffffffffffffffffffffffffffffffff1614156133c7576133667ea21a7544b7e25c140c4f1e07126a91827c34d641103b06acf1aa55deb3c9d060001b614183565b6133927f528237a7031718f8f40714f253a1b4b45e821b47d24a7cad2ea3df146b084f3860001b614183565b6133be7fdfc592934724453da185fb8e8874a4cdcebd126166b3b0b9b7ee134f9a8c236660001b614183565b60009050613450565b6133f37f843db57c97b23e5b67e6a9bd7fc2df039ddb4ebc731af57ab9f1aba828d4bd8f60001b614183565b61341f7f57e362c88f6f3d5d8fa04de4ff0bbb8e48f39c87138e977fea858f6a5dabeb3160001b614183565b61344b7fccf5412143aadb95a9969fe2245d676305a6127c93b292ed2ee8a98e756ca16160001b614183565b600190505b92915050565b60006134847f7a799c7b3f886711faf056adec666ffb5230e6dec03ac102600b067ff865c71360001b614183565b6134b07f4a655f05ea67f712c40f54f7d25e1c7d9a6ef940b28911364dae57f6b20c100460001b614183565b6134dc7f4d0a33893ff73b2fb598f9b9719a41b08717822fc73af8bb89eca0802c9ff64760001b614183565b42905090565b61350e7fc13d17a52773a55b0a262f255961ab726fc4765cd48999fd086ed1c6ae6b1d9c60001b614183565b61353a7f62ee2b4474ee35288029fd6324f8bdfe07095f2c75211c6925803d93468aafd060001b614183565b6135667f0a0eb339a724b190ede9fb2cb043798d935048a1b658465cfda20b02156d506d60001b614183565b6135927f5c1a7b70ed91b180878c8539df91720060a4c19a8b963bc21cc44c3e2b20fff760001b614183565b61359b816138e3565b6135da576040517f08c379a00000000000000000000000000000000000000000000000000000000081526004016135d1906148fa565b60405180910390fd5b6136067fb66be82ce9d6e92e5e8336cba20de1612992eccda65e437b8b9ec785ac33bdfe60001b614183565b50565b60006136377feff66ad69a6827f065e88b766d771cda11e4a6ae66a6d10ce4267b6099e0afd560001b614183565b6136637fa2db813de5a2dd27f1b147cb91ae52707d847373d3377a3841801a26e264268f60001b614183565b61368f7fcd7e9fc9d4873d5f35175ca80f88eb24aed987b62e2c99fb1e1f5967016e8d3460001b614183565b613697613456565b600080848152602001908152602001600020600401546136b79190614c11565b9050919050565b60006136ec7f801dac2cca4145cf73c1e44bb5351dcb05f3039694df7b0bf620e8257fc3709460001b614183565b6137187fe4cf38610eb6b2aed51251219bf2001c9e9a4e7c986190f58a4a322a008caf7060001b614183565b6137447fcf73666c091f72e447272bc286b587cfa9ae1ab4ba6cfee4b4241ccab5b2a55560001b614183565b61376f7e9d2d3dadadc3251875ca729bd8a78dd31a1226bd81dbcdf8ce754e99cf481d60001b614183565b600560009054906101000a900473ffffffffffffffffffffffffffffffffffffffff1673ffffffffffffffffffffffffffffffffffffffff163373ffffffffffffffffffffffffffffffffffffffff16146137ff576040517f08c379a00000000000000000000000000000000000000000000000000000000081526004016137f69061485a565b60405180910390fd5b61382b7f50867972228163d166b9e8dc1ba50a84a764215a5bea6cc6f3dab88fd23b6b8f60001b614183565b6138577ffaec0b0457ef8a679827acfa17fc28274566de22b0c417ba87cababc2497246060001b614183565b6138837f9bb01ee17ee7da5e986b5d16d403520ad707c7624910531109d0898b5613086960001b614183565b6138af7f94f2ad3786bbb52649f9b4c6dd368f5ebc23b4fda5669442ee4b7fed00c7281560001b614183565b6138db7f3f48cb40fcc10a8dd1e390da8596e5d3217f7bb3af8328dbad55b6ca6710ae9060001b614183565b600454905090565b60006139117f425d5ebc82264d2e21bff253bd704112e9732cbd2e9b3be38f6f41fef0c9412a60001b614183565b61393d7fc0d1c5bdd9cc115441987c27e1639d3a20c60502de43ca9b0aa82f4dee5362e460001b614183565b6139697f6eb75fd416424ffff6cbb0a989922a2a8194563fd277370f7b4d9d9d8ac07c6f60001b614183565b613971613456565b600080848152602001908152602001600020600401541115613a1a576139b97f0fedfb28ce4cb0d285d12b0c71b9d88070bfc98776a7f16a88bb3d711c44231760001b614183565b6139e57fa663b7bfabd1e50e94bc9a6365b3dfb360fbd57fa44d1d78427a3a61610badfc60001b614183565b613a117f60eb676291c55aa9960e50cb0ca41dde483e428220c8e1c1b3ebae3eeadf9eed60001b614183565b6000905061417e565b613a467fb1ac4059c3d05477bcfcb12345c57baef6b69de8093e3d62986d1904c072878060001b614183565b613a727f8cc43d6fe3170ffd8cfb8897f2b5e4e9616af110cac1aaf5ae663db93fd7521460001b614183565b613a9e7f3711347d3490e072f6bd421a8f6b7c9fa56cbed3a171eb5553f4697081ed3a1f60001b614183565b60008083815260200190815260200160002060050160009054906101000a900460ff16613b5257613af17f44f26dd25d64f91ce172fdc0c5fc2211c571dabaa78c9ee974c9dcebf4907cfb60001b614183565b613b1d7fd1857040418d0ad940b83913eb4c3cfb9a235d7133b519ae3193cc1f522141ab60001b614183565b613b497f370acbdd93d154a822535e5c464d9b68db5cba6638512607b3633b4afc9d277760001b614183565b6000905061417e565b613b7e7faa4b588216d34816839518da271fdceea2f91908808af93b2e274c5bc68565f360001b614183565b613baa7f09108851ca75877a789006811275150088dbee202007efbf4363cd0f3c4c064d60001b614183565b613bd67ff1b99c7a218efc8a105e027087089b26437ef839a92bc4b67da0e1a40113e97360001b614183565b600080600084815260200190815260200160002060050160006101000a81548160ff021916908315150217905550613c307fa9f94e264fb010a166b6cfd2ebec785456031bd0ee83c692d7ec012f8c1af9cb60001b614183565b613c5c7f1cff356a02608062365788297f1c9b4811f0cd430a2e0b546a795a4af6a7a8dd60001b614183565b6000613c6783612514565b9050613c957f1fe7c50d504cb8eefdb3d74f06a7781b952700ee2d7e2dc66823f40b6127c72460001b614183565b613cc17f79978f829b93b51016f410ce3916614a4560aad9dcb6050626729078333df22e60001b614183565b600081511415613d5957613cf77f8abbdd27a0894e0699e5f75cb1729d7fed496438bca17e31f2dff7ffbf96c17960001b614183565b613d237f8deb733efe0c0d40f4468c80ef7b291a82362ce0998914930d55a95a3794913360001b614183565b613d4f7fa1b90bc6aab1c3096897befaabe3f9086392005d26b8dfa2730cc3b977ba51bb60001b614183565b600191505061417e565b613d857f81cc162194aa77c2a464c6c216f1884aabff8133e7c6baa064bd767ee681420460001b614183565b613db17f8105cca5901932826b857436a16a63b4144cb34783dc383930fca7d4f57ae48660001b614183565b613ddd7ff990281323a00ce0ceaf09b20f62857f9244f5b9eb218d6dc6a39a89abe72fca60001b614183565b600081516064613ded9190614bb7565b6003546064613dfc9190614c11565b60025460008088815260200190815260200160002060030154613e1f9190614bb7565b613e299190614bb7565b613e339190614b86565b9050613e617fd04ec62d7b3d2dcb44c011f5b289881073058039e67a643de4130c5dbc72193c60001b614183565b613e8d7f094b67186af581a8c5c35fae0e449ecd5d47ad32179d13ddda1364ec6270c1b460001b614183565b60005b825181101561407257613ec57f836baf79d905cad5e2230d583369e383fbd0f7f3b4fde67aa4805297afdb6df960001b614183565b613ef17f1893f5aa8f03842f92485fc3bfe746959df4785f998e010e296bb63c5f2c65d760001b614183565b828181518110613f2a577f4e487b7100000000000000000000000000000000000000000000000000000000600052603260045260246000fd5b602002602001015173ffffffffffffffffffffffffffffffffffffffff16857f1c2ae1f7e99dbbbfe25aac964f3889ea68259d88b74709f53037a6fb930bb02a84604051613f789190614a15565b60405180910390a3613fac7f1d6b2b9e6bd212199e3aa8841cdde9ceb8553d8319a1d1f43598e6b428dfd27f60001b614183565b613fd87f95d7ae6e872f2197954a501046a9ffecea1b1b07995a2d40da4fa75230ae2e6560001b614183565b828181518110614011577f4e487b7100000000000000000000000000000000000000000000000000000000600052603260045260246000fd5b602002602001015173ffffffffffffffffffffffffffffffffffffffff166108fc839081150290604051600060405180830381858888f1935050505015801561405e573d6000803e3d6000fd5b50808061406a90614cd2565b915050613e90565b5061409f7f099b78f03a0e62799fea02f9b820fbf004fe97e0f1083f288aa210b9e9fb4b6160001b614183565b6140cb7f7adee266636832ce72d4747a14f04f6dbf87f01130b43791b3d39a3fec1d730160001b614183565b6064600354600254600080888152602001908152602001600020600301546140f39190614bb7565b6140fd9190614bb7565b6141079190614b86565b600460008282546141189190614b30565b9250508190555061414b7ffb8f9509c560a223e1744080a518bb06517d3ed5da056a1f6315ed365656adb460001b614183565b6141777f5151a0cde136fb5dabfaf8c264f5153ed1b9487209684cd235ed6ce0e629505b60001b614183565b6001925050505b919050565b50565b6040518060400160405280600073ffffffffffffffffffffffffffffffffffffffff168152602001600081525090565b60006141c96141c484614a55565b614a30565b905080838252602082019050828560208602820111156141e857600080fd5b60005b8581101561421857816141fe888261428e565b8452602084019350602083019250506001810190506141eb565b5050509392505050565b600061423561423084614a81565b614a30565b9050808382526020820190508285602086028201111561425457600080fd5b60005b85811015614284578161426a88826142f7565b845260208401935060208301925050600181019050614257565b5050509392505050565b60008135905061429d81615069565b92915050565b600082601f8301126142b457600080fd5b81356142c48482602086016141b6565b91505092915050565b600082601f8301126142de57600080fd5b81356142ee848260208601614222565b91505092915050565b60008135905061430681615080565b92915050565b60008135905061431b81615097565b92915050565b60006020828403121561433357600080fd5b60006143418482850161430c565b91505092915050565b6000806040838503121561435d57600080fd5b600061436b8582860161430c565b925050602061437c8582860161428e565b9150509250929050565b60008060006060848603121561439b57600080fd5b60006143a98682870161430c565b935050602084013567ffffffffffffffff8111156143c657600080fd5b6143d2868287016142a3565b925050604084013567ffffffffffffffff8111156143ef57600080fd5b6143fb868287016142cd565b9150509250925092565b6000806040838503121561441857600080fd5b60006144268582860161430c565b9250506020614437858286016142f7565b9150509250929050565b600061444d8383614471565b60208301905092915050565b60006144658383614744565b60408301905092915050565b61447a81614c45565b82525050565b600061448b82614acd565b6144958185614afd565b93506144a083614aad565b8060005b838110156144d15781516144b88882614441565b97506144c383614ae3565b9250506001810190506144a4565b5085935050505092915050565b60006144e982614ad8565b6144f38185614b0e565b93506144fe83614abd565b8060005b8381101561452f5781516145168882614459565b975061452183614af0565b925050600181019050614502565b5085935050505092915050565b61454581614c57565b82525050565b61455481614c6d565b82525050565b6000614567600f83614b1f565b915061457282614db9565b602082019050919050565b600061458a601583614b1f565b915061459582614de2565b602082019050919050565b60006145ad601283614b1f565b91506145b882614e0b565b602082019050919050565b60006145d0601b83614b1f565b91506145db82614e34565b602082019050919050565b60006145f3601783614b1f565b91506145fe82614e5d565b602082019050919050565b6000614616601983614b1f565b915061462182614e86565b602082019050919050565b6000614639601783614b1f565b915061464482614eaf565b602082019050919050565b600061465c601d83614b1f565b915061466782614ed8565b602082019050919050565b600061467f601f83614b1f565b915061468a82614f01565b602082019050919050565b60006146a2602d83614b1f565b91506146ad82614f2a565b604082019050919050565b60006146c5603083614b1f565b91506146d082614f79565b604082019050919050565b60006146e8601283614b1f565b91506146f382614fc8565b602082019050919050565b600061470b602283614b1f565b915061471682614ff1565b604082019050919050565b600061472e601483614b1f565b915061473982615040565b602082019050919050565b60408201600082015161475a6000850182614471565b50602082015161476d60208501826147a2565b50505050565b6040820160008201516147896000850182614471565b50602082015161479c60208501826147a2565b50505050565b6147ab81614c97565b82525050565b6147ba81614c97565b82525050565b600060208201905081810360008301526147da8184614480565b905092915050565b600060208201905081810360008301526147fc81846144de565b905092915050565b6000602082019050614819600083018461453c565b92915050565b6000602082019050614834600083018461454b565b92915050565b600060208201905081810360008301526148538161455a565b9050919050565b600060208201905081810360008301526148738161457d565b9050919050565b60006020820190508181036000830152614893816145a0565b9050919050565b600060208201905081810360008301526148b3816145c3565b9050919050565b600060208201905081810360008301526148d3816145e6565b9050919050565b600060208201905081810360008301526148f381614609565b9050919050565b600060208201905081810360008301526149138161462c565b9050919050565b600060208201905081810360008301526149338161464f565b9050919050565b6000602082019050818103600083015261495381614672565b9050919050565b6000602082019050818103600083015261497381614695565b9050919050565b60006020820190508181036000830152614993816146b8565b9050919050565b600060208201905081810360008301526149b3816146db565b9050919050565b600060208201905081810360008301526149d3816146fe565b9050919050565b600060208201905081810360008301526149f381614721565b9050919050565b6000604082019050614a0f6000830184614773565b92915050565b6000602082019050614a2a60008301846147b1565b92915050565b6000614a3a614a4b565b9050614a468282614ca1565b919050565b6000604051905090565b600067ffffffffffffffff821115614a7057614a6f614d79565b5b602082029050602081019050919050565b600067ffffffffffffffff821115614a9c57614a9b614d79565b5b602082029050602081019050919050565b6000819050602082019050919050565b6000819050602082019050919050565b600081519050919050565b600081519050919050565b6000602082019050919050565b6000602082019050919050565b600082825260208201905092915050565b600082825260208201905092915050565b600082825260208201905092915050565b6000614b3b82614c97565b9150614b4683614c97565b9250827fffffffffffffffffffffffffffffffffffffffffffffffffffffffffffffffff03821115614b7b57614b7a614d1b565b5b828201905092915050565b6000614b9182614c97565b9150614b9c83614c97565b925082614bac57614bab614d4a565b5b828204905092915050565b6000614bc282614c97565b9150614bcd83614c97565b9250817fffffffffffffffffffffffffffffffffffffffffffffffffffffffffffffffff0483118215151615614c0657614c05614d1b565b5b828202905092915050565b6000614c1c82614c97565b9150614c2783614c97565b925082821015614c3a57614c39614d1b565b5b828203905092915050565b6000614c5082614c77565b9050919050565b60008115159050919050565b6000819050919050565b6000819050919050565b600073ffffffffffffffffffffffffffffffffffffffff82169050919050565b6000819050919050565b614caa82614da8565b810181811067ffffffffffffffff82111715614cc957614cc8614d79565b5b80604052505050565b6000614cdd82614c97565b91507fffffffffffffffffffffffffffffffffffffffffffffffffffffffffffffffff821415614d1057614d0f614d1b565b5b600182019050919050565b7f4e487b7100000000000000000000000000000000000000000000000000000000600052601160045260246000fd5b7f4e487b7100000000000000000000000000000000000000000000000000000000600052601260045260246000fd5b7f4e487b7100000000000000000000000000000000000000000000000000000000600052604160045260246000fd5b6000601f19601f8301169050919050565b7f4e6f207375636820766f74696e67210000000000000000000000000000000000600082015250565b7f596f7520617265206e6f7420616e206f776e6572210000000000000000000000600082015250565b7f5468697320766f7465206973206f766572210000000000000000000000000000600082015250565b7f596f752063616e7420766f746520666f7220796f757273656c66210000000000600082015250565b7f596f75206861766520616c726561647920766f74656421000000000000000000600082015250565b7f43616e74207769746864726177206e756c6c2076616c75652100000000000000600082015250565b7f43616e742066696e69736820766f74696e672079657421000000000000000000600082015250565b7f56616c7565206973206f7574206f6620667265652062616c616e636521000000600082015250565b7f417272617973206d757374206265207468652073616d65206c656e6774682100600082015250565b7f5468652076616c756520646f6573206e6f74206d61746368207468652070726960008201527f7365206f6620766f74696e672100000000000000000000000000000000000000602082015250565b7f456e7465722074686520696e646578206f662074686520766f74652120496e6460008201527f65782063616e74206265206e756c6c2100000000000000000000000000000000602082015250565b7f4e6f20737563682063616e646964617465210000000000000000000000000000600082015250565b7f4d7573742068617665206174206c656173742074776f2063616e64696461746560008201527f7321000000000000000000000000000000000000000000000000000000000000602082015250565b7f5468697320696e6465782069732074616b656e21000000000000000000000000600082015250565b61507281614c45565b811461507d57600080fd5b50565b61508981614c63565b811461509457600080fd5b50565b6150a081614c97565b81146150ab57600080fd5b5056fea2646970667358221220d0325409ae933fa4cd933684c8689b0ecc5486e25d277fb317567bd2f005650164736f6c63430008040033",
  "linkReferences": {},
  "deployedLinkReferences": {}
}